{
	"Orbis-balancer_old/contracts/rewards/StakingRewards.sol": {
		"StakingRewards": {
			"abi": [
				{
					"inputs": [
						{
							"internalType": "address",
							"name": "_rewardsDistribution",
							"type": "address"
						},
						{
							"internalType": "address",
							"name": "_rewardsToken",
							"type": "address"
						},
						{
							"internalType": "address",
							"name": "_stakingToken",
							"type": "address"
						}
					],
					"stateMutability": "nonpayable",
					"type": "constructor"
				},
				{
					"anonymous": false,
					"inputs": [
						{
							"indexed": false,
							"internalType": "address",
							"name": "owner",
							"type": "address"
						},
						{
							"indexed": false,
							"internalType": "address",
							"name": "to",
							"type": "address"
						},
						{
							"indexed": false,
							"internalType": "uint256",
							"name": "amt",
							"type": "uint256"
						}
					],
					"name": "CHECK",
					"type": "event"
				},
				{
					"anonymous": false,
					"inputs": [
						{
							"indexed": false,
							"internalType": "uint256",
							"name": "reward",
							"type": "uint256"
						},
						{
							"indexed": false,
							"internalType": "uint256",
							"name": "periodFinish",
							"type": "uint256"
						}
					],
					"name": "RewardAdded",
					"type": "event"
				},
				{
					"anonymous": false,
					"inputs": [
						{
							"indexed": true,
							"internalType": "address",
							"name": "user",
							"type": "address"
						},
						{
							"indexed": false,
							"internalType": "uint256",
							"name": "reward",
							"type": "uint256"
						}
					],
					"name": "RewardPaid",
					"type": "event"
				},
				{
					"anonymous": false,
					"inputs": [
						{
							"indexed": true,
							"internalType": "address",
							"name": "user",
							"type": "address"
						},
						{
							"indexed": false,
							"internalType": "uint256",
							"name": "amount",
							"type": "uint256"
						}
					],
					"name": "Staked",
					"type": "event"
				},
				{
					"anonymous": false,
					"inputs": [
						{
							"indexed": true,
							"internalType": "address",
							"name": "user",
							"type": "address"
						},
						{
							"indexed": false,
							"internalType": "uint256",
							"name": "amount",
							"type": "uint256"
						}
					],
					"name": "Withdrawn",
					"type": "event"
				},
				{
					"inputs": [
						{
							"internalType": "address",
							"name": "account",
							"type": "address"
						}
					],
					"name": "balanceOf",
					"outputs": [
						{
							"internalType": "uint256",
							"name": "",
							"type": "uint256"
						}
					],
					"stateMutability": "view",
					"type": "function"
				},
				{
					"inputs": [
						{
							"internalType": "address",
							"name": "account",
							"type": "address"
						}
					],
					"name": "earned",
					"outputs": [
						{
							"internalType": "uint256",
							"name": "",
							"type": "uint256"
						}
					],
					"stateMutability": "view",
					"type": "function"
				},
				{
					"inputs": [],
					"name": "exit",
					"outputs": [],
					"stateMutability": "nonpayable",
					"type": "function"
				},
				{
					"inputs": [],
					"name": "getReward",
					"outputs": [],
					"stateMutability": "nonpayable",
					"type": "function"
				},
				{
					"inputs": [],
					"name": "lastTimeRewardApplicable",
					"outputs": [
						{
							"internalType": "uint256",
							"name": "",
							"type": "uint256"
						}
					],
					"stateMutability": "view",
					"type": "function"
				},
				{
					"inputs": [],
					"name": "lastUpdateTime",
					"outputs": [
						{
							"internalType": "uint256",
							"name": "",
							"type": "uint256"
						}
					],
					"stateMutability": "view",
					"type": "function"
				},
				{
					"inputs": [
						{
							"internalType": "uint256",
							"name": "reward",
							"type": "uint256"
						},
						{
							"internalType": "uint256",
							"name": "rewardsDuration",
							"type": "uint256"
						}
					],
					"name": "notifyRewardAmount",
					"outputs": [],
					"stateMutability": "nonpayable",
					"type": "function"
				},
				{
					"inputs": [],
					"name": "periodFinish",
					"outputs": [
						{
							"internalType": "uint256",
							"name": "",
							"type": "uint256"
						}
					],
					"stateMutability": "view",
					"type": "function"
				},
				{
					"inputs": [],
					"name": "rewardPerToken",
					"outputs": [
						{
							"internalType": "uint256",
							"name": "",
							"type": "uint256"
						}
					],
					"stateMutability": "view",
					"type": "function"
				},
				{
					"inputs": [],
					"name": "rewardPerTokenStored",
					"outputs": [
						{
							"internalType": "uint256",
							"name": "",
							"type": "uint256"
						}
					],
					"stateMutability": "view",
					"type": "function"
				},
				{
					"inputs": [],
					"name": "rewardRate",
					"outputs": [
						{
							"internalType": "uint256",
							"name": "",
							"type": "uint256"
						}
					],
					"stateMutability": "view",
					"type": "function"
				},
				{
					"inputs": [
						{
							"internalType": "address",
							"name": "",
							"type": "address"
						}
					],
					"name": "rewards",
					"outputs": [
						{
							"internalType": "uint256",
							"name": "",
							"type": "uint256"
						}
					],
					"stateMutability": "view",
					"type": "function"
				},
				{
					"inputs": [],
					"name": "rewardsDistribution",
					"outputs": [
						{
							"internalType": "address",
							"name": "",
							"type": "address"
						}
					],
					"stateMutability": "view",
					"type": "function"
				},
				{
					"inputs": [],
					"name": "rewardsToken",
					"outputs": [
						{
							"internalType": "contract IERC20",
							"name": "",
							"type": "address"
						}
					],
					"stateMutability": "view",
					"type": "function"
				},
				{
					"inputs": [
						{
							"internalType": "uint256",
							"name": "amount",
							"type": "uint256"
						},
						{
							"internalType": "address",
							"name": "owner",
							"type": "address"
						}
					],
					"name": "stake",
					"outputs": [],
					"stateMutability": "nonpayable",
					"type": "function"
				},
				{
					"inputs": [],
					"name": "stakingToken",
					"outputs": [
						{
							"internalType": "contract IERC20",
							"name": "",
							"type": "address"
						}
					],
					"stateMutability": "view",
					"type": "function"
				},
				{
					"inputs": [],
					"name": "totalSupply",
					"outputs": [
						{
							"internalType": "uint256",
							"name": "",
							"type": "uint256"
						}
					],
					"stateMutability": "view",
					"type": "function"
				},
				{
					"inputs": [
						{
							"internalType": "uint256",
							"name": "unboundPeriod",
							"type": "uint256"
						}
					],
					"name": "unboundingPeriod",
					"outputs": [],
					"stateMutability": "nonpayable",
					"type": "function"
				},
				{
					"inputs": [
						{
							"internalType": "address",
							"name": "",
							"type": "address"
						}
					],
					"name": "userRewardPerTokenPaid",
					"outputs": [
						{
							"internalType": "uint256",
							"name": "",
							"type": "uint256"
						}
					],
					"stateMutability": "view",
					"type": "function"
				},
				{
					"inputs": [
						{
							"internalType": "uint256",
							"name": "amount",
							"type": "uint256"
						}
					],
					"name": "withdraw",
					"outputs": [],
					"stateMutability": "nonpayable",
					"type": "function"
				}
			],
			"devdoc": {
				"kind": "dev",
				"methods": {},
				"version": 1
			},
			"evm": {
				"assembly": "    /* \"Orbis-balancer_old/contracts/rewards/StakingRewards.sol\":373:5586  contract StakingRewards is IStakingRewards, RewardsDistributionRecipient, ReentrancyGuard {\r... */\n  mstore(0x40, 0x80)\n    /* \"Orbis-balancer_old/contracts/rewards/StakingRewards.sol\":634:635  0 */\n  0x00\n    /* \"Orbis-balancer_old/contracts/rewards/StakingRewards.sol\":604:635  uint256 public periodFinish = 0 */\n  0x04\n  sstore\n    /* \"Orbis-balancer_old/contracts/rewards/StakingRewards.sol\":670:671  0 */\n  0x00\n    /* \"Orbis-balancer_old/contracts/rewards/StakingRewards.sol\":642:671  uint256 public rewardRate = 0 */\n  0x05\n  sstore\n    /* \"Orbis-balancer_old/contracts/rewards/StakingRewards.sol\":1029:1307  constructor(\r... */\n  callvalue\n  dup1\n  iszero\n  tag_1\n  jumpi\n  0x00\n  dup1\n  revert\ntag_1:\n  pop\n  mload(0x40)\n  sub(codesize, bytecodeSize)\n  dup1\n  bytecodeSize\n  dup4\n  codecopy\n  dup2\n  dup2\n  add\n  0x40\n  mstore\n  dup2\n  add\n  swap1\n  tag_2\n  swap2\n  swap1\n  tag_3\n  jump\t// in\ntag_2:\n    /* \"Orbis-balancer_old/contracts/rewards/ReentrancyGuard.sol\":401:402  1 */\n  0x01\n    /* \"Orbis-balancer_old/contracts/rewards/ReentrancyGuard.sol\":385:398  _guardCounter */\n  dup1\n    /* \"Orbis-balancer_old/contracts/rewards/ReentrancyGuard.sol\":385:402  _guardCounter = 1 */\n  dup2\n  swap1\n  sstore\n  pop\n    /* \"Orbis-balancer_old/contracts/rewards/StakingRewards.sol\":1185:1198  _rewardsToken */\n  dup2\n    /* \"Orbis-balancer_old/contracts/rewards/StakingRewards.sol\":1163:1175  rewardsToken */\n  0x02\n  0x00\n    /* \"Orbis-balancer_old/contracts/rewards/StakingRewards.sol\":1163:1199  rewardsToken = IERC20(_rewardsToken) */\n  0x0100\n  exp\n  dup2\n  sload\n  dup2\n  0xffffffffffffffffffffffffffffffffffffffff\n  mul\n  not\n  and\n  swap1\n  dup4\n  0xffffffffffffffffffffffffffffffffffffffff\n  and\n  mul\n  or\n  swap1\n  sstore\n  pop\n    /* \"Orbis-balancer_old/contracts/rewards/StakingRewards.sol\":1232:1245  _stakingToken */\n  dup1\n    /* \"Orbis-balancer_old/contracts/rewards/StakingRewards.sol\":1210:1222  stakingToken */\n  0x03\n  0x00\n    /* \"Orbis-balancer_old/contracts/rewards/StakingRewards.sol\":1210:1246  stakingToken = IERC20(_stakingToken) */\n  0x0100\n  exp\n  dup2\n  sload\n  dup2\n  0xffffffffffffffffffffffffffffffffffffffff\n  mul\n  not\n  and\n  swap1\n  dup4\n  0xffffffffffffffffffffffffffffffffffffffff\n  and\n  mul\n  or\n  swap1\n  sstore\n  pop\n    /* \"Orbis-balancer_old/contracts/rewards/StakingRewards.sol\":1279:1299  _rewardsDistribution */\n  dup3\n    /* \"Orbis-balancer_old/contracts/rewards/StakingRewards.sol\":1257:1276  rewardsDistribution */\n  0x00\n  dup1\n    /* \"Orbis-balancer_old/contracts/rewards/StakingRewards.sol\":1257:1299  rewardsDistribution = _rewardsDistribution */\n  0x0100\n  exp\n  dup2\n  sload\n  dup2\n  0xffffffffffffffffffffffffffffffffffffffff\n  mul\n  not\n  and\n  swap1\n  dup4\n  0xffffffffffffffffffffffffffffffffffffffff\n  and\n  mul\n  or\n  swap1\n  sstore\n  pop\n    /* \"Orbis-balancer_old/contracts/rewards/StakingRewards.sol\":1029:1307  constructor(\r... */\n  pop\n  pop\n  pop\n    /* \"Orbis-balancer_old/contracts/rewards/StakingRewards.sol\":373:5586  contract StakingRewards is IStakingRewards, RewardsDistributionRecipient, ReentrancyGuard {\r... */\n  jump(tag_8)\n    /* \"#utility.yul\":7:150   */\ntag_10:\n    /* \"#utility.yul\":64:69   */\n  0x00\n    /* \"#utility.yul\":95:101   */\n  dup2\n    /* \"#utility.yul\":89:102   */\n  mload\n    /* \"#utility.yul\":80:102   */\n  swap1\n  pop\n    /* \"#utility.yul\":111:144   */\n  tag_12\n    /* \"#utility.yul\":138:143   */\n  dup2\n    /* \"#utility.yul\":111:144   */\n  tag_13\n  jump\t// in\ntag_12:\n    /* \"#utility.yul\":7:150   */\n  swap3\n  swap2\n  pop\n  pop\n  jump\t// out\n    /* \"#utility.yul\":156:819   */\ntag_3:\n    /* \"#utility.yul\":244:250   */\n  0x00\n    /* \"#utility.yul\":252:258   */\n  dup1\n    /* \"#utility.yul\":260:266   */\n  0x00\n    /* \"#utility.yul\":309:311   */\n  0x60\n    /* \"#utility.yul\":297:306   */\n  dup5\n    /* \"#utility.yul\":288:295   */\n  dup7\n    /* \"#utility.yul\":284:307   */\n  sub\n    /* \"#utility.yul\":280:312   */\n  slt\n    /* \"#utility.yul\":277:396   */\n  iszero\n  tag_15\n  jumpi\n    /* \"#utility.yul\":315:394   */\n  tag_16\n  tag_17\n  jump\t// in\ntag_16:\n    /* \"#utility.yul\":277:396   */\ntag_15:\n    /* \"#utility.yul\":435:436   */\n  0x00\n    /* \"#utility.yul\":460:524   */\n  tag_18\n    /* \"#utility.yul\":516:523   */\n  dup7\n    /* \"#utility.yul\":507:513   */\n  dup3\n    /* \"#utility.yul\":496:505   */\n  dup8\n    /* \"#utility.yul\":492:514   */\n  add\n    /* \"#utility.yul\":460:524   */\n  tag_10\n  jump\t// in\ntag_18:\n    /* \"#utility.yul\":450:524   */\n  swap4\n  pop\n    /* \"#utility.yul\":406:534   */\n  pop\n    /* \"#utility.yul\":573:575   */\n  0x20\n    /* \"#utility.yul\":599:663   */\n  tag_19\n    /* \"#utility.yul\":655:662   */\n  dup7\n    /* \"#utility.yul\":646:652   */\n  dup3\n    /* \"#utility.yul\":635:644   */\n  dup8\n    /* \"#utility.yul\":631:653   */\n  add\n    /* \"#utility.yul\":599:663   */\n  tag_10\n  jump\t// in\ntag_19:\n    /* \"#utility.yul\":589:663   */\n  swap3\n  pop\n    /* \"#utility.yul\":544:673   */\n  pop\n    /* \"#utility.yul\":712:714   */\n  0x40\n    /* \"#utility.yul\":738:802   */\n  tag_20\n    /* \"#utility.yul\":794:801   */\n  dup7\n    /* \"#utility.yul\":785:791   */\n  dup3\n    /* \"#utility.yul\":774:783   */\n  dup8\n    /* \"#utility.yul\":770:792   */\n  add\n    /* \"#utility.yul\":738:802   */\n  tag_10\n  jump\t// in\ntag_20:\n    /* \"#utility.yul\":728:802   */\n  swap2\n  pop\n    /* \"#utility.yul\":683:812   */\n  pop\n    /* \"#utility.yul\":156:819   */\n  swap3\n  pop\n  swap3\n  pop\n  swap3\n  jump\t// out\n    /* \"#utility.yul\":906:1002   */\ntag_23:\n    /* \"#utility.yul\":943:950   */\n  0x00\n    /* \"#utility.yul\":972:996   */\n  tag_25\n    /* \"#utility.yul\":990:995   */\n  dup3\n    /* \"#utility.yul\":972:996   */\n  tag_26\n  jump\t// in\ntag_25:\n    /* \"#utility.yul\":961:996   */\n  swap1\n  pop\n    /* \"#utility.yul\":906:1002   */\n  swap2\n  swap1\n  pop\n  jump\t// out\n    /* \"#utility.yul\":1008:1134   */\ntag_26:\n    /* \"#utility.yul\":1045:1052   */\n  0x00\n    /* \"#utility.yul\":1085:1127   */\n  0xffffffffffffffffffffffffffffffffffffffff\n    /* \"#utility.yul\":1078:1083   */\n  dup3\n    /* \"#utility.yul\":1074:1128   */\n  and\n    /* \"#utility.yul\":1063:1128   */\n  swap1\n  pop\n    /* \"#utility.yul\":1008:1134   */\n  swap2\n  swap1\n  pop\n  jump\t// out\n    /* \"#utility.yul\":1263:1380   */\ntag_17:\n    /* \"#utility.yul\":1372:1373   */\n  0x00\n    /* \"#utility.yul\":1369:1370   */\n  dup1\n    /* \"#utility.yul\":1362:1374   */\n  revert\n    /* \"#utility.yul\":1386:1508   */\ntag_13:\n    /* \"#utility.yul\":1459:1483   */\n  tag_32\n    /* \"#utility.yul\":1477:1482   */\n  dup2\n    /* \"#utility.yul\":1459:1483   */\n  tag_23\n  jump\t// in\ntag_32:\n    /* \"#utility.yul\":1452:1457   */\n  dup2\n    /* \"#utility.yul\":1449:1484   */\n  eq\n    /* \"#utility.yul\":1439:1502   */\n  tag_33\n  jumpi\n    /* \"#utility.yul\":1498:1499   */\n  0x00\n    /* \"#utility.yul\":1495:1496   */\n  dup1\n    /* \"#utility.yul\":1488:1500   */\n  revert\n    /* \"#utility.yul\":1439:1502   */\ntag_33:\n    /* \"#utility.yul\":1386:1508   */\n  pop\n  jump\t// out\n    /* \"Orbis-balancer_old/contracts/rewards/StakingRewards.sol\":373:5586  contract StakingRewards is IStakingRewards, RewardsDistributionRecipient, ReentrancyGuard {\r... */\ntag_8:\n  dataSize(sub_0)\n  dup1\n  dataOffset(sub_0)\n  0x00\n  codecopy\n  0x00\n  return\nstop\n\nsub_0: assembly {\n        /* \"Orbis-balancer_old/contracts/rewards/StakingRewards.sol\":373:5586  contract StakingRewards is IStakingRewards, RewardsDistributionRecipient, ReentrancyGuard {\r... */\n      mstore(0x40, 0x80)\n      callvalue\n      dup1\n      iszero\n      tag_1\n      jumpi\n      0x00\n      dup1\n      revert\n    tag_1:\n      pop\n      jumpi(tag_2, lt(calldatasize, 0x04))\n      shr(0xe0, calldataload(0x00))\n      dup1\n      0x7b0a47ee\n      gt\n      tag_23\n      jumpi\n      dup1\n      0xd1af0c7d\n      gt\n      tag_24\n      jumpi\n      dup1\n      0xd1af0c7d\n      eq\n      tag_18\n      jumpi\n      dup1\n      0xd505493d\n      eq\n      tag_19\n      jumpi\n      dup1\n      0xdf136d65\n      eq\n      tag_20\n      jumpi\n      dup1\n      0xe9fad8ee\n      eq\n      tag_21\n      jumpi\n      dup1\n      0xebe2b12b\n      eq\n      tag_22\n      jumpi\n      jump(tag_2)\n    tag_24:\n      dup1\n      0x7b0a47ee\n      eq\n      tag_13\n      jumpi\n      dup1\n      0x80faa57d\n      eq\n      tag_14\n      jumpi\n      dup1\n      0x8b876347\n      eq\n      tag_15\n      jumpi\n      dup1\n      0xc8f33c91\n      eq\n      tag_16\n      jumpi\n      dup1\n      0xcd3daf9d\n      eq\n      tag_17\n      jumpi\n      jump(tag_2)\n    tag_23:\n      dup1\n      0x3d18b912\n      gt\n      tag_25\n      jumpi\n      dup1\n      0x3d18b912\n      eq\n      tag_8\n      jumpi\n      dup1\n      0x3fc6df6e\n      eq\n      tag_9\n      jumpi\n      dup1\n      0x70a08231\n      eq\n      tag_10\n      jumpi\n      dup1\n      0x72f702f3\n      eq\n      tag_11\n      jumpi\n      dup1\n      0x7acb7757\n      eq\n      tag_12\n      jumpi\n      jump(tag_2)\n    tag_25:\n      dup1\n      0x8cc262\n      eq\n      tag_3\n      jumpi\n      dup1\n      0x0700037d\n      eq\n      tag_4\n      jumpi\n      dup1\n      0x18160ddd\n      eq\n      tag_5\n      jumpi\n      dup1\n      0x246132f9\n      eq\n      tag_6\n      jumpi\n      dup1\n      0x2e1a7d4d\n      eq\n      tag_7\n      jumpi\n    tag_2:\n      0x00\n      dup1\n      revert\n        /* \"Orbis-balancer_old/contracts/rewards/StakingRewards.sol\":2037:2244  function earned(address account) public override view returns (uint256) {\r... */\n    tag_3:\n      tag_26\n      0x04\n      dup1\n      calldatasize\n      sub\n      dup2\n      add\n      swap1\n      tag_27\n      swap2\n      swap1\n      tag_28\n      jump\t// in\n    tag_27:\n      tag_29\n      jump\t// in\n    tag_26:\n      mload(0x40)\n      tag_30\n      swap2\n      swap1\n      tag_31\n      jump\t// in\n    tag_30:\n      mload(0x40)\n      dup1\n      swap2\n      sub\n      swap1\n      return\n        /* \"Orbis-balancer_old/contracts/rewards/StakingRewards.sol\":822:864  mapping(address => uint256) public rewards */\n    tag_4:\n      tag_32\n      0x04\n      dup1\n      calldatasize\n      sub\n      dup2\n      add\n      swap1\n      tag_33\n      swap2\n      swap1\n      tag_28\n      jump\t// in\n    tag_33:\n      tag_34\n      jump\t// in\n    tag_32:\n      mload(0x40)\n      tag_35\n      swap2\n      swap1\n      tag_31\n      jump\t// in\n    tag_35:\n      mload(0x40)\n      dup1\n      swap2\n      sub\n      swap1\n      return\n        /* \"Orbis-balancer_old/contracts/rewards/StakingRewards.sol\":1315:1417  function totalSupply() external override view returns (uint256) {\r... */\n    tag_5:\n      tag_36\n      tag_37\n      jump\t// in\n    tag_36:\n      mload(0x40)\n      tag_38\n      swap2\n      swap1\n      tag_31\n      jump\t// in\n    tag_38:\n      mload(0x40)\n      dup1\n      swap2\n      sub\n      swap1\n      return\n        /* \"Orbis-balancer_old/contracts/rewards/StakingRewards.sol\":4002:4884  function notifyRewardAmount(uint256 reward, uint256 rewardsDuration) external  onlyRewardsDistribution updateReward(address(0)) {\r... */\n    tag_6:\n      tag_39\n      0x04\n      dup1\n      calldatasize\n      sub\n      dup2\n      add\n      swap1\n      tag_40\n      swap2\n      swap1\n      tag_41\n      jump\t// in\n    tag_40:\n      tag_42\n      jump\t// in\n    tag_39:\n      stop\n        /* \"Orbis-balancer_old/contracts/rewards/StakingRewards.sol\":2708:3040  function withdraw(uint256 amount) public nonReentrant {\r... */\n    tag_7:\n      tag_43\n      0x04\n      dup1\n      calldatasize\n      sub\n      dup2\n      add\n      swap1\n      tag_44\n      swap2\n      swap1\n      tag_45\n      jump\t// in\n    tag_44:\n      tag_46\n      jump\t// in\n    tag_43:\n      stop\n        /* \"Orbis-balancer_old/contracts/rewards/StakingRewards.sol\":3254:3630  function getReward() public override nonReentrant updateReward(msg.sender) {\r... */\n    tag_8:\n      tag_47\n      tag_48\n      jump\t// in\n    tag_47:\n      stop\n        /* \"Orbis-balancer_old/contracts/rewards/RewardsDistributionRecipient.sol\":111:145  address public rewardsDistribution */\n    tag_9:\n      tag_49\n      tag_50\n      jump\t// in\n    tag_49:\n      mload(0x40)\n      tag_51\n      swap2\n      swap1\n      tag_52\n      jump\t// in\n    tag_51:\n      mload(0x40)\n      dup1\n      swap2\n      sub\n      swap1\n      return\n        /* \"Orbis-balancer_old/contracts/rewards/StakingRewards.sol\":1425:1546  function balanceOf(address account) external override view returns (uint256) {\r... */\n    tag_10:\n      tag_53\n      0x04\n      dup1\n      calldatasize\n      sub\n      dup2\n      add\n      swap1\n      tag_54\n      swap2\n      swap1\n      tag_28\n      jump\t// in\n    tag_54:\n      tag_55\n      jump\t// in\n    tag_53:\n      mload(0x40)\n      tag_56\n      swap2\n      swap1\n      tag_31\n      jump\t// in\n    tag_56:\n      mload(0x40)\n      dup1\n      swap2\n      sub\n      swap1\n      return\n        /* \"Orbis-balancer_old/contracts/rewards/StakingRewards.sol\":571:597  IERC20 public stakingToken */\n    tag_11:\n      tag_57\n      tag_58\n      jump\t// in\n    tag_57:\n      mload(0x40)\n      tag_59\n      swap2\n      swap1\n      tag_60\n      jump\t// in\n    tag_59:\n      mload(0x40)\n      dup1\n      swap2\n      sub\n      swap1\n      return\n        /* \"Orbis-balancer_old/contracts/rewards/StakingRewards.sol\":2256:2700  function stake(uint256 amount, address owner) external override nonReentrant updateReward(msg.sender) {\r... */\n    tag_12:\n      tag_61\n      0x04\n      dup1\n      calldatasize\n      sub\n      dup2\n      add\n      swap1\n      tag_62\n      swap2\n      swap1\n      tag_63\n      jump\t// in\n    tag_62:\n      tag_64\n      jump\t// in\n    tag_61:\n      stop\n        /* \"Orbis-balancer_old/contracts/rewards/StakingRewards.sol\":642:671  uint256 public rewardRate = 0 */\n    tag_13:\n      tag_65\n      tag_66\n      jump\t// in\n    tag_65:\n      mload(0x40)\n      tag_67\n      swap2\n      swap1\n      tag_31\n      jump\t// in\n    tag_67:\n      mload(0x40)\n      dup1\n      swap2\n      sub\n      swap1\n      return\n        /* \"Orbis-balancer_old/contracts/rewards/StakingRewards.sol\":1554:1694  function lastTimeRewardApplicable() public override view returns (uint256) {\r... */\n    tag_14:\n      tag_68\n      tag_69\n      jump\t// in\n    tag_68:\n      mload(0x40)\n      tag_70\n      swap2\n      swap1\n      tag_31\n      jump\t// in\n    tag_70:\n      mload(0x40)\n      dup1\n      swap2\n      sub\n      swap1\n      return\n        /* \"Orbis-balancer_old/contracts/rewards/StakingRewards.sol\":758:815  mapping(address => uint256) public userRewardPerTokenPaid */\n    tag_15:\n      tag_71\n      0x04\n      dup1\n      calldatasize\n      sub\n      dup2\n      add\n      swap1\n      tag_72\n      swap2\n      swap1\n      tag_28\n      jump\t// in\n    tag_72:\n      tag_73\n      jump\t// in\n    tag_71:\n      mload(0x40)\n      tag_74\n      swap2\n      swap1\n      tag_31\n      jump\t// in\n    tag_74:\n      mload(0x40)\n      dup1\n      swap2\n      sub\n      swap1\n      return\n        /* \"Orbis-balancer_old/contracts/rewards/StakingRewards.sol\":678:707  uint256 public lastUpdateTime */\n    tag_16:\n      tag_75\n      tag_76\n      jump\t// in\n    tag_75:\n      mload(0x40)\n      tag_77\n      swap2\n      swap1\n      tag_31\n      jump\t// in\n    tag_77:\n      mload(0x40)\n      dup1\n      swap2\n      sub\n      swap1\n      return\n        /* \"Orbis-balancer_old/contracts/rewards/StakingRewards.sol\":1702:2029  function rewardPerToken() public override view returns (uint256) {\r... */\n    tag_17:\n      tag_78\n      tag_79\n      jump\t// in\n    tag_78:\n      mload(0x40)\n      tag_80\n      swap2\n      swap1\n      tag_31\n      jump\t// in\n    tag_80:\n      mload(0x40)\n      dup1\n      swap2\n      sub\n      swap1\n      return\n        /* \"Orbis-balancer_old/contracts/rewards/StakingRewards.sol\":538:564  IERC20 public rewardsToken */\n    tag_18:\n      tag_81\n      tag_82\n      jump\t// in\n    tag_81:\n      mload(0x40)\n      tag_83\n      swap2\n      swap1\n      tag_60\n      jump\t// in\n    tag_83:\n      mload(0x40)\n      dup1\n      swap2\n      sub\n      swap1\n      return\n        /* \"Orbis-balancer_old/contracts/rewards/StakingRewards.sol\":3048:3246  function unboundingPeriod(uint unboundPeriod) public override nonReentrant updateReward(msg.sender) {\r... */\n    tag_19:\n      tag_84\n      0x04\n      dup1\n      calldatasize\n      sub\n      dup2\n      add\n      swap1\n      tag_85\n      swap2\n      swap1\n      tag_45\n      jump\t// in\n    tag_85:\n      tag_86\n      jump\t// in\n    tag_84:\n      stop\n        /* \"Orbis-balancer_old/contracts/rewards/StakingRewards.sol\":714:749  uint256 public rewardPerTokenStored */\n    tag_20:\n      tag_87\n      tag_88\n      jump\t// in\n    tag_87:\n      mload(0x40)\n      tag_89\n      swap2\n      swap1\n      tag_31\n      jump\t// in\n    tag_89:\n      mload(0x40)\n      dup1\n      swap2\n      sub\n      swap1\n      return\n        /* \"Orbis-balancer_old/contracts/rewards/StakingRewards.sol\":3638:3994  function exit() external override {\r... */\n    tag_21:\n      tag_90\n      tag_91\n      jump\t// in\n    tag_90:\n      stop\n        /* \"Orbis-balancer_old/contracts/rewards/StakingRewards.sol\":604:635  uint256 public periodFinish = 0 */\n    tag_22:\n      tag_92\n      tag_93\n      jump\t// in\n    tag_92:\n      mload(0x40)\n      tag_94\n      swap2\n      swap1\n      tag_31\n      jump\t// in\n    tag_94:\n      mload(0x40)\n      dup1\n      swap2\n      sub\n      swap1\n      return\n        /* \"Orbis-balancer_old/contracts/rewards/StakingRewards.sol\":2037:2244  function earned(address account) public override view returns (uint256) {\r... */\n    tag_29:\n        /* \"Orbis-balancer_old/contracts/rewards/StakingRewards.sol\":2100:2107  uint256 */\n      0x00\n        /* \"Orbis-balancer_old/contracts/rewards/StakingRewards.sol\":2127:2236  _balances[account].mul(rewardPerToken().sub(userRewardPerTokenPaid[account])).div(1e18).add(rewards[account]) */\n      tag_96\n        /* \"Orbis-balancer_old/contracts/rewards/StakingRewards.sol\":2219:2226  rewards */\n      0x09\n        /* \"Orbis-balancer_old/contracts/rewards/StakingRewards.sol\":2219:2235  rewards[account] */\n      0x00\n        /* \"Orbis-balancer_old/contracts/rewards/StakingRewards.sol\":2227:2234  account */\n      dup5\n        /* \"Orbis-balancer_old/contracts/rewards/StakingRewards.sol\":2219:2235  rewards[account] */\n      0xffffffffffffffffffffffffffffffffffffffff\n      and\n      0xffffffffffffffffffffffffffffffffffffffff\n      and\n      dup2\n      mstore\n      0x20\n      add\n      swap1\n      dup2\n      mstore\n      0x20\n      add\n      0x00\n      keccak256\n      sload\n        /* \"Orbis-balancer_old/contracts/rewards/StakingRewards.sol\":2127:2214  _balances[account].mul(rewardPerToken().sub(userRewardPerTokenPaid[account])).div(1e18) */\n      tag_97\n        /* \"Orbis-balancer_old/contracts/rewards/StakingRewards.sol\":2209:2213  1e18 */\n      0x0de0b6b3a7640000\n        /* \"Orbis-balancer_old/contracts/rewards/StakingRewards.sol\":2127:2204  _balances[account].mul(rewardPerToken().sub(userRewardPerTokenPaid[account])) */\n      tag_98\n        /* \"Orbis-balancer_old/contracts/rewards/StakingRewards.sol\":2150:2203  rewardPerToken().sub(userRewardPerTokenPaid[account]) */\n      tag_99\n        /* \"Orbis-balancer_old/contracts/rewards/StakingRewards.sol\":2171:2193  userRewardPerTokenPaid */\n      0x08\n        /* \"Orbis-balancer_old/contracts/rewards/StakingRewards.sol\":2171:2202  userRewardPerTokenPaid[account] */\n      0x00\n        /* \"Orbis-balancer_old/contracts/rewards/StakingRewards.sol\":2194:2201  account */\n      dup10\n        /* \"Orbis-balancer_old/contracts/rewards/StakingRewards.sol\":2171:2202  userRewardPerTokenPaid[account] */\n      0xffffffffffffffffffffffffffffffffffffffff\n      and\n      0xffffffffffffffffffffffffffffffffffffffff\n      and\n      dup2\n      mstore\n      0x20\n      add\n      swap1\n      dup2\n      mstore\n      0x20\n      add\n      0x00\n      keccak256\n      sload\n        /* \"Orbis-balancer_old/contracts/rewards/StakingRewards.sol\":2150:2166  rewardPerToken() */\n      tag_100\n        /* \"Orbis-balancer_old/contracts/rewards/StakingRewards.sol\":2150:2164  rewardPerToken */\n      tag_79\n        /* \"Orbis-balancer_old/contracts/rewards/StakingRewards.sol\":2150:2166  rewardPerToken() */\n      jump\t// in\n    tag_100:\n        /* \"Orbis-balancer_old/contracts/rewards/StakingRewards.sol\":2150:2170  rewardPerToken().sub */\n      tag_101\n      swap1\n        /* \"Orbis-balancer_old/contracts/rewards/StakingRewards.sol\":2150:2203  rewardPerToken().sub(userRewardPerTokenPaid[account]) */\n      swap2\n      swap1\n      0xffffffff\n      and\n      jump\t// in\n    tag_99:\n        /* \"Orbis-balancer_old/contracts/rewards/StakingRewards.sol\":2127:2136  _balances */\n      0x0b\n        /* \"Orbis-balancer_old/contracts/rewards/StakingRewards.sol\":2127:2145  _balances[account] */\n      0x00\n        /* \"Orbis-balancer_old/contracts/rewards/StakingRewards.sol\":2137:2144  account */\n      dup10\n        /* \"Orbis-balancer_old/contracts/rewards/StakingRewards.sol\":2127:2145  _balances[account] */\n      0xffffffffffffffffffffffffffffffffffffffff\n      and\n      0xffffffffffffffffffffffffffffffffffffffff\n      and\n      dup2\n      mstore\n      0x20\n      add\n      swap1\n      dup2\n      mstore\n      0x20\n      add\n      0x00\n      keccak256\n      sload\n        /* \"Orbis-balancer_old/contracts/rewards/StakingRewards.sol\":2127:2149  _balances[account].mul */\n      tag_102\n      swap1\n        /* \"Orbis-balancer_old/contracts/rewards/StakingRewards.sol\":2127:2204  _balances[account].mul(rewardPerToken().sub(userRewardPerTokenPaid[account])) */\n      swap2\n      swap1\n      0xffffffff\n      and\n      jump\t// in\n    tag_98:\n        /* \"Orbis-balancer_old/contracts/rewards/StakingRewards.sol\":2127:2208  _balances[account].mul(rewardPerToken().sub(userRewardPerTokenPaid[account])).div */\n      tag_103\n      swap1\n        /* \"Orbis-balancer_old/contracts/rewards/StakingRewards.sol\":2127:2214  _balances[account].mul(rewardPerToken().sub(userRewardPerTokenPaid[account])).div(1e18) */\n      swap2\n      swap1\n      0xffffffff\n      and\n      jump\t// in\n    tag_97:\n        /* \"Orbis-balancer_old/contracts/rewards/StakingRewards.sol\":2127:2218  _balances[account].mul(rewardPerToken().sub(userRewardPerTokenPaid[account])).div(1e18).add */\n      tag_104\n      swap1\n        /* \"Orbis-balancer_old/contracts/rewards/StakingRewards.sol\":2127:2236  _balances[account].mul(rewardPerToken().sub(userRewardPerTokenPaid[account])).div(1e18).add(rewards[account]) */\n      swap2\n      swap1\n      0xffffffff\n      and\n      jump\t// in\n    tag_96:\n        /* \"Orbis-balancer_old/contracts/rewards/StakingRewards.sol\":2120:2236  return _balances[account].mul(rewardPerToken().sub(userRewardPerTokenPaid[account])).div(1e18).add(rewards[account]) */\n      swap1\n      pop\n        /* \"Orbis-balancer_old/contracts/rewards/StakingRewards.sol\":2037:2244  function earned(address account) public override view returns (uint256) {\r... */\n      swap2\n      swap1\n      pop\n      jump\t// out\n        /* \"Orbis-balancer_old/contracts/rewards/StakingRewards.sol\":822:864  mapping(address => uint256) public rewards */\n    tag_34:\n      mstore(0x20, 0x09)\n      dup1\n      0x00\n      mstore\n      keccak256(0x00, 0x40)\n      0x00\n      swap2\n      pop\n      swap1\n      pop\n      sload\n      dup2\n      jump\t// out\n        /* \"Orbis-balancer_old/contracts/rewards/StakingRewards.sol\":1315:1417  function totalSupply() external override view returns (uint256) {\r... */\n    tag_37:\n        /* \"Orbis-balancer_old/contracts/rewards/StakingRewards.sol\":1370:1377  uint256 */\n      0x00\n        /* \"Orbis-balancer_old/contracts/rewards/StakingRewards.sol\":1397:1409  _totalSupply */\n      sload(0x0a)\n        /* \"Orbis-balancer_old/contracts/rewards/StakingRewards.sol\":1390:1409  return _totalSupply */\n      swap1\n      pop\n        /* \"Orbis-balancer_old/contracts/rewards/StakingRewards.sol\":1315:1417  function totalSupply() external override view returns (uint256) {\r... */\n      swap1\n      jump\t// out\n        /* \"Orbis-balancer_old/contracts/rewards/StakingRewards.sol\":4002:4884  function notifyRewardAmount(uint256 reward, uint256 rewardsDuration) external  onlyRewardsDistribution updateReward(address(0)) {\r... */\n    tag_42:\n        /* \"Orbis-balancer_old/contracts/rewards/RewardsDistributionRecipient.sol\":329:348  rewardsDistribution */\n      0x00\n      dup1\n      sload\n      swap1\n      0x0100\n      exp\n      swap1\n      div\n      0xffffffffffffffffffffffffffffffffffffffff\n      and\n        /* \"Orbis-balancer_old/contracts/rewards/RewardsDistributionRecipient.sol\":315:348  msg.sender == rewardsDistribution */\n      0xffffffffffffffffffffffffffffffffffffffff\n      and\n        /* \"Orbis-balancer_old/contracts/rewards/RewardsDistributionRecipient.sol\":315:325  msg.sender */\n      caller\n        /* \"Orbis-balancer_old/contracts/rewards/RewardsDistributionRecipient.sol\":315:348  msg.sender == rewardsDistribution */\n      0xffffffffffffffffffffffffffffffffffffffff\n      and\n      eq\n        /* \"Orbis-balancer_old/contracts/rewards/RewardsDistributionRecipient.sol\":307:395  require(msg.sender == rewardsDistribution, \"Caller is not RewardsDistribution contract\") */\n      tag_107\n      jumpi\n      mload(0x40)\n      0x08c379a000000000000000000000000000000000000000000000000000000000\n      dup2\n      mstore\n      0x04\n      add\n      tag_108\n      swap1\n      tag_109\n      jump\t// in\n    tag_108:\n      mload(0x40)\n      dup1\n      swap2\n      sub\n      swap1\n      revert\n    tag_107:\n        /* \"Orbis-balancer_old/contracts/rewards/StakingRewards.sol\":4126:4127  0 */\n      0x00\n        /* \"Orbis-balancer_old/contracts/rewards/StakingRewards.sol\":4947:4957  unBounding */\n      0x0c\n      0x00\n      swap1\n      sload\n      swap1\n      0x0100\n      exp\n      swap1\n      div\n      0xff\n      and\n        /* \"Orbis-balancer_old/contracts/rewards/StakingRewards.sol\":4942:5266  if (!unBounding) {\r... */\n      tag_111\n      jumpi\n        /* \"Orbis-balancer_old/contracts/rewards/StakingRewards.sol\":4997:5013  rewardPerToken() */\n      tag_112\n        /* \"Orbis-balancer_old/contracts/rewards/StakingRewards.sol\":4997:5011  rewardPerToken */\n      tag_79\n        /* \"Orbis-balancer_old/contracts/rewards/StakingRewards.sol\":4997:5013  rewardPerToken() */\n      jump\t// in\n    tag_112:\n        /* \"Orbis-balancer_old/contracts/rewards/StakingRewards.sol\":4974:4994  rewardPerTokenStored */\n      0x07\n        /* \"Orbis-balancer_old/contracts/rewards/StakingRewards.sol\":4974:5013  rewardPerTokenStored = rewardPerToken() */\n      dup2\n      swap1\n      sstore\n      pop\n        /* \"Orbis-balancer_old/contracts/rewards/StakingRewards.sol\":5045:5071  lastTimeRewardApplicable() */\n      tag_113\n        /* \"Orbis-balancer_old/contracts/rewards/StakingRewards.sol\":5045:5069  lastTimeRewardApplicable */\n      tag_69\n        /* \"Orbis-balancer_old/contracts/rewards/StakingRewards.sol\":5045:5071  lastTimeRewardApplicable() */\n      jump\t// in\n    tag_113:\n        /* \"Orbis-balancer_old/contracts/rewards/StakingRewards.sol\":5028:5042  lastUpdateTime */\n      0x06\n        /* \"Orbis-balancer_old/contracts/rewards/StakingRewards.sol\":5028:5071  lastUpdateTime = lastTimeRewardApplicable() */\n      dup2\n      swap1\n      sstore\n      pop\n        /* \"Orbis-balancer_old/contracts/rewards/StakingRewards.sol\":5109:5110  0 */\n      0x00\n        /* \"Orbis-balancer_old/contracts/rewards/StakingRewards.sol\":5090:5111  account != address(0) */\n      0xffffffffffffffffffffffffffffffffffffffff\n      and\n        /* \"Orbis-balancer_old/contracts/rewards/StakingRewards.sol\":5090:5097  account */\n      dup2\n        /* \"Orbis-balancer_old/contracts/rewards/StakingRewards.sol\":5090:5111  account != address(0) */\n      0xffffffffffffffffffffffffffffffffffffffff\n      and\n      eq\n        /* \"Orbis-balancer_old/contracts/rewards/StakingRewards.sol\":5086:5255  if (account != address(0)) {\r... */\n      tag_114\n      jumpi\n        /* \"Orbis-balancer_old/contracts/rewards/StakingRewards.sol\":5151:5166  earned(account) */\n      tag_115\n        /* \"Orbis-balancer_old/contracts/rewards/StakingRewards.sol\":5158:5165  account */\n      dup2\n        /* \"Orbis-balancer_old/contracts/rewards/StakingRewards.sol\":5151:5157  earned */\n      tag_29\n        /* \"Orbis-balancer_old/contracts/rewards/StakingRewards.sol\":5151:5166  earned(account) */\n      jump\t// in\n    tag_115:\n        /* \"Orbis-balancer_old/contracts/rewards/StakingRewards.sol\":5132:5139  rewards */\n      0x09\n        /* \"Orbis-balancer_old/contracts/rewards/StakingRewards.sol\":5132:5148  rewards[account] */\n      0x00\n        /* \"Orbis-balancer_old/contracts/rewards/StakingRewards.sol\":5140:5147  account */\n      dup4\n        /* \"Orbis-balancer_old/contracts/rewards/StakingRewards.sol\":5132:5148  rewards[account] */\n      0xffffffffffffffffffffffffffffffffffffffff\n      and\n      0xffffffffffffffffffffffffffffffffffffffff\n      and\n      dup2\n      mstore\n      0x20\n      add\n      swap1\n      dup2\n      mstore\n      0x20\n      add\n      0x00\n      keccak256\n        /* \"Orbis-balancer_old/contracts/rewards/StakingRewards.sol\":5132:5166  rewards[account] = earned(account) */\n      dup2\n      swap1\n      sstore\n      pop\n        /* \"Orbis-balancer_old/contracts/rewards/StakingRewards.sol\":5219:5239  rewardPerTokenStored */\n      sload(0x07)\n        /* \"Orbis-balancer_old/contracts/rewards/StakingRewards.sol\":5185:5207  userRewardPerTokenPaid */\n      0x08\n        /* \"Orbis-balancer_old/contracts/rewards/StakingRewards.sol\":5185:5216  userRewardPerTokenPaid[account] */\n      0x00\n        /* \"Orbis-balancer_old/contracts/rewards/StakingRewards.sol\":5208:5215  account */\n      dup4\n        /* \"Orbis-balancer_old/contracts/rewards/StakingRewards.sol\":5185:5216  userRewardPerTokenPaid[account] */\n      0xffffffffffffffffffffffffffffffffffffffff\n      and\n      0xffffffffffffffffffffffffffffffffffffffff\n      and\n      dup2\n      mstore\n      0x20\n      add\n      swap1\n      dup2\n      mstore\n      0x20\n      add\n      0x00\n      keccak256\n        /* \"Orbis-balancer_old/contracts/rewards/StakingRewards.sol\":5185:5239  userRewardPerTokenPaid[account] = rewardPerTokenStored */\n      dup2\n      swap1\n      sstore\n      pop\n        /* \"Orbis-balancer_old/contracts/rewards/StakingRewards.sol\":5086:5255  if (account != address(0)) {\r... */\n    tag_114:\n        /* \"Orbis-balancer_old/contracts/rewards/StakingRewards.sol\":4942:5266  if (!unBounding) {\r... */\n    tag_111:\n        /* \"Orbis-balancer_old/contracts/rewards/StakingRewards.sol\":4189:4201  periodFinish */\n      sload(0x04)\n        /* \"Orbis-balancer_old/contracts/rewards/StakingRewards.sol\":4149:4185  block.timestamp.add(rewardsDuration) */\n      tag_117\n        /* \"Orbis-balancer_old/contracts/rewards/StakingRewards.sol\":4169:4184  rewardsDuration */\n      dup4\n        /* \"Orbis-balancer_old/contracts/rewards/StakingRewards.sol\":4149:4164  block.timestamp */\n      timestamp\n        /* \"Orbis-balancer_old/contracts/rewards/StakingRewards.sol\":4149:4168  block.timestamp.add */\n      tag_104\n      swap1\n        /* \"Orbis-balancer_old/contracts/rewards/StakingRewards.sol\":4149:4185  block.timestamp.add(rewardsDuration) */\n      swap2\n      swap1\n      0xffffffff\n      and\n      jump\t// in\n    tag_117:\n        /* \"Orbis-balancer_old/contracts/rewards/StakingRewards.sol\":4149:4201  block.timestamp.add(rewardsDuration) >= periodFinish */\n      lt\n      iszero\n        /* \"Orbis-balancer_old/contracts/rewards/StakingRewards.sol\":4141:4235  require(block.timestamp.add(rewardsDuration) >= periodFinish, \"Cannot reduce existing period\") */\n      tag_118\n      jumpi\n      mload(0x40)\n      0x08c379a000000000000000000000000000000000000000000000000000000000\n      dup2\n      mstore\n      0x04\n      add\n      tag_119\n      swap1\n      tag_120\n      jump\t// in\n    tag_119:\n      mload(0x40)\n      dup1\n      swap2\n      sub\n      swap1\n      revert\n    tag_118:\n        /* \"Orbis-balancer_old/contracts/rewards/StakingRewards.sol\":4271:4283  periodFinish */\n      sload(0x04)\n        /* \"Orbis-balancer_old/contracts/rewards/StakingRewards.sol\":4252:4267  block.timestamp */\n      timestamp\n        /* \"Orbis-balancer_old/contracts/rewards/StakingRewards.sol\":4252:4283  block.timestamp >= periodFinish */\n      lt\n        /* \"Orbis-balancer_old/contracts/rewards/StakingRewards.sol\":4248:4566  if (block.timestamp >= periodFinish) {\r... */\n      tag_121\n      jumpi\n        /* \"Orbis-balancer_old/contracts/rewards/StakingRewards.sol\":4313:4340  reward.div(rewardsDuration) */\n      tag_122\n        /* \"Orbis-balancer_old/contracts/rewards/StakingRewards.sol\":4324:4339  rewardsDuration */\n      dup3\n        /* \"Orbis-balancer_old/contracts/rewards/StakingRewards.sol\":4313:4319  reward */\n      dup5\n        /* \"Orbis-balancer_old/contracts/rewards/StakingRewards.sol\":4313:4323  reward.div */\n      tag_103\n      swap1\n        /* \"Orbis-balancer_old/contracts/rewards/StakingRewards.sol\":4313:4340  reward.div(rewardsDuration) */\n      swap2\n      swap1\n      0xffffffff\n      and\n      jump\t// in\n    tag_122:\n        /* \"Orbis-balancer_old/contracts/rewards/StakingRewards.sol\":4300:4310  rewardRate */\n      0x05\n        /* \"Orbis-balancer_old/contracts/rewards/StakingRewards.sol\":4300:4340  rewardRate = reward.div(rewardsDuration) */\n      dup2\n      swap1\n      sstore\n      pop\n        /* \"Orbis-balancer_old/contracts/rewards/StakingRewards.sol\":4248:4566  if (block.timestamp >= periodFinish) {\r... */\n      jump(tag_123)\n    tag_121:\n        /* \"Orbis-balancer_old/contracts/rewards/StakingRewards.sol\":4373:4390  uint256 remaining */\n      0x00\n        /* \"Orbis-balancer_old/contracts/rewards/StakingRewards.sol\":4393:4426  periodFinish.sub(block.timestamp) */\n      tag_124\n        /* \"Orbis-balancer_old/contracts/rewards/StakingRewards.sol\":4410:4425  block.timestamp */\n      timestamp\n        /* \"Orbis-balancer_old/contracts/rewards/StakingRewards.sol\":4393:4405  periodFinish */\n      sload(0x04)\n        /* \"Orbis-balancer_old/contracts/rewards/StakingRewards.sol\":4393:4409  periodFinish.sub */\n      tag_101\n      swap1\n        /* \"Orbis-balancer_old/contracts/rewards/StakingRewards.sol\":4393:4426  periodFinish.sub(block.timestamp) */\n      swap2\n      swap1\n      0xffffffff\n      and\n      jump\t// in\n    tag_124:\n        /* \"Orbis-balancer_old/contracts/rewards/StakingRewards.sol\":4373:4426  uint256 remaining = periodFinish.sub(block.timestamp) */\n      swap1\n      pop\n        /* \"Orbis-balancer_old/contracts/rewards/StakingRewards.sol\":4441:4457  uint256 leftover */\n      0x00\n        /* \"Orbis-balancer_old/contracts/rewards/StakingRewards.sol\":4460:4485  remaining.mul(rewardRate) */\n      tag_125\n        /* \"Orbis-balancer_old/contracts/rewards/StakingRewards.sol\":4474:4484  rewardRate */\n      sload(0x05)\n        /* \"Orbis-balancer_old/contracts/rewards/StakingRewards.sol\":4460:4469  remaining */\n      dup4\n        /* \"Orbis-balancer_old/contracts/rewards/StakingRewards.sol\":4460:4473  remaining.mul */\n      tag_102\n      swap1\n        /* \"Orbis-balancer_old/contracts/rewards/StakingRewards.sol\":4460:4485  remaining.mul(rewardRate) */\n      swap2\n      swap1\n      0xffffffff\n      and\n      jump\t// in\n    tag_125:\n        /* \"Orbis-balancer_old/contracts/rewards/StakingRewards.sol\":4441:4485  uint256 leftover = remaining.mul(rewardRate) */\n      swap1\n      pop\n        /* \"Orbis-balancer_old/contracts/rewards/StakingRewards.sol\":4513:4554  reward.add(leftover).div(rewardsDuration) */\n      tag_126\n        /* \"Orbis-balancer_old/contracts/rewards/StakingRewards.sol\":4538:4553  rewardsDuration */\n      dup5\n        /* \"Orbis-balancer_old/contracts/rewards/StakingRewards.sol\":4513:4533  reward.add(leftover) */\n      tag_127\n        /* \"Orbis-balancer_old/contracts/rewards/StakingRewards.sol\":4524:4532  leftover */\n      dup4\n        /* \"Orbis-balancer_old/contracts/rewards/StakingRewards.sol\":4513:4519  reward */\n      dup9\n        /* \"Orbis-balancer_old/contracts/rewards/StakingRewards.sol\":4513:4523  reward.add */\n      tag_104\n      swap1\n        /* \"Orbis-balancer_old/contracts/rewards/StakingRewards.sol\":4513:4533  reward.add(leftover) */\n      swap2\n      swap1\n      0xffffffff\n      and\n      jump\t// in\n    tag_127:\n        /* \"Orbis-balancer_old/contracts/rewards/StakingRewards.sol\":4513:4537  reward.add(leftover).div */\n      tag_103\n      swap1\n        /* \"Orbis-balancer_old/contracts/rewards/StakingRewards.sol\":4513:4554  reward.add(leftover).div(rewardsDuration) */\n      swap2\n      swap1\n      0xffffffff\n      and\n      jump\t// in\n    tag_126:\n        /* \"Orbis-balancer_old/contracts/rewards/StakingRewards.sol\":4500:4510  rewardRate */\n      0x05\n        /* \"Orbis-balancer_old/contracts/rewards/StakingRewards.sol\":4500:4554  rewardRate = reward.add(leftover).div(rewardsDuration) */\n      dup2\n      swap1\n      sstore\n      pop\n        /* \"Orbis-balancer_old/contracts/rewards/StakingRewards.sol\":4358:4566  {\r... */\n      pop\n      pop\n        /* \"Orbis-balancer_old/contracts/rewards/StakingRewards.sol\":4248:4566  if (block.timestamp >= periodFinish) {\r... */\n    tag_123:\n        /* \"Orbis-balancer_old/contracts/rewards/StakingRewards.sol\":4578:4590  uint balance */\n      0x00\n        /* \"Orbis-balancer_old/contracts/rewards/StakingRewards.sol\":4593:4605  rewardsToken */\n      0x02\n      0x00\n      swap1\n      sload\n      swap1\n      0x0100\n      exp\n      swap1\n      div\n      0xffffffffffffffffffffffffffffffffffffffff\n      and\n        /* \"Orbis-balancer_old/contracts/rewards/StakingRewards.sol\":4593:4615  rewardsToken.balanceOf */\n      0xffffffffffffffffffffffffffffffffffffffff\n      and\n      0x70a08231\n        /* \"Orbis-balancer_old/contracts/rewards/StakingRewards.sol\":4624:4628  this */\n      address\n        /* \"Orbis-balancer_old/contracts/rewards/StakingRewards.sol\":4593:4630  rewardsToken.balanceOf(address(this)) */\n      mload(0x40)\n      dup3\n      0xffffffff\n      and\n      0xe0\n      shl\n      dup2\n      mstore\n      0x04\n      add\n      tag_128\n      swap2\n      swap1\n      tag_52\n      jump\t// in\n    tag_128:\n      0x20\n      mload(0x40)\n      dup1\n      dup4\n      sub\n      dup2\n      dup7\n      dup1\n      extcodesize\n      iszero\n      dup1\n      iszero\n      tag_129\n      jumpi\n      0x00\n      dup1\n      revert\n    tag_129:\n      pop\n      gas\n      staticcall\n      iszero\n      dup1\n      iszero\n      tag_131\n      jumpi\n      returndatasize\n      0x00\n      dup1\n      returndatacopy\n      revert(0x00, returndatasize)\n    tag_131:\n      pop\n      pop\n      pop\n      pop\n      mload(0x40)\n      returndatasize\n      not(0x1f)\n      0x1f\n      dup3\n      add\n      and\n      dup3\n      add\n      dup1\n      0x40\n      mstore\n      pop\n      dup2\n      add\n      swap1\n      tag_132\n      swap2\n      swap1\n      tag_133\n      jump\t// in\n    tag_132:\n        /* \"Orbis-balancer_old/contracts/rewards/StakingRewards.sol\":4578:4630  uint balance = rewardsToken.balanceOf(address(this)) */\n      swap1\n      pop\n        /* \"Orbis-balancer_old/contracts/rewards/StakingRewards.sol\":4663:4691  balance.div(rewardsDuration) */\n      tag_134\n        /* \"Orbis-balancer_old/contracts/rewards/StakingRewards.sol\":4675:4690  rewardsDuration */\n      dup4\n        /* \"Orbis-balancer_old/contracts/rewards/StakingRewards.sol\":4663:4670  balance */\n      dup3\n        /* \"Orbis-balancer_old/contracts/rewards/StakingRewards.sol\":4663:4674  balance.div */\n      tag_103\n      swap1\n        /* \"Orbis-balancer_old/contracts/rewards/StakingRewards.sol\":4663:4691  balance.div(rewardsDuration) */\n      swap2\n      swap1\n      0xffffffff\n      and\n      jump\t// in\n    tag_134:\n        /* \"Orbis-balancer_old/contracts/rewards/StakingRewards.sol\":4649:4659  rewardRate */\n      sload(0x05)\n        /* \"Orbis-balancer_old/contracts/rewards/StakingRewards.sol\":4649:4691  rewardRate <= balance.div(rewardsDuration) */\n      gt\n      iszero\n        /* \"Orbis-balancer_old/contracts/rewards/StakingRewards.sol\":4641:4720  require(rewardRate <= balance.div(rewardsDuration), \"Provided reward too high\") */\n      tag_135\n      jumpi\n      mload(0x40)\n      0x08c379a000000000000000000000000000000000000000000000000000000000\n      dup2\n      mstore\n      0x04\n      add\n      tag_136\n      swap1\n      tag_137\n      jump\t// in\n    tag_136:\n      mload(0x40)\n      dup1\n      swap2\n      sub\n      swap1\n      revert\n    tag_135:\n        /* \"Orbis-balancer_old/contracts/rewards/StakingRewards.sol\":4750:4765  block.timestamp */\n      timestamp\n        /* \"Orbis-balancer_old/contracts/rewards/StakingRewards.sol\":4733:4747  lastUpdateTime */\n      0x06\n        /* \"Orbis-balancer_old/contracts/rewards/StakingRewards.sol\":4733:4765  lastUpdateTime = block.timestamp */\n      dup2\n      swap1\n      sstore\n      pop\n        /* \"Orbis-balancer_old/contracts/rewards/StakingRewards.sol\":4791:4827  block.timestamp.add(rewardsDuration) */\n      tag_138\n        /* \"Orbis-balancer_old/contracts/rewards/StakingRewards.sol\":4811:4826  rewardsDuration */\n      dup4\n        /* \"Orbis-balancer_old/contracts/rewards/StakingRewards.sol\":4791:4806  block.timestamp */\n      timestamp\n        /* \"Orbis-balancer_old/contracts/rewards/StakingRewards.sol\":4791:4810  block.timestamp.add */\n      tag_104\n      swap1\n        /* \"Orbis-balancer_old/contracts/rewards/StakingRewards.sol\":4791:4827  block.timestamp.add(rewardsDuration) */\n      swap2\n      swap1\n      0xffffffff\n      and\n      jump\t// in\n    tag_138:\n        /* \"Orbis-balancer_old/contracts/rewards/StakingRewards.sol\":4776:4788  periodFinish */\n      0x04\n        /* \"Orbis-balancer_old/contracts/rewards/StakingRewards.sol\":4776:4827  periodFinish = block.timestamp.add(rewardsDuration) */\n      dup2\n      swap1\n      sstore\n      pop\n        /* \"Orbis-balancer_old/contracts/rewards/StakingRewards.sol\":4843:4876  RewardAdded(reward, periodFinish) */\n      0x6c07ee05dcf262f13abf9d87b846ee789d2f90fe991d495acd7d7fc109ee1f55\n        /* \"Orbis-balancer_old/contracts/rewards/StakingRewards.sol\":4855:4861  reward */\n      dup5\n        /* \"Orbis-balancer_old/contracts/rewards/StakingRewards.sol\":4863:4875  periodFinish */\n      sload(0x04)\n        /* \"Orbis-balancer_old/contracts/rewards/StakingRewards.sol\":4843:4876  RewardAdded(reward, periodFinish) */\n      mload(0x40)\n      tag_139\n      swap3\n      swap2\n      swap1\n      tag_140\n      jump\t// in\n    tag_139:\n      mload(0x40)\n      dup1\n      swap2\n      sub\n      swap1\n      log1\n        /* \"Orbis-balancer_old/contracts/rewards/StakingRewards.sol\":4130:4884  {\r... */\n      pop\n        /* \"Orbis-balancer_old/contracts/rewards/RewardsDistributionRecipient.sol\":406:407  _ */\n      pop\n        /* \"Orbis-balancer_old/contracts/rewards/StakingRewards.sol\":4002:4884  function notifyRewardAmount(uint256 reward, uint256 rewardsDuration) external  onlyRewardsDistribution updateReward(address(0)) {\r... */\n      pop\n      pop\n      jump\t// out\n        /* \"Orbis-balancer_old/contracts/rewards/StakingRewards.sol\":2708:3040  function withdraw(uint256 amount) public nonReentrant {\r... */\n    tag_46:\n        /* \"Orbis-balancer_old/contracts/rewards/ReentrancyGuard.sol\":846:847  1 */\n      0x01\n        /* \"Orbis-balancer_old/contracts/rewards/ReentrancyGuard.sol\":829:842  _guardCounter */\n      dup1\n      0x00\n        /* \"Orbis-balancer_old/contracts/rewards/ReentrancyGuard.sol\":829:847  _guardCounter += 1 */\n      dup3\n      dup3\n      sload\n      tag_142\n      swap2\n      swap1\n      tag_143\n      jump\t// in\n    tag_142:\n      swap3\n      pop\n      pop\n      dup2\n      swap1\n      sstore\n      pop\n        /* \"Orbis-balancer_old/contracts/rewards/ReentrancyGuard.sol\":858:878  uint256 localCounter */\n      0x00\n        /* \"Orbis-balancer_old/contracts/rewards/ReentrancyGuard.sol\":881:894  _guardCounter */\n      sload(0x01)\n        /* \"Orbis-balancer_old/contracts/rewards/ReentrancyGuard.sol\":858:894  uint256 localCounter = _guardCounter */\n      swap1\n      pop\n        /* \"Orbis-balancer_old/contracts/rewards/StakingRewards.sol\":2790:2791  0 */\n      0x00\n        /* \"Orbis-balancer_old/contracts/rewards/StakingRewards.sol\":2781:2787  amount */\n      dup3\n        /* \"Orbis-balancer_old/contracts/rewards/StakingRewards.sol\":2781:2791  amount > 0 */\n      gt\n        /* \"Orbis-balancer_old/contracts/rewards/StakingRewards.sol\":2773:2813  require(amount > 0, \"Cannot withdraw 0\") */\n      tag_145\n      jumpi\n      mload(0x40)\n      0x08c379a000000000000000000000000000000000000000000000000000000000\n      dup2\n      mstore\n      0x04\n      add\n      tag_146\n      swap1\n      tag_147\n      jump\t// in\n    tag_146:\n      mload(0x40)\n      dup1\n      swap2\n      sub\n      swap1\n      revert\n    tag_145:\n        /* \"Orbis-balancer_old/contracts/rewards/StakingRewards.sol\":2839:2863  _totalSupply.sub(amount) */\n      tag_148\n        /* \"Orbis-balancer_old/contracts/rewards/StakingRewards.sol\":2856:2862  amount */\n      dup3\n        /* \"Orbis-balancer_old/contracts/rewards/StakingRewards.sol\":2839:2851  _totalSupply */\n      sload(0x0a)\n        /* \"Orbis-balancer_old/contracts/rewards/StakingRewards.sol\":2839:2855  _totalSupply.sub */\n      tag_101\n      swap1\n        /* \"Orbis-balancer_old/contracts/rewards/StakingRewards.sol\":2839:2863  _totalSupply.sub(amount) */\n      swap2\n      swap1\n      0xffffffff\n      and\n      jump\t// in\n    tag_148:\n        /* \"Orbis-balancer_old/contracts/rewards/StakingRewards.sol\":2824:2836  _totalSupply */\n      0x0a\n        /* \"Orbis-balancer_old/contracts/rewards/StakingRewards.sol\":2824:2863  _totalSupply = _totalSupply.sub(amount) */\n      dup2\n      swap1\n      sstore\n      pop\n        /* \"Orbis-balancer_old/contracts/rewards/StakingRewards.sol\":2898:2931  _balances[msg.sender].sub(amount) */\n      tag_149\n        /* \"Orbis-balancer_old/contracts/rewards/StakingRewards.sol\":2924:2930  amount */\n      dup3\n        /* \"Orbis-balancer_old/contracts/rewards/StakingRewards.sol\":2898:2907  _balances */\n      0x0b\n        /* \"Orbis-balancer_old/contracts/rewards/StakingRewards.sol\":2898:2919  _balances[msg.sender] */\n      0x00\n        /* \"Orbis-balancer_old/contracts/rewards/StakingRewards.sol\":2908:2918  msg.sender */\n      caller\n        /* \"Orbis-balancer_old/contracts/rewards/StakingRewards.sol\":2898:2919  _balances[msg.sender] */\n      0xffffffffffffffffffffffffffffffffffffffff\n      and\n      0xffffffffffffffffffffffffffffffffffffffff\n      and\n      dup2\n      mstore\n      0x20\n      add\n      swap1\n      dup2\n      mstore\n      0x20\n      add\n      0x00\n      keccak256\n      sload\n        /* \"Orbis-balancer_old/contracts/rewards/StakingRewards.sol\":2898:2923  _balances[msg.sender].sub */\n      tag_101\n      swap1\n        /* \"Orbis-balancer_old/contracts/rewards/StakingRewards.sol\":2898:2931  _balances[msg.sender].sub(amount) */\n      swap2\n      swap1\n      0xffffffff\n      and\n      jump\t// in\n    tag_149:\n        /* \"Orbis-balancer_old/contracts/rewards/StakingRewards.sol\":2874:2883  _balances */\n      0x0b\n        /* \"Orbis-balancer_old/contracts/rewards/StakingRewards.sol\":2874:2895  _balances[msg.sender] */\n      0x00\n        /* \"Orbis-balancer_old/contracts/rewards/StakingRewards.sol\":2884:2894  msg.sender */\n      caller\n        /* \"Orbis-balancer_old/contracts/rewards/StakingRewards.sol\":2874:2895  _balances[msg.sender] */\n      0xffffffffffffffffffffffffffffffffffffffff\n      and\n      0xffffffffffffffffffffffffffffffffffffffff\n      and\n      dup2\n      mstore\n      0x20\n      add\n      swap1\n      dup2\n      mstore\n      0x20\n      add\n      0x00\n      keccak256\n        /* \"Orbis-balancer_old/contracts/rewards/StakingRewards.sol\":2874:2931  _balances[msg.sender] = _balances[msg.sender].sub(amount) */\n      dup2\n      swap1\n      sstore\n      pop\n        /* \"Orbis-balancer_old/contracts/rewards/StakingRewards.sol\":2942:2987  stakingToken.safeTransfer(msg.sender, amount) */\n      tag_150\n        /* \"Orbis-balancer_old/contracts/rewards/StakingRewards.sol\":2968:2978  msg.sender */\n      caller\n        /* \"Orbis-balancer_old/contracts/rewards/StakingRewards.sol\":2980:2986  amount */\n      dup4\n        /* \"Orbis-balancer_old/contracts/rewards/StakingRewards.sol\":2942:2954  stakingToken */\n      0x03\n      0x00\n      swap1\n      sload\n      swap1\n      0x0100\n      exp\n      swap1\n      div\n      0xffffffffffffffffffffffffffffffffffffffff\n      and\n        /* \"Orbis-balancer_old/contracts/rewards/StakingRewards.sol\":2942:2967  stakingToken.safeTransfer */\n      0xffffffffffffffffffffffffffffffffffffffff\n      and\n      tag_151\n      swap1\n        /* \"Orbis-balancer_old/contracts/rewards/StakingRewards.sol\":2942:2987  stakingToken.safeTransfer(msg.sender, amount) */\n      swap3\n      swap2\n      swap1\n      0xffffffff\n      and\n      jump\t// in\n    tag_150:\n        /* \"Orbis-balancer_old/contracts/rewards/StakingRewards.sol\":3013:3023  msg.sender */\n      caller\n        /* \"Orbis-balancer_old/contracts/rewards/StakingRewards.sol\":3003:3032  Withdrawn(msg.sender, amount) */\n      0xffffffffffffffffffffffffffffffffffffffff\n      and\n      0x7084f5476618d8e60b11ef0d7d3f06914655adb8793e28ff7f018d4c76d505d5\n        /* \"Orbis-balancer_old/contracts/rewards/StakingRewards.sol\":3025:3031  amount */\n      dup4\n        /* \"Orbis-balancer_old/contracts/rewards/StakingRewards.sol\":3003:3032  Withdrawn(msg.sender, amount) */\n      mload(0x40)\n      tag_152\n      swap2\n      swap1\n      tag_31\n      jump\t// in\n    tag_152:\n      mload(0x40)\n      dup1\n      swap2\n      sub\n      swap1\n      log2\n        /* \"Orbis-balancer_old/contracts/rewards/ReentrancyGuard.sol\":941:954  _guardCounter */\n      sload(0x01)\n        /* \"Orbis-balancer_old/contracts/rewards/ReentrancyGuard.sol\":925:937  localCounter */\n      dup2\n        /* \"Orbis-balancer_old/contracts/rewards/ReentrancyGuard.sol\":925:954  localCounter == _guardCounter */\n      eq\n        /* \"Orbis-balancer_old/contracts/rewards/ReentrancyGuard.sol\":917:990  require(localCounter == _guardCounter, \"ReentrancyGuard: reentrant call\") */\n      tag_153\n      jumpi\n      mload(0x40)\n      0x08c379a000000000000000000000000000000000000000000000000000000000\n      dup2\n      mstore\n      0x04\n      add\n      tag_154\n      swap1\n      tag_155\n      jump\t// in\n    tag_154:\n      mload(0x40)\n      dup1\n      swap2\n      sub\n      swap1\n      revert\n    tag_153:\n        /* \"Orbis-balancer_old/contracts/rewards/ReentrancyGuard.sol\":818:998  {\r... */\n      pop\n        /* \"Orbis-balancer_old/contracts/rewards/StakingRewards.sol\":2708:3040  function withdraw(uint256 amount) public nonReentrant {\r... */\n      pop\n      jump\t// out\n        /* \"Orbis-balancer_old/contracts/rewards/StakingRewards.sol\":3254:3630  function getReward() public override nonReentrant updateReward(msg.sender) {\r... */\n    tag_48:\n        /* \"Orbis-balancer_old/contracts/rewards/ReentrancyGuard.sol\":846:847  1 */\n      0x01\n        /* \"Orbis-balancer_old/contracts/rewards/ReentrancyGuard.sol\":829:842  _guardCounter */\n      dup1\n      0x00\n        /* \"Orbis-balancer_old/contracts/rewards/ReentrancyGuard.sol\":829:847  _guardCounter += 1 */\n      dup3\n      dup3\n      sload\n      tag_157\n      swap2\n      swap1\n      tag_143\n      jump\t// in\n    tag_157:\n      swap3\n      pop\n      pop\n      dup2\n      swap1\n      sstore\n      pop\n        /* \"Orbis-balancer_old/contracts/rewards/ReentrancyGuard.sol\":858:878  uint256 localCounter */\n      0x00\n        /* \"Orbis-balancer_old/contracts/rewards/ReentrancyGuard.sol\":881:894  _guardCounter */\n      sload(0x01)\n        /* \"Orbis-balancer_old/contracts/rewards/ReentrancyGuard.sol\":858:894  uint256 localCounter = _guardCounter */\n      swap1\n      pop\n        /* \"Orbis-balancer_old/contracts/rewards/StakingRewards.sol\":3317:3327  msg.sender */\n      caller\n        /* \"Orbis-balancer_old/contracts/rewards/StakingRewards.sol\":4947:4957  unBounding */\n      0x0c\n      0x00\n      swap1\n      sload\n      swap1\n      0x0100\n      exp\n      swap1\n      div\n      0xff\n      and\n        /* \"Orbis-balancer_old/contracts/rewards/StakingRewards.sol\":4942:5266  if (!unBounding) {\r... */\n      tag_159\n      jumpi\n        /* \"Orbis-balancer_old/contracts/rewards/StakingRewards.sol\":4997:5013  rewardPerToken() */\n      tag_160\n        /* \"Orbis-balancer_old/contracts/rewards/StakingRewards.sol\":4997:5011  rewardPerToken */\n      tag_79\n        /* \"Orbis-balancer_old/contracts/rewards/StakingRewards.sol\":4997:5013  rewardPerToken() */\n      jump\t// in\n    tag_160:\n        /* \"Orbis-balancer_old/contracts/rewards/StakingRewards.sol\":4974:4994  rewardPerTokenStored */\n      0x07\n        /* \"Orbis-balancer_old/contracts/rewards/StakingRewards.sol\":4974:5013  rewardPerTokenStored = rewardPerToken() */\n      dup2\n      swap1\n      sstore\n      pop\n        /* \"Orbis-balancer_old/contracts/rewards/StakingRewards.sol\":5045:5071  lastTimeRewardApplicable() */\n      tag_161\n        /* \"Orbis-balancer_old/contracts/rewards/StakingRewards.sol\":5045:5069  lastTimeRewardApplicable */\n      tag_69\n        /* \"Orbis-balancer_old/contracts/rewards/StakingRewards.sol\":5045:5071  lastTimeRewardApplicable() */\n      jump\t// in\n    tag_161:\n        /* \"Orbis-balancer_old/contracts/rewards/StakingRewards.sol\":5028:5042  lastUpdateTime */\n      0x06\n        /* \"Orbis-balancer_old/contracts/rewards/StakingRewards.sol\":5028:5071  lastUpdateTime = lastTimeRewardApplicable() */\n      dup2\n      swap1\n      sstore\n      pop\n        /* \"Orbis-balancer_old/contracts/rewards/StakingRewards.sol\":5109:5110  0 */\n      0x00\n        /* \"Orbis-balancer_old/contracts/rewards/StakingRewards.sol\":5090:5111  account != address(0) */\n      0xffffffffffffffffffffffffffffffffffffffff\n      and\n        /* \"Orbis-balancer_old/contracts/rewards/StakingRewards.sol\":5090:5097  account */\n      dup2\n        /* \"Orbis-balancer_old/contracts/rewards/StakingRewards.sol\":5090:5111  account != address(0) */\n      0xffffffffffffffffffffffffffffffffffffffff\n      and\n      eq\n        /* \"Orbis-balancer_old/contracts/rewards/StakingRewards.sol\":5086:5255  if (account != address(0)) {\r... */\n      tag_162\n      jumpi\n        /* \"Orbis-balancer_old/contracts/rewards/StakingRewards.sol\":5151:5166  earned(account) */\n      tag_163\n        /* \"Orbis-balancer_old/contracts/rewards/StakingRewards.sol\":5158:5165  account */\n      dup2\n        /* \"Orbis-balancer_old/contracts/rewards/StakingRewards.sol\":5151:5157  earned */\n      tag_29\n        /* \"Orbis-balancer_old/contracts/rewards/StakingRewards.sol\":5151:5166  earned(account) */\n      jump\t// in\n    tag_163:\n        /* \"Orbis-balancer_old/contracts/rewards/StakingRewards.sol\":5132:5139  rewards */\n      0x09\n        /* \"Orbis-balancer_old/contracts/rewards/StakingRewards.sol\":5132:5148  rewards[account] */\n      0x00\n        /* \"Orbis-balancer_old/contracts/rewards/StakingRewards.sol\":5140:5147  account */\n      dup4\n        /* \"Orbis-balancer_old/contracts/rewards/StakingRewards.sol\":5132:5148  rewards[account] */\n      0xffffffffffffffffffffffffffffffffffffffff\n      and\n      0xffffffffffffffffffffffffffffffffffffffff\n      and\n      dup2\n      mstore\n      0x20\n      add\n      swap1\n      dup2\n      mstore\n      0x20\n      add\n      0x00\n      keccak256\n        /* \"Orbis-balancer_old/contracts/rewards/StakingRewards.sol\":5132:5166  rewards[account] = earned(account) */\n      dup2\n      swap1\n      sstore\n      pop\n        /* \"Orbis-balancer_old/contracts/rewards/StakingRewards.sol\":5219:5239  rewardPerTokenStored */\n      sload(0x07)\n        /* \"Orbis-balancer_old/contracts/rewards/StakingRewards.sol\":5185:5207  userRewardPerTokenPaid */\n      0x08\n        /* \"Orbis-balancer_old/contracts/rewards/StakingRewards.sol\":5185:5216  userRewardPerTokenPaid[account] */\n      0x00\n        /* \"Orbis-balancer_old/contracts/rewards/StakingRewards.sol\":5208:5215  account */\n      dup4\n        /* \"Orbis-balancer_old/contracts/rewards/StakingRewards.sol\":5185:5216  userRewardPerTokenPaid[account] */\n      0xffffffffffffffffffffffffffffffffffffffff\n      and\n      0xffffffffffffffffffffffffffffffffffffffff\n      and\n      dup2\n      mstore\n      0x20\n      add\n      swap1\n      dup2\n      mstore\n      0x20\n      add\n      0x00\n      keccak256\n        /* \"Orbis-balancer_old/contracts/rewards/StakingRewards.sol\":5185:5239  userRewardPerTokenPaid[account] = rewardPerTokenStored */\n      dup2\n      swap1\n      sstore\n      pop\n        /* \"Orbis-balancer_old/contracts/rewards/StakingRewards.sol\":5086:5255  if (account != address(0)) {\r... */\n    tag_162:\n        /* \"Orbis-balancer_old/contracts/rewards/StakingRewards.sol\":4942:5266  if (!unBounding) {\r... */\n    tag_159:\n        /* \"Orbis-balancer_old/contracts/rewards/StakingRewards.sol\":3349:3359  unBounding */\n      0x0c\n      0x00\n      swap1\n      sload\n      swap1\n      0x0100\n      exp\n      swap1\n      div\n      0xff\n      and\n        /* \"Orbis-balancer_old/contracts/rewards/StakingRewards.sol\":3348:3359  !unBounding */\n      iszero\n        /* \"Orbis-balancer_old/contracts/rewards/StakingRewards.sol\":3340:3389  require(!unBounding, \"unbounding period started\") */\n      tag_165\n      jumpi\n      mload(0x40)\n      0x08c379a000000000000000000000000000000000000000000000000000000000\n      dup2\n      mstore\n      0x04\n      add\n      tag_166\n      swap1\n      tag_167\n      jump\t// in\n    tag_166:\n      mload(0x40)\n      dup1\n      swap2\n      sub\n      swap1\n      revert\n    tag_165:\n        /* \"Orbis-balancer_old/contracts/rewards/StakingRewards.sol\":3400:3414  uint256 reward */\n      0x00\n        /* \"Orbis-balancer_old/contracts/rewards/StakingRewards.sol\":3417:3424  rewards */\n      0x09\n        /* \"Orbis-balancer_old/contracts/rewards/StakingRewards.sol\":3417:3436  rewards[msg.sender] */\n      0x00\n        /* \"Orbis-balancer_old/contracts/rewards/StakingRewards.sol\":3425:3435  msg.sender */\n      caller\n        /* \"Orbis-balancer_old/contracts/rewards/StakingRewards.sol\":3417:3436  rewards[msg.sender] */\n      0xffffffffffffffffffffffffffffffffffffffff\n      and\n      0xffffffffffffffffffffffffffffffffffffffff\n      and\n      dup2\n      mstore\n      0x20\n      add\n      swap1\n      dup2\n      mstore\n      0x20\n      add\n      0x00\n      keccak256\n      sload\n        /* \"Orbis-balancer_old/contracts/rewards/StakingRewards.sol\":3400:3436  uint256 reward = rewards[msg.sender] */\n      swap1\n      pop\n        /* \"Orbis-balancer_old/contracts/rewards/StakingRewards.sol\":3460:3461  0 */\n      0x00\n        /* \"Orbis-balancer_old/contracts/rewards/StakingRewards.sol\":3451:3457  reward */\n      dup2\n        /* \"Orbis-balancer_old/contracts/rewards/StakingRewards.sol\":3451:3461  reward > 0 */\n      gt\n        /* \"Orbis-balancer_old/contracts/rewards/StakingRewards.sol\":3447:3623  if (reward > 0) {\r... */\n      iszero\n      tag_168\n      jumpi\n        /* \"Orbis-balancer_old/contracts/rewards/StakingRewards.sol\":3500:3501  0 */\n      0x00\n        /* \"Orbis-balancer_old/contracts/rewards/StakingRewards.sol\":3478:3485  rewards */\n      0x09\n        /* \"Orbis-balancer_old/contracts/rewards/StakingRewards.sol\":3478:3497  rewards[msg.sender] */\n      0x00\n        /* \"Orbis-balancer_old/contracts/rewards/StakingRewards.sol\":3486:3496  msg.sender */\n      caller\n        /* \"Orbis-balancer_old/contracts/rewards/StakingRewards.sol\":3478:3497  rewards[msg.sender] */\n      0xffffffffffffffffffffffffffffffffffffffff\n      and\n      0xffffffffffffffffffffffffffffffffffffffff\n      and\n      dup2\n      mstore\n      0x20\n      add\n      swap1\n      dup2\n      mstore\n      0x20\n      add\n      0x00\n      keccak256\n        /* \"Orbis-balancer_old/contracts/rewards/StakingRewards.sol\":3478:3501  rewards[msg.sender] = 0 */\n      dup2\n      swap1\n      sstore\n      pop\n        /* \"Orbis-balancer_old/contracts/rewards/StakingRewards.sol\":3516:3561  rewardsToken.safeTransfer(msg.sender, reward) */\n      tag_169\n        /* \"Orbis-balancer_old/contracts/rewards/StakingRewards.sol\":3542:3552  msg.sender */\n      caller\n        /* \"Orbis-balancer_old/contracts/rewards/StakingRewards.sol\":3554:3560  reward */\n      dup3\n        /* \"Orbis-balancer_old/contracts/rewards/StakingRewards.sol\":3516:3528  rewardsToken */\n      0x02\n      0x00\n      swap1\n      sload\n      swap1\n      0x0100\n      exp\n      swap1\n      div\n      0xffffffffffffffffffffffffffffffffffffffff\n      and\n        /* \"Orbis-balancer_old/contracts/rewards/StakingRewards.sol\":3516:3541  rewardsToken.safeTransfer */\n      0xffffffffffffffffffffffffffffffffffffffff\n      and\n      tag_151\n      swap1\n        /* \"Orbis-balancer_old/contracts/rewards/StakingRewards.sol\":3516:3561  rewardsToken.safeTransfer(msg.sender, reward) */\n      swap3\n      swap2\n      swap1\n      0xffffffff\n      and\n      jump\t// in\n    tag_169:\n        /* \"Orbis-balancer_old/contracts/rewards/StakingRewards.sol\":3592:3602  msg.sender */\n      caller\n        /* \"Orbis-balancer_old/contracts/rewards/StakingRewards.sol\":3581:3611  RewardPaid(msg.sender, reward) */\n      0xffffffffffffffffffffffffffffffffffffffff\n      and\n      0xe2403640ba68fed3a2f88b7557551d1993f84b99bb10ff833f0cf8db0c5e0486\n        /* \"Orbis-balancer_old/contracts/rewards/StakingRewards.sol\":3604:3610  reward */\n      dup3\n        /* \"Orbis-balancer_old/contracts/rewards/StakingRewards.sol\":3581:3611  RewardPaid(msg.sender, reward) */\n      mload(0x40)\n      tag_170\n      swap2\n      swap1\n      tag_31\n      jump\t// in\n    tag_170:\n      mload(0x40)\n      dup1\n      swap2\n      sub\n      swap1\n      log2\n        /* \"Orbis-balancer_old/contracts/rewards/StakingRewards.sol\":3447:3623  if (reward > 0) {\r... */\n    tag_168:\n        /* \"Orbis-balancer_old/contracts/rewards/StakingRewards.sol\":3329:3630  {\r... */\n      pop\n        /* \"Orbis-balancer_old/contracts/rewards/ReentrancyGuard.sol\":905:906  _ */\n      pop\n        /* \"Orbis-balancer_old/contracts/rewards/ReentrancyGuard.sol\":941:954  _guardCounter */\n      sload(0x01)\n        /* \"Orbis-balancer_old/contracts/rewards/ReentrancyGuard.sol\":925:937  localCounter */\n      dup2\n        /* \"Orbis-balancer_old/contracts/rewards/ReentrancyGuard.sol\":925:954  localCounter == _guardCounter */\n      eq\n        /* \"Orbis-balancer_old/contracts/rewards/ReentrancyGuard.sol\":917:990  require(localCounter == _guardCounter, \"ReentrancyGuard: reentrant call\") */\n      tag_171\n      jumpi\n      mload(0x40)\n      0x08c379a000000000000000000000000000000000000000000000000000000000\n      dup2\n      mstore\n      0x04\n      add\n      tag_172\n      swap1\n      tag_155\n      jump\t// in\n    tag_172:\n      mload(0x40)\n      dup1\n      swap2\n      sub\n      swap1\n      revert\n    tag_171:\n        /* \"Orbis-balancer_old/contracts/rewards/ReentrancyGuard.sol\":818:998  {\r... */\n      pop\n        /* \"Orbis-balancer_old/contracts/rewards/StakingRewards.sol\":3254:3630  function getReward() public override nonReentrant updateReward(msg.sender) {\r... */\n      jump\t// out\n        /* \"Orbis-balancer_old/contracts/rewards/RewardsDistributionRecipient.sol\":111:145  address public rewardsDistribution */\n    tag_50:\n      0x00\n      dup1\n      sload\n      swap1\n      0x0100\n      exp\n      swap1\n      div\n      0xffffffffffffffffffffffffffffffffffffffff\n      and\n      dup2\n      jump\t// out\n        /* \"Orbis-balancer_old/contracts/rewards/StakingRewards.sol\":1425:1546  function balanceOf(address account) external override view returns (uint256) {\r... */\n    tag_55:\n        /* \"Orbis-balancer_old/contracts/rewards/StakingRewards.sol\":1493:1500  uint256 */\n      0x00\n        /* \"Orbis-balancer_old/contracts/rewards/StakingRewards.sol\":1520:1529  _balances */\n      0x0b\n        /* \"Orbis-balancer_old/contracts/rewards/StakingRewards.sol\":1520:1538  _balances[account] */\n      0x00\n        /* \"Orbis-balancer_old/contracts/rewards/StakingRewards.sol\":1530:1537  account */\n      dup4\n        /* \"Orbis-balancer_old/contracts/rewards/StakingRewards.sol\":1520:1538  _balances[account] */\n      0xffffffffffffffffffffffffffffffffffffffff\n      and\n      0xffffffffffffffffffffffffffffffffffffffff\n      and\n      dup2\n      mstore\n      0x20\n      add\n      swap1\n      dup2\n      mstore\n      0x20\n      add\n      0x00\n      keccak256\n      sload\n        /* \"Orbis-balancer_old/contracts/rewards/StakingRewards.sol\":1513:1538  return _balances[account] */\n      swap1\n      pop\n        /* \"Orbis-balancer_old/contracts/rewards/StakingRewards.sol\":1425:1546  function balanceOf(address account) external override view returns (uint256) {\r... */\n      swap2\n      swap1\n      pop\n      jump\t// out\n        /* \"Orbis-balancer_old/contracts/rewards/StakingRewards.sol\":571:597  IERC20 public stakingToken */\n    tag_58:\n      0x03\n      0x00\n      swap1\n      sload\n      swap1\n      0x0100\n      exp\n      swap1\n      div\n      0xffffffffffffffffffffffffffffffffffffffff\n      and\n      dup2\n      jump\t// out\n        /* \"Orbis-balancer_old/contracts/rewards/StakingRewards.sol\":2256:2700  function stake(uint256 amount, address owner) external override nonReentrant updateReward(msg.sender) {\r... */\n    tag_64:\n        /* \"Orbis-balancer_old/contracts/rewards/ReentrancyGuard.sol\":846:847  1 */\n      0x01\n        /* \"Orbis-balancer_old/contracts/rewards/ReentrancyGuard.sol\":829:842  _guardCounter */\n      dup1\n      0x00\n        /* \"Orbis-balancer_old/contracts/rewards/ReentrancyGuard.sol\":829:847  _guardCounter += 1 */\n      dup3\n      dup3\n      sload\n      tag_175\n      swap2\n      swap1\n      tag_143\n      jump\t// in\n    tag_175:\n      swap3\n      pop\n      pop\n      dup2\n      swap1\n      sstore\n      pop\n        /* \"Orbis-balancer_old/contracts/rewards/ReentrancyGuard.sol\":858:878  uint256 localCounter */\n      0x00\n        /* \"Orbis-balancer_old/contracts/rewards/ReentrancyGuard.sol\":881:894  _guardCounter */\n      sload(0x01)\n        /* \"Orbis-balancer_old/contracts/rewards/ReentrancyGuard.sol\":858:894  uint256 localCounter = _guardCounter */\n      swap1\n      pop\n        /* \"Orbis-balancer_old/contracts/rewards/StakingRewards.sol\":2346:2356  msg.sender */\n      caller\n        /* \"Orbis-balancer_old/contracts/rewards/StakingRewards.sol\":4947:4957  unBounding */\n      0x0c\n      0x00\n      swap1\n      sload\n      swap1\n      0x0100\n      exp\n      swap1\n      div\n      0xff\n      and\n        /* \"Orbis-balancer_old/contracts/rewards/StakingRewards.sol\":4942:5266  if (!unBounding) {\r... */\n      tag_177\n      jumpi\n        /* \"Orbis-balancer_old/contracts/rewards/StakingRewards.sol\":4997:5013  rewardPerToken() */\n      tag_178\n        /* \"Orbis-balancer_old/contracts/rewards/StakingRewards.sol\":4997:5011  rewardPerToken */\n      tag_79\n        /* \"Orbis-balancer_old/contracts/rewards/StakingRewards.sol\":4997:5013  rewardPerToken() */\n      jump\t// in\n    tag_178:\n        /* \"Orbis-balancer_old/contracts/rewards/StakingRewards.sol\":4974:4994  rewardPerTokenStored */\n      0x07\n        /* \"Orbis-balancer_old/contracts/rewards/StakingRewards.sol\":4974:5013  rewardPerTokenStored = rewardPerToken() */\n      dup2\n      swap1\n      sstore\n      pop\n        /* \"Orbis-balancer_old/contracts/rewards/StakingRewards.sol\":5045:5071  lastTimeRewardApplicable() */\n      tag_179\n        /* \"Orbis-balancer_old/contracts/rewards/StakingRewards.sol\":5045:5069  lastTimeRewardApplicable */\n      tag_69\n        /* \"Orbis-balancer_old/contracts/rewards/StakingRewards.sol\":5045:5071  lastTimeRewardApplicable() */\n      jump\t// in\n    tag_179:\n        /* \"Orbis-balancer_old/contracts/rewards/StakingRewards.sol\":5028:5042  lastUpdateTime */\n      0x06\n        /* \"Orbis-balancer_old/contracts/rewards/StakingRewards.sol\":5028:5071  lastUpdateTime = lastTimeRewardApplicable() */\n      dup2\n      swap1\n      sstore\n      pop\n        /* \"Orbis-balancer_old/contracts/rewards/StakingRewards.sol\":5109:5110  0 */\n      0x00\n        /* \"Orbis-balancer_old/contracts/rewards/StakingRewards.sol\":5090:5111  account != address(0) */\n      0xffffffffffffffffffffffffffffffffffffffff\n      and\n        /* \"Orbis-balancer_old/contracts/rewards/StakingRewards.sol\":5090:5097  account */\n      dup2\n        /* \"Orbis-balancer_old/contracts/rewards/StakingRewards.sol\":5090:5111  account != address(0) */\n      0xffffffffffffffffffffffffffffffffffffffff\n      and\n      eq\n        /* \"Orbis-balancer_old/contracts/rewards/StakingRewards.sol\":5086:5255  if (account != address(0)) {\r... */\n      tag_180\n      jumpi\n        /* \"Orbis-balancer_old/contracts/rewards/StakingRewards.sol\":5151:5166  earned(account) */\n      tag_181\n        /* \"Orbis-balancer_old/contracts/rewards/StakingRewards.sol\":5158:5165  account */\n      dup2\n        /* \"Orbis-balancer_old/contracts/rewards/StakingRewards.sol\":5151:5157  earned */\n      tag_29\n        /* \"Orbis-balancer_old/contracts/rewards/StakingRewards.sol\":5151:5166  earned(account) */\n      jump\t// in\n    tag_181:\n        /* \"Orbis-balancer_old/contracts/rewards/StakingRewards.sol\":5132:5139  rewards */\n      0x09\n        /* \"Orbis-balancer_old/contracts/rewards/StakingRewards.sol\":5132:5148  rewards[account] */\n      0x00\n        /* \"Orbis-balancer_old/contracts/rewards/StakingRewards.sol\":5140:5147  account */\n      dup4\n        /* \"Orbis-balancer_old/contracts/rewards/StakingRewards.sol\":5132:5148  rewards[account] */\n      0xffffffffffffffffffffffffffffffffffffffff\n      and\n      0xffffffffffffffffffffffffffffffffffffffff\n      and\n      dup2\n      mstore\n      0x20\n      add\n      swap1\n      dup2\n      mstore\n      0x20\n      add\n      0x00\n      keccak256\n        /* \"Orbis-balancer_old/contracts/rewards/StakingRewards.sol\":5132:5166  rewards[account] = earned(account) */\n      dup2\n      swap1\n      sstore\n      pop\n        /* \"Orbis-balancer_old/contracts/rewards/StakingRewards.sol\":5219:5239  rewardPerTokenStored */\n      sload(0x07)\n        /* \"Orbis-balancer_old/contracts/rewards/StakingRewards.sol\":5185:5207  userRewardPerTokenPaid */\n      0x08\n        /* \"Orbis-balancer_old/contracts/rewards/StakingRewards.sol\":5185:5216  userRewardPerTokenPaid[account] */\n      0x00\n        /* \"Orbis-balancer_old/contracts/rewards/StakingRewards.sol\":5208:5215  account */\n      dup4\n        /* \"Orbis-balancer_old/contracts/rewards/StakingRewards.sol\":5185:5216  userRewardPerTokenPaid[account] */\n      0xffffffffffffffffffffffffffffffffffffffff\n      and\n      0xffffffffffffffffffffffffffffffffffffffff\n      and\n      dup2\n      mstore\n      0x20\n      add\n      swap1\n      dup2\n      mstore\n      0x20\n      add\n      0x00\n      keccak256\n        /* \"Orbis-balancer_old/contracts/rewards/StakingRewards.sol\":5185:5239  userRewardPerTokenPaid[account] = rewardPerTokenStored */\n      dup2\n      swap1\n      sstore\n      pop\n        /* \"Orbis-balancer_old/contracts/rewards/StakingRewards.sol\":5086:5255  if (account != address(0)) {\r... */\n    tag_180:\n        /* \"Orbis-balancer_old/contracts/rewards/StakingRewards.sol\":4942:5266  if (!unBounding) {\r... */\n    tag_177:\n        /* \"Orbis-balancer_old/contracts/rewards/StakingRewards.sol\":2386:2387  0 */\n      0x00\n        /* \"Orbis-balancer_old/contracts/rewards/StakingRewards.sol\":2377:2383  amount */\n      dup5\n        /* \"Orbis-balancer_old/contracts/rewards/StakingRewards.sol\":2377:2387  amount > 0 */\n      gt\n        /* \"Orbis-balancer_old/contracts/rewards/StakingRewards.sol\":2369:2406  require(amount > 0, \"Cannot stake 0\") */\n      tag_183\n      jumpi\n      mload(0x40)\n      0x08c379a000000000000000000000000000000000000000000000000000000000\n      dup2\n      mstore\n      0x04\n      add\n      tag_184\n      swap1\n      tag_185\n      jump\t// in\n    tag_184:\n      mload(0x40)\n      dup1\n      swap2\n      sub\n      swap1\n      revert\n    tag_183:\n        /* \"Orbis-balancer_old/contracts/rewards/StakingRewards.sol\":2432:2456  _totalSupply.add(amount) */\n      tag_186\n        /* \"Orbis-balancer_old/contracts/rewards/StakingRewards.sol\":2449:2455  amount */\n      dup5\n        /* \"Orbis-balancer_old/contracts/rewards/StakingRewards.sol\":2432:2444  _totalSupply */\n      sload(0x0a)\n        /* \"Orbis-balancer_old/contracts/rewards/StakingRewards.sol\":2432:2448  _totalSupply.add */\n      tag_104\n      swap1\n        /* \"Orbis-balancer_old/contracts/rewards/StakingRewards.sol\":2432:2456  _totalSupply.add(amount) */\n      swap2\n      swap1\n      0xffffffff\n      and\n      jump\t// in\n    tag_186:\n        /* \"Orbis-balancer_old/contracts/rewards/StakingRewards.sol\":2417:2429  _totalSupply */\n      0x0a\n        /* \"Orbis-balancer_old/contracts/rewards/StakingRewards.sol\":2417:2456  _totalSupply = _totalSupply.add(amount) */\n      dup2\n      swap1\n      sstore\n      pop\n        /* \"Orbis-balancer_old/contracts/rewards/StakingRewards.sol\":2491:2524  _balances[msg.sender].add(amount) */\n      tag_187\n        /* \"Orbis-balancer_old/contracts/rewards/StakingRewards.sol\":2517:2523  amount */\n      dup5\n        /* \"Orbis-balancer_old/contracts/rewards/StakingRewards.sol\":2491:2500  _balances */\n      0x0b\n        /* \"Orbis-balancer_old/contracts/rewards/StakingRewards.sol\":2491:2512  _balances[msg.sender] */\n      0x00\n        /* \"Orbis-balancer_old/contracts/rewards/StakingRewards.sol\":2501:2511  msg.sender */\n      caller\n        /* \"Orbis-balancer_old/contracts/rewards/StakingRewards.sol\":2491:2512  _balances[msg.sender] */\n      0xffffffffffffffffffffffffffffffffffffffff\n      and\n      0xffffffffffffffffffffffffffffffffffffffff\n      and\n      dup2\n      mstore\n      0x20\n      add\n      swap1\n      dup2\n      mstore\n      0x20\n      add\n      0x00\n      keccak256\n      sload\n        /* \"Orbis-balancer_old/contracts/rewards/StakingRewards.sol\":2491:2516  _balances[msg.sender].add */\n      tag_104\n      swap1\n        /* \"Orbis-balancer_old/contracts/rewards/StakingRewards.sol\":2491:2524  _balances[msg.sender].add(amount) */\n      swap2\n      swap1\n      0xffffffff\n      and\n      jump\t// in\n    tag_187:\n        /* \"Orbis-balancer_old/contracts/rewards/StakingRewards.sol\":2467:2476  _balances */\n      0x0b\n        /* \"Orbis-balancer_old/contracts/rewards/StakingRewards.sol\":2467:2488  _balances[msg.sender] */\n      0x00\n        /* \"Orbis-balancer_old/contracts/rewards/StakingRewards.sol\":2477:2487  msg.sender */\n      caller\n        /* \"Orbis-balancer_old/contracts/rewards/StakingRewards.sol\":2467:2488  _balances[msg.sender] */\n      0xffffffffffffffffffffffffffffffffffffffff\n      and\n      0xffffffffffffffffffffffffffffffffffffffff\n      and\n      dup2\n      mstore\n      0x20\n      add\n      swap1\n      dup2\n      mstore\n      0x20\n      add\n      0x00\n      keccak256\n        /* \"Orbis-balancer_old/contracts/rewards/StakingRewards.sol\":2467:2524  _balances[msg.sender] = _balances[msg.sender].add(amount) */\n      dup2\n      swap1\n      sstore\n      pop\n        /* \"Orbis-balancer_old/contracts/rewards/StakingRewards.sol\":2540:2575  CHECK(owner, address(this), amount) */\n      0xc90ba2f1821a1933b06a152b152556d33fb65bcc1366bfa839c68715b039f615\n        /* \"Orbis-balancer_old/contracts/rewards/StakingRewards.sol\":2546:2551  owner */\n      dup4\n        /* \"Orbis-balancer_old/contracts/rewards/StakingRewards.sol\":2561:2565  this */\n      address\n        /* \"Orbis-balancer_old/contracts/rewards/StakingRewards.sol\":2568:2574  amount */\n      dup7\n        /* \"Orbis-balancer_old/contracts/rewards/StakingRewards.sol\":2540:2575  CHECK(owner, address(this), amount) */\n      mload(0x40)\n      tag_188\n      swap4\n      swap3\n      swap2\n      swap1\n      tag_189\n      jump\t// in\n    tag_188:\n      mload(0x40)\n      dup1\n      swap2\n      sub\n      swap1\n      log1\n        /* \"Orbis-balancer_old/contracts/rewards/StakingRewards.sol\":2586:2650  stakingToken.safeTransferFrom(msg.sender, address(this), amount) */\n      tag_190\n        /* \"Orbis-balancer_old/contracts/rewards/StakingRewards.sol\":2616:2626  msg.sender */\n      caller\n        /* \"Orbis-balancer_old/contracts/rewards/StakingRewards.sol\":2636:2640  this */\n      address\n        /* \"Orbis-balancer_old/contracts/rewards/StakingRewards.sol\":2643:2649  amount */\n      dup7\n        /* \"Orbis-balancer_old/contracts/rewards/StakingRewards.sol\":2586:2598  stakingToken */\n      0x03\n      0x00\n      swap1\n      sload\n      swap1\n      0x0100\n      exp\n      swap1\n      div\n      0xffffffffffffffffffffffffffffffffffffffff\n      and\n        /* \"Orbis-balancer_old/contracts/rewards/StakingRewards.sol\":2586:2615  stakingToken.safeTransferFrom */\n      0xffffffffffffffffffffffffffffffffffffffff\n      and\n      tag_191\n      swap1\n        /* \"Orbis-balancer_old/contracts/rewards/StakingRewards.sol\":2586:2650  stakingToken.safeTransferFrom(msg.sender, address(this), amount) */\n      swap4\n      swap3\n      swap2\n      swap1\n      0xffffffff\n      and\n      jump\t// in\n    tag_190:\n        /* \"Orbis-balancer_old/contracts/rewards/StakingRewards.sol\":2673:2683  msg.sender */\n      caller\n        /* \"Orbis-balancer_old/contracts/rewards/StakingRewards.sol\":2666:2692  Staked(msg.sender, amount) */\n      0xffffffffffffffffffffffffffffffffffffffff\n      and\n      0x9e71bc8eea02a63969f509818f2dafb9254532904319f9dbda79b67bd34a5f3d\n        /* \"Orbis-balancer_old/contracts/rewards/StakingRewards.sol\":2685:2691  amount */\n      dup6\n        /* \"Orbis-balancer_old/contracts/rewards/StakingRewards.sol\":2666:2692  Staked(msg.sender, amount) */\n      mload(0x40)\n      tag_192\n      swap2\n      swap1\n      tag_31\n      jump\t// in\n    tag_192:\n      mload(0x40)\n      dup1\n      swap2\n      sub\n      swap1\n      log2\n        /* \"Orbis-balancer_old/contracts/rewards/ReentrancyGuard.sol\":905:906  _ */\n      pop\n        /* \"Orbis-balancer_old/contracts/rewards/ReentrancyGuard.sol\":941:954  _guardCounter */\n      sload(0x01)\n        /* \"Orbis-balancer_old/contracts/rewards/ReentrancyGuard.sol\":925:937  localCounter */\n      dup2\n        /* \"Orbis-balancer_old/contracts/rewards/ReentrancyGuard.sol\":925:954  localCounter == _guardCounter */\n      eq\n        /* \"Orbis-balancer_old/contracts/rewards/ReentrancyGuard.sol\":917:990  require(localCounter == _guardCounter, \"ReentrancyGuard: reentrant call\") */\n      tag_193\n      jumpi\n      mload(0x40)\n      0x08c379a000000000000000000000000000000000000000000000000000000000\n      dup2\n      mstore\n      0x04\n      add\n      tag_194\n      swap1\n      tag_155\n      jump\t// in\n    tag_194:\n      mload(0x40)\n      dup1\n      swap2\n      sub\n      swap1\n      revert\n    tag_193:\n        /* \"Orbis-balancer_old/contracts/rewards/ReentrancyGuard.sol\":818:998  {\r... */\n      pop\n        /* \"Orbis-balancer_old/contracts/rewards/StakingRewards.sol\":2256:2700  function stake(uint256 amount, address owner) external override nonReentrant updateReward(msg.sender) {\r... */\n      pop\n      pop\n      jump\t// out\n        /* \"Orbis-balancer_old/contracts/rewards/StakingRewards.sol\":642:671  uint256 public rewardRate = 0 */\n    tag_66:\n      sload(0x05)\n      dup2\n      jump\t// out\n        /* \"Orbis-balancer_old/contracts/rewards/StakingRewards.sol\":1554:1694  function lastTimeRewardApplicable() public override view returns (uint256) {\r... */\n    tag_69:\n        /* \"Orbis-balancer_old/contracts/rewards/StakingRewards.sol\":1620:1627  uint256 */\n      0x00\n        /* \"Orbis-balancer_old/contracts/rewards/StakingRewards.sol\":1647:1686  Math.min(block.timestamp, periodFinish) */\n      tag_196\n        /* \"Orbis-balancer_old/contracts/rewards/StakingRewards.sol\":1656:1671  block.timestamp */\n      timestamp\n        /* \"Orbis-balancer_old/contracts/rewards/StakingRewards.sol\":1673:1685  periodFinish */\n      sload(0x04)\n        /* \"Orbis-balancer_old/contracts/rewards/StakingRewards.sol\":1647:1655  Math.min */\n      tag_197\n        /* \"Orbis-balancer_old/contracts/rewards/StakingRewards.sol\":1647:1686  Math.min(block.timestamp, periodFinish) */\n      jump\t// in\n    tag_196:\n        /* \"Orbis-balancer_old/contracts/rewards/StakingRewards.sol\":1640:1686  return Math.min(block.timestamp, periodFinish) */\n      swap1\n      pop\n        /* \"Orbis-balancer_old/contracts/rewards/StakingRewards.sol\":1554:1694  function lastTimeRewardApplicable() public override view returns (uint256) {\r... */\n      swap1\n      jump\t// out\n        /* \"Orbis-balancer_old/contracts/rewards/StakingRewards.sol\":758:815  mapping(address => uint256) public userRewardPerTokenPaid */\n    tag_73:\n      mstore(0x20, 0x08)\n      dup1\n      0x00\n      mstore\n      keccak256(0x00, 0x40)\n      0x00\n      swap2\n      pop\n      swap1\n      pop\n      sload\n      dup2\n      jump\t// out\n        /* \"Orbis-balancer_old/contracts/rewards/StakingRewards.sol\":678:707  uint256 public lastUpdateTime */\n    tag_76:\n      sload(0x06)\n      dup2\n      jump\t// out\n        /* \"Orbis-balancer_old/contracts/rewards/StakingRewards.sol\":1702:2029  function rewardPerToken() public override view returns (uint256) {\r... */\n    tag_79:\n        /* \"Orbis-balancer_old/contracts/rewards/StakingRewards.sol\":1758:1765  uint256 */\n      0x00\n        /* \"Orbis-balancer_old/contracts/rewards/StakingRewards.sol\":1798:1799  0 */\n      dup1\n        /* \"Orbis-balancer_old/contracts/rewards/StakingRewards.sol\":1782:1794  _totalSupply */\n      sload(0x0a)\n        /* \"Orbis-balancer_old/contracts/rewards/StakingRewards.sol\":1782:1799  _totalSupply == 0 */\n      eq\n        /* \"Orbis-balancer_old/contracts/rewards/StakingRewards.sol\":1778:1855  if (_totalSupply == 0) {\r... */\n      iszero\n      tag_199\n      jumpi\n        /* \"Orbis-balancer_old/contracts/rewards/StakingRewards.sol\":1823:1843  rewardPerTokenStored */\n      sload(0x07)\n        /* \"Orbis-balancer_old/contracts/rewards/StakingRewards.sol\":1816:1843  return rewardPerTokenStored */\n      swap1\n      pop\n      jump(tag_198)\n        /* \"Orbis-balancer_old/contracts/rewards/StakingRewards.sol\":1778:1855  if (_totalSupply == 0) {\r... */\n    tag_199:\n        /* \"Orbis-balancer_old/contracts/rewards/StakingRewards.sol\":1881:2021  rewardPerTokenStored.add(\r... */\n      tag_200\n        /* \"Orbis-balancer_old/contracts/rewards/StakingRewards.sol\":1920:2010  lastTimeRewardApplicable().sub(lastUpdateTime).mul(rewardRate).mul(1e18).div(_totalSupply) */\n      tag_201\n        /* \"Orbis-balancer_old/contracts/rewards/StakingRewards.sol\":1997:2009  _totalSupply */\n      sload(0x0a)\n        /* \"Orbis-balancer_old/contracts/rewards/StakingRewards.sol\":1920:1992  lastTimeRewardApplicable().sub(lastUpdateTime).mul(rewardRate).mul(1e18) */\n      tag_202\n        /* \"Orbis-balancer_old/contracts/rewards/StakingRewards.sol\":1987:1991  1e18 */\n      0x0de0b6b3a7640000\n        /* \"Orbis-balancer_old/contracts/rewards/StakingRewards.sol\":1920:1982  lastTimeRewardApplicable().sub(lastUpdateTime).mul(rewardRate) */\n      tag_203\n        /* \"Orbis-balancer_old/contracts/rewards/StakingRewards.sol\":1971:1981  rewardRate */\n      sload(0x05)\n        /* \"Orbis-balancer_old/contracts/rewards/StakingRewards.sol\":1920:1966  lastTimeRewardApplicable().sub(lastUpdateTime) */\n      tag_204\n        /* \"Orbis-balancer_old/contracts/rewards/StakingRewards.sol\":1951:1965  lastUpdateTime */\n      sload(0x06)\n        /* \"Orbis-balancer_old/contracts/rewards/StakingRewards.sol\":1920:1946  lastTimeRewardApplicable() */\n      tag_205\n        /* \"Orbis-balancer_old/contracts/rewards/StakingRewards.sol\":1920:1944  lastTimeRewardApplicable */\n      tag_69\n        /* \"Orbis-balancer_old/contracts/rewards/StakingRewards.sol\":1920:1946  lastTimeRewardApplicable() */\n      jump\t// in\n    tag_205:\n        /* \"Orbis-balancer_old/contracts/rewards/StakingRewards.sol\":1920:1950  lastTimeRewardApplicable().sub */\n      tag_101\n      swap1\n        /* \"Orbis-balancer_old/contracts/rewards/StakingRewards.sol\":1920:1966  lastTimeRewardApplicable().sub(lastUpdateTime) */\n      swap2\n      swap1\n      0xffffffff\n      and\n      jump\t// in\n    tag_204:\n        /* \"Orbis-balancer_old/contracts/rewards/StakingRewards.sol\":1920:1970  lastTimeRewardApplicable().sub(lastUpdateTime).mul */\n      tag_102\n      swap1\n        /* \"Orbis-balancer_old/contracts/rewards/StakingRewards.sol\":1920:1982  lastTimeRewardApplicable().sub(lastUpdateTime).mul(rewardRate) */\n      swap2\n      swap1\n      0xffffffff\n      and\n      jump\t// in\n    tag_203:\n        /* \"Orbis-balancer_old/contracts/rewards/StakingRewards.sol\":1920:1986  lastTimeRewardApplicable().sub(lastUpdateTime).mul(rewardRate).mul */\n      tag_102\n      swap1\n        /* \"Orbis-balancer_old/contracts/rewards/StakingRewards.sol\":1920:1992  lastTimeRewardApplicable().sub(lastUpdateTime).mul(rewardRate).mul(1e18) */\n      swap2\n      swap1\n      0xffffffff\n      and\n      jump\t// in\n    tag_202:\n        /* \"Orbis-balancer_old/contracts/rewards/StakingRewards.sol\":1920:1996  lastTimeRewardApplicable().sub(lastUpdateTime).mul(rewardRate).mul(1e18).div */\n      tag_103\n      swap1\n        /* \"Orbis-balancer_old/contracts/rewards/StakingRewards.sol\":1920:2010  lastTimeRewardApplicable().sub(lastUpdateTime).mul(rewardRate).mul(1e18).div(_totalSupply) */\n      swap2\n      swap1\n      0xffffffff\n      and\n      jump\t// in\n    tag_201:\n        /* \"Orbis-balancer_old/contracts/rewards/StakingRewards.sol\":1881:1901  rewardPerTokenStored */\n      sload(0x07)\n        /* \"Orbis-balancer_old/contracts/rewards/StakingRewards.sol\":1881:1905  rewardPerTokenStored.add */\n      tag_104\n      swap1\n        /* \"Orbis-balancer_old/contracts/rewards/StakingRewards.sol\":1881:2021  rewardPerTokenStored.add(\r... */\n      swap2\n      swap1\n      0xffffffff\n      and\n      jump\t// in\n    tag_200:\n        /* \"Orbis-balancer_old/contracts/rewards/StakingRewards.sol\":1865:2021  return\r... */\n      swap1\n      pop\n        /* \"Orbis-balancer_old/contracts/rewards/StakingRewards.sol\":1702:2029  function rewardPerToken() public override view returns (uint256) {\r... */\n    tag_198:\n      swap1\n      jump\t// out\n        /* \"Orbis-balancer_old/contracts/rewards/StakingRewards.sol\":538:564  IERC20 public rewardsToken */\n    tag_82:\n      0x02\n      0x00\n      swap1\n      sload\n      swap1\n      0x0100\n      exp\n      swap1\n      div\n      0xffffffffffffffffffffffffffffffffffffffff\n      and\n      dup2\n      jump\t// out\n        /* \"Orbis-balancer_old/contracts/rewards/StakingRewards.sol\":3048:3246  function unboundingPeriod(uint unboundPeriod) public override nonReentrant updateReward(msg.sender) {\r... */\n    tag_86:\n        /* \"Orbis-balancer_old/contracts/rewards/ReentrancyGuard.sol\":846:847  1 */\n      0x01\n        /* \"Orbis-balancer_old/contracts/rewards/ReentrancyGuard.sol\":829:842  _guardCounter */\n      dup1\n      0x00\n        /* \"Orbis-balancer_old/contracts/rewards/ReentrancyGuard.sol\":829:847  _guardCounter += 1 */\n      dup3\n      dup3\n      sload\n      tag_207\n      swap2\n      swap1\n      tag_143\n      jump\t// in\n    tag_207:\n      swap3\n      pop\n      pop\n      dup2\n      swap1\n      sstore\n      pop\n        /* \"Orbis-balancer_old/contracts/rewards/ReentrancyGuard.sol\":858:878  uint256 localCounter */\n      0x00\n        /* \"Orbis-balancer_old/contracts/rewards/ReentrancyGuard.sol\":881:894  _guardCounter */\n      sload(0x01)\n        /* \"Orbis-balancer_old/contracts/rewards/ReentrancyGuard.sol\":858:894  uint256 localCounter = _guardCounter */\n      swap1\n      pop\n        /* \"Orbis-balancer_old/contracts/rewards/StakingRewards.sol\":3136:3146  msg.sender */\n      caller\n        /* \"Orbis-balancer_old/contracts/rewards/StakingRewards.sol\":4947:4957  unBounding */\n      0x0c\n      0x00\n      swap1\n      sload\n      swap1\n      0x0100\n      exp\n      swap1\n      div\n      0xff\n      and\n        /* \"Orbis-balancer_old/contracts/rewards/StakingRewards.sol\":4942:5266  if (!unBounding) {\r... */\n      tag_209\n      jumpi\n        /* \"Orbis-balancer_old/contracts/rewards/StakingRewards.sol\":4997:5013  rewardPerToken() */\n      tag_210\n        /* \"Orbis-balancer_old/contracts/rewards/StakingRewards.sol\":4997:5011  rewardPerToken */\n      tag_79\n        /* \"Orbis-balancer_old/contracts/rewards/StakingRewards.sol\":4997:5013  rewardPerToken() */\n      jump\t// in\n    tag_210:\n        /* \"Orbis-balancer_old/contracts/rewards/StakingRewards.sol\":4974:4994  rewardPerTokenStored */\n      0x07\n        /* \"Orbis-balancer_old/contracts/rewards/StakingRewards.sol\":4974:5013  rewardPerTokenStored = rewardPerToken() */\n      dup2\n      swap1\n      sstore\n      pop\n        /* \"Orbis-balancer_old/contracts/rewards/StakingRewards.sol\":5045:5071  lastTimeRewardApplicable() */\n      tag_211\n        /* \"Orbis-balancer_old/contracts/rewards/StakingRewards.sol\":5045:5069  lastTimeRewardApplicable */\n      tag_69\n        /* \"Orbis-balancer_old/contracts/rewards/StakingRewards.sol\":5045:5071  lastTimeRewardApplicable() */\n      jump\t// in\n    tag_211:\n        /* \"Orbis-balancer_old/contracts/rewards/StakingRewards.sol\":5028:5042  lastUpdateTime */\n      0x06\n        /* \"Orbis-balancer_old/contracts/rewards/StakingRewards.sol\":5028:5071  lastUpdateTime = lastTimeRewardApplicable() */\n      dup2\n      swap1\n      sstore\n      pop\n        /* \"Orbis-balancer_old/contracts/rewards/StakingRewards.sol\":5109:5110  0 */\n      0x00\n        /* \"Orbis-balancer_old/contracts/rewards/StakingRewards.sol\":5090:5111  account != address(0) */\n      0xffffffffffffffffffffffffffffffffffffffff\n      and\n        /* \"Orbis-balancer_old/contracts/rewards/StakingRewards.sol\":5090:5097  account */\n      dup2\n        /* \"Orbis-balancer_old/contracts/rewards/StakingRewards.sol\":5090:5111  account != address(0) */\n      0xffffffffffffffffffffffffffffffffffffffff\n      and\n      eq\n        /* \"Orbis-balancer_old/contracts/rewards/StakingRewards.sol\":5086:5255  if (account != address(0)) {\r... */\n      tag_212\n      jumpi\n        /* \"Orbis-balancer_old/contracts/rewards/StakingRewards.sol\":5151:5166  earned(account) */\n      tag_213\n        /* \"Orbis-balancer_old/contracts/rewards/StakingRewards.sol\":5158:5165  account */\n      dup2\n        /* \"Orbis-balancer_old/contracts/rewards/StakingRewards.sol\":5151:5157  earned */\n      tag_29\n        /* \"Orbis-balancer_old/contracts/rewards/StakingRewards.sol\":5151:5166  earned(account) */\n      jump\t// in\n    tag_213:\n        /* \"Orbis-balancer_old/contracts/rewards/StakingRewards.sol\":5132:5139  rewards */\n      0x09\n        /* \"Orbis-balancer_old/contracts/rewards/StakingRewards.sol\":5132:5148  rewards[account] */\n      0x00\n        /* \"Orbis-balancer_old/contracts/rewards/StakingRewards.sol\":5140:5147  account */\n      dup4\n        /* \"Orbis-balancer_old/contracts/rewards/StakingRewards.sol\":5132:5148  rewards[account] */\n      0xffffffffffffffffffffffffffffffffffffffff\n      and\n      0xffffffffffffffffffffffffffffffffffffffff\n      and\n      dup2\n      mstore\n      0x20\n      add\n      swap1\n      dup2\n      mstore\n      0x20\n      add\n      0x00\n      keccak256\n        /* \"Orbis-balancer_old/contracts/rewards/StakingRewards.sol\":5132:5166  rewards[account] = earned(account) */\n      dup2\n      swap1\n      sstore\n      pop\n        /* \"Orbis-balancer_old/contracts/rewards/StakingRewards.sol\":5219:5239  rewardPerTokenStored */\n      sload(0x07)\n        /* \"Orbis-balancer_old/contracts/rewards/StakingRewards.sol\":5185:5207  userRewardPerTokenPaid */\n      0x08\n        /* \"Orbis-balancer_old/contracts/rewards/StakingRewards.sol\":5185:5216  userRewardPerTokenPaid[account] */\n      0x00\n        /* \"Orbis-balancer_old/contracts/rewards/StakingRewards.sol\":5208:5215  account */\n      dup4\n        /* \"Orbis-balancer_old/contracts/rewards/StakingRewards.sol\":5185:5216  userRewardPerTokenPaid[account] */\n      0xffffffffffffffffffffffffffffffffffffffff\n      and\n      0xffffffffffffffffffffffffffffffffffffffff\n      and\n      dup2\n      mstore\n      0x20\n      add\n      swap1\n      dup2\n      mstore\n      0x20\n      add\n      0x00\n      keccak256\n        /* \"Orbis-balancer_old/contracts/rewards/StakingRewards.sol\":5185:5239  userRewardPerTokenPaid[account] = rewardPerTokenStored */\n      dup2\n      swap1\n      sstore\n      pop\n        /* \"Orbis-balancer_old/contracts/rewards/StakingRewards.sol\":5086:5255  if (account != address(0)) {\r... */\n    tag_212:\n        /* \"Orbis-balancer_old/contracts/rewards/StakingRewards.sol\":4942:5266  if (!unBounding) {\r... */\n    tag_209:\n        /* \"Orbis-balancer_old/contracts/rewards/StakingRewards.sol\":3172:3176  true */\n      0x01\n        /* \"Orbis-balancer_old/contracts/rewards/StakingRewards.sol\":3159:3169  unBounding */\n      0x0c\n      0x00\n        /* \"Orbis-balancer_old/contracts/rewards/StakingRewards.sol\":3159:3176  unBounding = true */\n      0x0100\n      exp\n      dup2\n      sload\n      dup2\n      0xff\n      mul\n      not\n      and\n      swap1\n      dup4\n      iszero\n      iszero\n      mul\n      or\n      swap1\n      sstore\n      pop\n        /* \"Orbis-balancer_old/contracts/rewards/StakingRewards.sol\":3225:3238  unboundPeriod */\n      dup3\n        /* \"Orbis-balancer_old/contracts/rewards/StakingRewards.sol\":3207:3222  block.timestamp */\n      timestamp\n        /* \"Orbis-balancer_old/contracts/rewards/StakingRewards.sol\":3207:3238  block.timestamp + unboundPeriod */\n      tag_215\n      swap2\n      swap1\n      tag_143\n      jump\t// in\n    tag_215:\n        /* \"Orbis-balancer_old/contracts/rewards/StakingRewards.sol\":3187:3204  durationTimestamp */\n      0x0d\n        /* \"Orbis-balancer_old/contracts/rewards/StakingRewards.sol\":3187:3238  durationTimestamp = block.timestamp + unboundPeriod */\n      dup2\n      swap1\n      sstore\n      pop\n        /* \"Orbis-balancer_old/contracts/rewards/ReentrancyGuard.sol\":905:906  _ */\n      pop\n        /* \"Orbis-balancer_old/contracts/rewards/ReentrancyGuard.sol\":941:954  _guardCounter */\n      sload(0x01)\n        /* \"Orbis-balancer_old/contracts/rewards/ReentrancyGuard.sol\":925:937  localCounter */\n      dup2\n        /* \"Orbis-balancer_old/contracts/rewards/ReentrancyGuard.sol\":925:954  localCounter == _guardCounter */\n      eq\n        /* \"Orbis-balancer_old/contracts/rewards/ReentrancyGuard.sol\":917:990  require(localCounter == _guardCounter, \"ReentrancyGuard: reentrant call\") */\n      tag_216\n      jumpi\n      mload(0x40)\n      0x08c379a000000000000000000000000000000000000000000000000000000000\n      dup2\n      mstore\n      0x04\n      add\n      tag_217\n      swap1\n      tag_155\n      jump\t// in\n    tag_217:\n      mload(0x40)\n      dup1\n      swap2\n      sub\n      swap1\n      revert\n    tag_216:\n        /* \"Orbis-balancer_old/contracts/rewards/ReentrancyGuard.sol\":818:998  {\r... */\n      pop\n        /* \"Orbis-balancer_old/contracts/rewards/StakingRewards.sol\":3048:3246  function unboundingPeriod(uint unboundPeriod) public override nonReentrant updateReward(msg.sender) {\r... */\n      pop\n      jump\t// out\n        /* \"Orbis-balancer_old/contracts/rewards/StakingRewards.sol\":714:749  uint256 public rewardPerTokenStored */\n    tag_88:\n      sload(0x07)\n      dup2\n      jump\t// out\n        /* \"Orbis-balancer_old/contracts/rewards/StakingRewards.sol\":3638:3994  function exit() external override {\r... */\n    tag_91:\n        /* \"Orbis-balancer_old/contracts/rewards/StakingRewards.sol\":3691:3701  unBounding */\n      0x0c\n      0x00\n      swap1\n      sload\n      swap1\n      0x0100\n      exp\n      swap1\n      div\n      0xff\n      and\n        /* \"Orbis-balancer_old/contracts/rewards/StakingRewards.sol\":3683:3728  require(unBounding, \"unbounding not started\") */\n      tag_219\n      jumpi\n      mload(0x40)\n      0x08c379a000000000000000000000000000000000000000000000000000000000\n      dup2\n      mstore\n      0x04\n      add\n      tag_220\n      swap1\n      tag_221\n      jump\t// in\n    tag_220:\n      mload(0x40)\n      dup1\n      swap2\n      sub\n      swap1\n      revert\n    tag_219:\n        /* \"Orbis-balancer_old/contracts/rewards/StakingRewards.sol\":3766:3783  durationTimestamp */\n      sload(0x0d)\n        /* \"Orbis-balancer_old/contracts/rewards/StakingRewards.sol\":3747:3762  block.timestamp */\n      timestamp\n        /* \"Orbis-balancer_old/contracts/rewards/StakingRewards.sol\":3747:3783  block.timestamp >= durationTimestamp */\n      lt\n      iszero\n        /* \"Orbis-balancer_old/contracts/rewards/StakingRewards.sol\":3739:3816  require(block.timestamp >= durationTimestamp, \"unbounding period isn't over\") */\n      tag_222\n      jumpi\n      mload(0x40)\n      0x08c379a000000000000000000000000000000000000000000000000000000000\n      dup2\n      mstore\n      0x04\n      add\n      tag_223\n      swap1\n      tag_224\n      jump\t// in\n    tag_223:\n      mload(0x40)\n      dup1\n      swap2\n      sub\n      swap1\n      revert\n    tag_222:\n        /* \"Orbis-balancer_old/contracts/rewards/StakingRewards.sol\":3827:3858  withdraw(_balances[msg.sender]) */\n      tag_225\n        /* \"Orbis-balancer_old/contracts/rewards/StakingRewards.sol\":3836:3845  _balances */\n      0x0b\n        /* \"Orbis-balancer_old/contracts/rewards/StakingRewards.sol\":3836:3857  _balances[msg.sender] */\n      0x00\n        /* \"Orbis-balancer_old/contracts/rewards/StakingRewards.sol\":3846:3856  msg.sender */\n      caller\n        /* \"Orbis-balancer_old/contracts/rewards/StakingRewards.sol\":3836:3857  _balances[msg.sender] */\n      0xffffffffffffffffffffffffffffffffffffffff\n      and\n      0xffffffffffffffffffffffffffffffffffffffff\n      and\n      dup2\n      mstore\n      0x20\n      add\n      swap1\n      dup2\n      mstore\n      0x20\n      add\n      0x00\n      keccak256\n      sload\n        /* \"Orbis-balancer_old/contracts/rewards/StakingRewards.sol\":3827:3835  withdraw */\n      tag_46\n        /* \"Orbis-balancer_old/contracts/rewards/StakingRewards.sol\":3827:3858  withdraw(_balances[msg.sender]) */\n      jump\t// in\n    tag_225:\n        /* \"Orbis-balancer_old/contracts/rewards/StakingRewards.sol\":3869:3927  rewardsToken.safeTransfer(msg.sender, rewards[msg.sender]) */\n      tag_226\n        /* \"Orbis-balancer_old/contracts/rewards/StakingRewards.sol\":3895:3905  msg.sender */\n      caller\n        /* \"Orbis-balancer_old/contracts/rewards/StakingRewards.sol\":3907:3914  rewards */\n      0x09\n        /* \"Orbis-balancer_old/contracts/rewards/StakingRewards.sol\":3907:3926  rewards[msg.sender] */\n      0x00\n        /* \"Orbis-balancer_old/contracts/rewards/StakingRewards.sol\":3915:3925  msg.sender */\n      caller\n        /* \"Orbis-balancer_old/contracts/rewards/StakingRewards.sol\":3907:3926  rewards[msg.sender] */\n      0xffffffffffffffffffffffffffffffffffffffff\n      and\n      0xffffffffffffffffffffffffffffffffffffffff\n      and\n      dup2\n      mstore\n      0x20\n      add\n      swap1\n      dup2\n      mstore\n      0x20\n      add\n      0x00\n      keccak256\n      sload\n        /* \"Orbis-balancer_old/contracts/rewards/StakingRewards.sol\":3869:3881  rewardsToken */\n      0x02\n      0x00\n      swap1\n      sload\n      swap1\n      0x0100\n      exp\n      swap1\n      div\n      0xffffffffffffffffffffffffffffffffffffffff\n      and\n        /* \"Orbis-balancer_old/contracts/rewards/StakingRewards.sol\":3869:3894  rewardsToken.safeTransfer */\n      0xffffffffffffffffffffffffffffffffffffffff\n      and\n      tag_151\n      swap1\n        /* \"Orbis-balancer_old/contracts/rewards/StakingRewards.sol\":3869:3927  rewardsToken.safeTransfer(msg.sender, rewards[msg.sender]) */\n      swap3\n      swap2\n      swap1\n      0xffffffff\n      and\n      jump\t// in\n    tag_226:\n        /* \"Orbis-balancer_old/contracts/rewards/StakingRewards.sol\":3954:3964  msg.sender */\n      caller\n        /* \"Orbis-balancer_old/contracts/rewards/StakingRewards.sol\":3943:3986  RewardPaid(msg.sender, rewards[msg.sender]) */\n      0xffffffffffffffffffffffffffffffffffffffff\n      and\n      0xe2403640ba68fed3a2f88b7557551d1993f84b99bb10ff833f0cf8db0c5e0486\n        /* \"Orbis-balancer_old/contracts/rewards/StakingRewards.sol\":3966:3973  rewards */\n      0x09\n        /* \"Orbis-balancer_old/contracts/rewards/StakingRewards.sol\":3966:3985  rewards[msg.sender] */\n      0x00\n        /* \"Orbis-balancer_old/contracts/rewards/StakingRewards.sol\":3974:3984  msg.sender */\n      caller\n        /* \"Orbis-balancer_old/contracts/rewards/StakingRewards.sol\":3966:3985  rewards[msg.sender] */\n      0xffffffffffffffffffffffffffffffffffffffff\n      and\n      0xffffffffffffffffffffffffffffffffffffffff\n      and\n      dup2\n      mstore\n      0x20\n      add\n      swap1\n      dup2\n      mstore\n      0x20\n      add\n      0x00\n      keccak256\n      sload\n        /* \"Orbis-balancer_old/contracts/rewards/StakingRewards.sol\":3943:3986  RewardPaid(msg.sender, rewards[msg.sender]) */\n      mload(0x40)\n      tag_227\n      swap2\n      swap1\n      tag_31\n      jump\t// in\n    tag_227:\n      mload(0x40)\n      dup1\n      swap2\n      sub\n      swap1\n      log2\n        /* \"Orbis-balancer_old/contracts/rewards/StakingRewards.sol\":3638:3994  function exit() external override {\r... */\n      jump\t// out\n        /* \"Orbis-balancer_old/contracts/rewards/StakingRewards.sol\":604:635  uint256 public periodFinish = 0 */\n    tag_93:\n      sload(0x04)\n      dup2\n      jump\t// out\n        /* \"@openzeppelin/contracts/utils/math/SafeMath.sol\":3108:3204  function sub(uint256 a, uint256 b) internal pure returns (uint256) {... */\n    tag_101:\n        /* \"@openzeppelin/contracts/utils/math/SafeMath.sol\":3166:3173  uint256 */\n      0x00\n        /* \"@openzeppelin/contracts/utils/math/SafeMath.sol\":3196:3197  b */\n      dup2\n        /* \"@openzeppelin/contracts/utils/math/SafeMath.sol\":3192:3193  a */\n      dup4\n        /* \"@openzeppelin/contracts/utils/math/SafeMath.sol\":3192:3197  a - b */\n      tag_229\n      swap2\n      swap1\n      tag_230\n      jump\t// in\n    tag_229:\n        /* \"@openzeppelin/contracts/utils/math/SafeMath.sol\":3185:3197  return a - b */\n      swap1\n      pop\n        /* \"@openzeppelin/contracts/utils/math/SafeMath.sol\":3108:3204  function sub(uint256 a, uint256 b) internal pure returns (uint256) {... */\n      swap3\n      swap2\n      pop\n      pop\n      jump\t// out\n        /* \"@openzeppelin/contracts/utils/math/SafeMath.sol\":3451:3547  function mul(uint256 a, uint256 b) internal pure returns (uint256) {... */\n    tag_102:\n        /* \"@openzeppelin/contracts/utils/math/SafeMath.sol\":3509:3516  uint256 */\n      0x00\n        /* \"@openzeppelin/contracts/utils/math/SafeMath.sol\":3539:3540  b */\n      dup2\n        /* \"@openzeppelin/contracts/utils/math/SafeMath.sol\":3535:3536  a */\n      dup4\n        /* \"@openzeppelin/contracts/utils/math/SafeMath.sol\":3535:3540  a * b */\n      tag_232\n      swap2\n      swap1\n      tag_233\n      jump\t// in\n    tag_232:\n        /* \"@openzeppelin/contracts/utils/math/SafeMath.sol\":3528:3540  return a * b */\n      swap1\n      pop\n        /* \"@openzeppelin/contracts/utils/math/SafeMath.sol\":3451:3547  function mul(uint256 a, uint256 b) internal pure returns (uint256) {... */\n      swap3\n      swap2\n      pop\n      pop\n      jump\t// out\n        /* \"@openzeppelin/contracts/utils/math/SafeMath.sol\":3836:3932  function div(uint256 a, uint256 b) internal pure returns (uint256) {... */\n    tag_103:\n        /* \"@openzeppelin/contracts/utils/math/SafeMath.sol\":3894:3901  uint256 */\n      0x00\n        /* \"@openzeppelin/contracts/utils/math/SafeMath.sol\":3924:3925  b */\n      dup2\n        /* \"@openzeppelin/contracts/utils/math/SafeMath.sol\":3920:3921  a */\n      dup4\n        /* \"@openzeppelin/contracts/utils/math/SafeMath.sol\":3920:3925  a / b */\n      tag_235\n      swap2\n      swap1\n      tag_236\n      jump\t// in\n    tag_235:\n        /* \"@openzeppelin/contracts/utils/math/SafeMath.sol\":3913:3925  return a / b */\n      swap1\n      pop\n        /* \"@openzeppelin/contracts/utils/math/SafeMath.sol\":3836:3932  function div(uint256 a, uint256 b) internal pure returns (uint256) {... */\n      swap3\n      swap2\n      pop\n      pop\n      jump\t// out\n        /* \"@openzeppelin/contracts/utils/math/SafeMath.sol\":2741:2837  function add(uint256 a, uint256 b) internal pure returns (uint256) {... */\n    tag_104:\n        /* \"@openzeppelin/contracts/utils/math/SafeMath.sol\":2799:2806  uint256 */\n      0x00\n        /* \"@openzeppelin/contracts/utils/math/SafeMath.sol\":2829:2830  b */\n      dup2\n        /* \"@openzeppelin/contracts/utils/math/SafeMath.sol\":2825:2826  a */\n      dup4\n        /* \"@openzeppelin/contracts/utils/math/SafeMath.sol\":2825:2830  a + b */\n      tag_238\n      swap2\n      swap1\n      tag_143\n      jump\t// in\n    tag_238:\n        /* \"@openzeppelin/contracts/utils/math/SafeMath.sol\":2818:2830  return a + b */\n      swap1\n      pop\n        /* \"@openzeppelin/contracts/utils/math/SafeMath.sol\":2741:2837  function add(uint256 a, uint256 b) internal pure returns (uint256) {... */\n      swap3\n      swap2\n      pop\n      pop\n      jump\t// out\n        /* \"@openzeppelin/contracts/token/ERC20/utils/SafeERC20.sol\":701:906  function safeTransfer(... */\n    tag_151:\n        /* \"@openzeppelin/contracts/token/ERC20/utils/SafeERC20.sol\":813:899  _callOptionalReturn(token, abi.encodeWithSelector(token.transfer.selector, to, value)) */\n      tag_240\n        /* \"@openzeppelin/contracts/token/ERC20/utils/SafeERC20.sol\":833:838  token */\n      dup4\n        /* \"@openzeppelin/contracts/token/ERC20/utils/SafeERC20.sol\":863:886  token.transfer.selector */\n      shl(0xe0, 0xa9059cbb)\n        /* \"@openzeppelin/contracts/token/ERC20/utils/SafeERC20.sol\":888:890  to */\n      dup5\n        /* \"@openzeppelin/contracts/token/ERC20/utils/SafeERC20.sol\":892:897  value */\n      dup5\n        /* \"@openzeppelin/contracts/token/ERC20/utils/SafeERC20.sol\":840:898  abi.encodeWithSelector(token.transfer.selector, to, value) */\n      add(0x24, mload(0x40))\n      tag_241\n      swap3\n      swap2\n      swap1\n      tag_242\n      jump\t// in\n    tag_241:\n      mload(0x40)\n      0x20\n      dup2\n      dup4\n      sub\n      sub\n      dup2\n      mstore\n      swap1\n      0x40\n      mstore\n      swap1\n      not(0xffffffffffffffffffffffffffffffffffffffffffffffffffffffff)\n      and\n      0x20\n      dup3\n      add\n      dup1\n      mload\n      0xffffffffffffffffffffffffffffffffffffffffffffffffffffffff\n      dup4\n      dup2\n      dup4\n      and\n      or\n      dup4\n      mstore\n      pop\n      pop\n      pop\n      pop\n        /* \"@openzeppelin/contracts/token/ERC20/utils/SafeERC20.sol\":813:832  _callOptionalReturn */\n      tag_243\n        /* \"@openzeppelin/contracts/token/ERC20/utils/SafeERC20.sol\":813:899  _callOptionalReturn(token, abi.encodeWithSelector(token.transfer.selector, to, value)) */\n      jump\t// in\n    tag_240:\n        /* \"@openzeppelin/contracts/token/ERC20/utils/SafeERC20.sol\":701:906  function safeTransfer(... */\n      pop\n      pop\n      pop\n      jump\t// out\n        /* \"@openzeppelin/contracts/token/ERC20/utils/SafeERC20.sol\":912:1153  function safeTransferFrom(... */\n    tag_191:\n        /* \"@openzeppelin/contracts/token/ERC20/utils/SafeERC20.sol\":1050:1146  _callOptionalReturn(token, abi.encodeWithSelector(token.transferFrom.selector, from, to, value)) */\n      tag_245\n        /* \"@openzeppelin/contracts/token/ERC20/utils/SafeERC20.sol\":1070:1075  token */\n      dup5\n        /* \"@openzeppelin/contracts/token/ERC20/utils/SafeERC20.sol\":1100:1127  token.transferFrom.selector */\n      shl(0xe0, 0x23b872dd)\n        /* \"@openzeppelin/contracts/token/ERC20/utils/SafeERC20.sol\":1129:1133  from */\n      dup6\n        /* \"@openzeppelin/contracts/token/ERC20/utils/SafeERC20.sol\":1135:1137  to */\n      dup6\n        /* \"@openzeppelin/contracts/token/ERC20/utils/SafeERC20.sol\":1139:1144  value */\n      dup6\n        /* \"@openzeppelin/contracts/token/ERC20/utils/SafeERC20.sol\":1077:1145  abi.encodeWithSelector(token.transferFrom.selector, from, to, value) */\n      add(0x24, mload(0x40))\n      tag_246\n      swap4\n      swap3\n      swap2\n      swap1\n      tag_189\n      jump\t// in\n    tag_246:\n      mload(0x40)\n      0x20\n      dup2\n      dup4\n      sub\n      sub\n      dup2\n      mstore\n      swap1\n      0x40\n      mstore\n      swap1\n      not(0xffffffffffffffffffffffffffffffffffffffffffffffffffffffff)\n      and\n      0x20\n      dup3\n      add\n      dup1\n      mload\n      0xffffffffffffffffffffffffffffffffffffffffffffffffffffffff\n      dup4\n      dup2\n      dup4\n      and\n      or\n      dup4\n      mstore\n      pop\n      pop\n      pop\n      pop\n        /* \"@openzeppelin/contracts/token/ERC20/utils/SafeERC20.sol\":1050:1069  _callOptionalReturn */\n      tag_243\n        /* \"@openzeppelin/contracts/token/ERC20/utils/SafeERC20.sol\":1050:1146  _callOptionalReturn(token, abi.encodeWithSelector(token.transferFrom.selector, from, to, value)) */\n      jump\t// in\n    tag_245:\n        /* \"@openzeppelin/contracts/token/ERC20/utils/SafeERC20.sol\":912:1153  function safeTransferFrom(... */\n      pop\n      pop\n      pop\n      pop\n      jump\t// out\n        /* \"@openzeppelin/contracts/utils/math/Math.sol\":461:565  function min(uint256 a, uint256 b) internal pure returns (uint256) {... */\n    tag_197:\n        /* \"@openzeppelin/contracts/utils/math/Math.sol\":519:526  uint256 */\n      0x00\n        /* \"@openzeppelin/contracts/utils/math/Math.sol\":549:550  b */\n      dup2\n        /* \"@openzeppelin/contracts/utils/math/Math.sol\":545:546  a */\n      dup4\n        /* \"@openzeppelin/contracts/utils/math/Math.sol\":545:550  a < b */\n      lt\n        /* \"@openzeppelin/contracts/utils/math/Math.sol\":545:558  a < b ? a : b */\n      tag_248\n      jumpi\n        /* \"@openzeppelin/contracts/utils/math/Math.sol\":557:558  b */\n      dup2\n        /* \"@openzeppelin/contracts/utils/math/Math.sol\":545:558  a < b ? a : b */\n      jump(tag_249)\n    tag_248:\n        /* \"@openzeppelin/contracts/utils/math/Math.sol\":553:554  a */\n      dup3\n        /* \"@openzeppelin/contracts/utils/math/Math.sol\":545:558  a < b ? a : b */\n    tag_249:\n        /* \"@openzeppelin/contracts/utils/math/Math.sol\":538:558  return a < b ? a : b */\n      swap1\n      pop\n        /* \"@openzeppelin/contracts/utils/math/Math.sol\":461:565  function min(uint256 a, uint256 b) internal pure returns (uint256) {... */\n      swap3\n      swap2\n      pop\n      pop\n      jump\t// out\n        /* \"@openzeppelin/contracts/token/ERC20/utils/SafeERC20.sol\":3207:3913  function _callOptionalReturn(IERC20 token, bytes memory data) private {... */\n    tag_243:\n        /* \"@openzeppelin/contracts/token/ERC20/utils/SafeERC20.sol\":3626:3649  bytes memory returndata */\n      0x00\n        /* \"@openzeppelin/contracts/token/ERC20/utils/SafeERC20.sol\":3652:3721  address(token).functionCall(data, \"SafeERC20: low-level call failed\") */\n      tag_251\n        /* \"@openzeppelin/contracts/token/ERC20/utils/SafeERC20.sol\":3680:3684  data */\n      dup3\n        /* \"@openzeppelin/contracts/token/ERC20/utils/SafeERC20.sol\":3652:3721  address(token).functionCall(data, \"SafeERC20: low-level call failed\") */\n      mload(0x40)\n      dup1\n      0x40\n      add\n      0x40\n      mstore\n      dup1\n      0x20\n      dup2\n      mstore\n      0x20\n      add\n      0x5361666545524332303a206c6f772d6c6576656c2063616c6c206661696c6564\n      dup2\n      mstore\n      pop\n        /* \"@openzeppelin/contracts/token/ERC20/utils/SafeERC20.sol\":3660:3665  token */\n      dup6\n        /* \"@openzeppelin/contracts/token/ERC20/utils/SafeERC20.sol\":3652:3679  address(token).functionCall */\n      0xffffffffffffffffffffffffffffffffffffffff\n      and\n      tag_252\n      swap1\n        /* \"@openzeppelin/contracts/token/ERC20/utils/SafeERC20.sol\":3652:3721  address(token).functionCall(data, \"SafeERC20: low-level call failed\") */\n      swap3\n      swap2\n      swap1\n      0xffffffff\n      and\n      jump\t// in\n    tag_251:\n        /* \"@openzeppelin/contracts/token/ERC20/utils/SafeERC20.sol\":3626:3721  bytes memory returndata = address(token).functionCall(data, \"SafeERC20: low-level call failed\") */\n      swap1\n      pop\n        /* \"@openzeppelin/contracts/token/ERC20/utils/SafeERC20.sol\":3755:3756  0 */\n      0x00\n        /* \"@openzeppelin/contracts/token/ERC20/utils/SafeERC20.sol\":3735:3745  returndata */\n      dup2\n        /* \"@openzeppelin/contracts/token/ERC20/utils/SafeERC20.sol\":3735:3752  returndata.length */\n      mload\n        /* \"@openzeppelin/contracts/token/ERC20/utils/SafeERC20.sol\":3735:3756  returndata.length > 0 */\n      gt\n        /* \"@openzeppelin/contracts/token/ERC20/utils/SafeERC20.sol\":3731:3907  if (returndata.length > 0) {... */\n      iszero\n      tag_253\n      jumpi\n        /* \"@openzeppelin/contracts/token/ERC20/utils/SafeERC20.sol\":3830:3840  returndata */\n      dup1\n        /* \"@openzeppelin/contracts/token/ERC20/utils/SafeERC20.sol\":3819:3849  abi.decode(returndata, (bool)) */\n      dup1\n      0x20\n      add\n      swap1\n      mload\n      dup2\n      add\n      swap1\n      tag_254\n      swap2\n      swap1\n      tag_255\n      jump\t// in\n    tag_254:\n        /* \"@openzeppelin/contracts/token/ERC20/utils/SafeERC20.sol\":3811:3896  require(abi.decode(returndata, (bool)), \"SafeERC20: ERC20 operation did not succeed\") */\n      tag_256\n      jumpi\n      mload(0x40)\n      0x08c379a000000000000000000000000000000000000000000000000000000000\n      dup2\n      mstore\n      0x04\n      add\n      tag_257\n      swap1\n      tag_258\n      jump\t// in\n    tag_257:\n      mload(0x40)\n      dup1\n      swap2\n      sub\n      swap1\n      revert\n    tag_256:\n        /* \"@openzeppelin/contracts/token/ERC20/utils/SafeERC20.sol\":3731:3907  if (returndata.length > 0) {... */\n    tag_253:\n        /* \"@openzeppelin/contracts/token/ERC20/utils/SafeERC20.sol\":3277:3913  {... */\n      pop\n        /* \"@openzeppelin/contracts/token/ERC20/utils/SafeERC20.sol\":3207:3913  function _callOptionalReturn(IERC20 token, bytes memory data) private {... */\n      pop\n      pop\n      jump\t// out\n        /* \"@openzeppelin/contracts/utils/Address.sol\":3861:4084  function functionCall(... */\n    tag_252:\n        /* \"@openzeppelin/contracts/utils/Address.sol\":3994:4006  bytes memory */\n      0x60\n        /* \"@openzeppelin/contracts/utils/Address.sol\":4025:4077  functionCallWithValue(target, data, 0, errorMessage) */\n      tag_260\n        /* \"@openzeppelin/contracts/utils/Address.sol\":4047:4053  target */\n      dup5\n        /* \"@openzeppelin/contracts/utils/Address.sol\":4055:4059  data */\n      dup5\n        /* \"@openzeppelin/contracts/utils/Address.sol\":4061:4062  0 */\n      0x00\n        /* \"@openzeppelin/contracts/utils/Address.sol\":4064:4076  errorMessage */\n      dup6\n        /* \"@openzeppelin/contracts/utils/Address.sol\":4025:4046  functionCallWithValue */\n      tag_261\n        /* \"@openzeppelin/contracts/utils/Address.sol\":4025:4077  functionCallWithValue(target, data, 0, errorMessage) */\n      jump\t// in\n    tag_260:\n        /* \"@openzeppelin/contracts/utils/Address.sol\":4018:4077  return functionCallWithValue(target, data, 0, errorMessage) */\n      swap1\n      pop\n        /* \"@openzeppelin/contracts/utils/Address.sol\":3861:4084  function functionCall(... */\n      swap4\n      swap3\n      pop\n      pop\n      pop\n      jump\t// out\n        /* \"@openzeppelin/contracts/utils/Address.sol\":4948:5447  function functionCallWithValue(... */\n    tag_261:\n        /* \"@openzeppelin/contracts/utils/Address.sol\":5113:5125  bytes memory */\n      0x60\n        /* \"@openzeppelin/contracts/utils/Address.sol\":5170:5175  value */\n      dup3\n        /* \"@openzeppelin/contracts/utils/Address.sol\":5145:5166  address(this).balance */\n      selfbalance\n        /* \"@openzeppelin/contracts/utils/Address.sol\":5145:5175  address(this).balance >= value */\n      lt\n      iszero\n        /* \"@openzeppelin/contracts/utils/Address.sol\":5137:5218  require(address(this).balance >= value, \"Address: insufficient balance for call\") */\n      tag_263\n      jumpi\n      mload(0x40)\n      0x08c379a000000000000000000000000000000000000000000000000000000000\n      dup2\n      mstore\n      0x04\n      add\n      tag_264\n      swap1\n      tag_265\n      jump\t// in\n    tag_264:\n      mload(0x40)\n      dup1\n      swap2\n      sub\n      swap1\n      revert\n    tag_263:\n        /* \"@openzeppelin/contracts/utils/Address.sol\":5236:5254  isContract(target) */\n      tag_266\n        /* \"@openzeppelin/contracts/utils/Address.sol\":5247:5253  target */\n      dup6\n        /* \"@openzeppelin/contracts/utils/Address.sol\":5236:5246  isContract */\n      tag_267\n        /* \"@openzeppelin/contracts/utils/Address.sol\":5236:5254  isContract(target) */\n      jump\t// in\n    tag_266:\n        /* \"@openzeppelin/contracts/utils/Address.sol\":5228:5288  require(isContract(target), \"Address: call to non-contract\") */\n      tag_268\n      jumpi\n      mload(0x40)\n      0x08c379a000000000000000000000000000000000000000000000000000000000\n      dup2\n      mstore\n      0x04\n      add\n      tag_269\n      swap1\n      tag_270\n      jump\t// in\n    tag_269:\n      mload(0x40)\n      dup1\n      swap2\n      sub\n      swap1\n      revert\n    tag_268:\n        /* \"@openzeppelin/contracts/utils/Address.sol\":5300:5312  bool success */\n      0x00\n        /* \"@openzeppelin/contracts/utils/Address.sol\":5314:5337  bytes memory returndata */\n      dup1\n        /* \"@openzeppelin/contracts/utils/Address.sol\":5341:5347  target */\n      dup7\n        /* \"@openzeppelin/contracts/utils/Address.sol\":5341:5352  target.call */\n      0xffffffffffffffffffffffffffffffffffffffff\n      and\n        /* \"@openzeppelin/contracts/utils/Address.sol\":5360:5365  value */\n      dup6\n        /* \"@openzeppelin/contracts/utils/Address.sol\":5367:5371  data */\n      dup8\n        /* \"@openzeppelin/contracts/utils/Address.sol\":5341:5372  target.call{value: value}(data) */\n      mload(0x40)\n      tag_271\n      swap2\n      swap1\n      tag_272\n      jump\t// in\n    tag_271:\n      0x00\n      mload(0x40)\n      dup1\n      dup4\n      sub\n      dup2\n      dup6\n      dup8\n      gas\n      call\n      swap3\n      pop\n      pop\n      pop\n      returndatasize\n      dup1\n      0x00\n      dup2\n      eq\n      tag_275\n      jumpi\n      mload(0x40)\n      swap2\n      pop\n      and(add(returndatasize, 0x3f), not(0x1f))\n      dup3\n      add\n      0x40\n      mstore\n      returndatasize\n      dup3\n      mstore\n      returndatasize\n      0x00\n      0x20\n      dup5\n      add\n      returndatacopy\n      jump(tag_274)\n    tag_275:\n      0x60\n      swap2\n      pop\n    tag_274:\n      pop\n        /* \"@openzeppelin/contracts/utils/Address.sol\":5299:5372  (bool success, bytes memory returndata) = target.call{value: value}(data) */\n      swap2\n      pop\n      swap2\n      pop\n        /* \"@openzeppelin/contracts/utils/Address.sol\":5389:5440  verifyCallResult(success, returndata, errorMessage) */\n      tag_276\n        /* \"@openzeppelin/contracts/utils/Address.sol\":5406:5413  success */\n      dup3\n        /* \"@openzeppelin/contracts/utils/Address.sol\":5415:5425  returndata */\n      dup3\n        /* \"@openzeppelin/contracts/utils/Address.sol\":5427:5439  errorMessage */\n      dup7\n        /* \"@openzeppelin/contracts/utils/Address.sol\":5389:5405  verifyCallResult */\n      tag_277\n        /* \"@openzeppelin/contracts/utils/Address.sol\":5389:5440  verifyCallResult(success, returndata, errorMessage) */\n      jump\t// in\n    tag_276:\n        /* \"@openzeppelin/contracts/utils/Address.sol\":5382:5440  return verifyCallResult(success, returndata, errorMessage) */\n      swap3\n      pop\n      pop\n      pop\n        /* \"@openzeppelin/contracts/utils/Address.sol\":4948:5447  function functionCallWithValue(... */\n      swap5\n      swap4\n      pop\n      pop\n      pop\n      pop\n      jump\t// out\n        /* \"@openzeppelin/contracts/utils/Address.sol\":1175:1495  function isContract(address account) internal view returns (bool) {... */\n    tag_267:\n        /* \"@openzeppelin/contracts/utils/Address.sol\":1235:1239  bool */\n      0x00\n        /* \"@openzeppelin/contracts/utils/Address.sol\":1487:1488  0 */\n      dup1\n        /* \"@openzeppelin/contracts/utils/Address.sol\":1465:1472  account */\n      dup3\n        /* \"@openzeppelin/contracts/utils/Address.sol\":1465:1484  account.code.length */\n      0xffffffffffffffffffffffffffffffffffffffff\n      and\n      extcodesize\n        /* \"@openzeppelin/contracts/utils/Address.sol\":1465:1488  account.code.length > 0 */\n      gt\n        /* \"@openzeppelin/contracts/utils/Address.sol\":1458:1488  return account.code.length > 0 */\n      swap1\n      pop\n        /* \"@openzeppelin/contracts/utils/Address.sol\":1175:1495  function isContract(address account) internal view returns (bool) {... */\n      swap2\n      swap1\n      pop\n      jump\t// out\n        /* \"@openzeppelin/contracts/utils/Address.sol\":7561:8253  function verifyCallResult(... */\n    tag_277:\n        /* \"@openzeppelin/contracts/utils/Address.sol\":7707:7719  bytes memory */\n      0x60\n        /* \"@openzeppelin/contracts/utils/Address.sol\":7735:7742  success */\n      dup4\n        /* \"@openzeppelin/contracts/utils/Address.sol\":7731:8247  if (success) {... */\n      iszero\n      tag_280\n      jumpi\n        /* \"@openzeppelin/contracts/utils/Address.sol\":7765:7775  returndata */\n      dup3\n        /* \"@openzeppelin/contracts/utils/Address.sol\":7758:7775  return returndata */\n      swap1\n      pop\n      jump(tag_279)\n        /* \"@openzeppelin/contracts/utils/Address.sol\":7731:8247  if (success) {... */\n    tag_280:\n        /* \"@openzeppelin/contracts/utils/Address.sol\":7896:7897  0 */\n      0x00\n        /* \"@openzeppelin/contracts/utils/Address.sol\":7876:7886  returndata */\n      dup4\n        /* \"@openzeppelin/contracts/utils/Address.sol\":7876:7893  returndata.length */\n      mload\n        /* \"@openzeppelin/contracts/utils/Address.sol\":7876:7897  returndata.length > 0 */\n      gt\n        /* \"@openzeppelin/contracts/utils/Address.sol\":7872:8237  if (returndata.length > 0) {... */\n      iszero\n      tag_282\n      jumpi\n        /* \"@openzeppelin/contracts/utils/Address.sol\":8070:8080  returndata */\n      dup3\n        /* \"@openzeppelin/contracts/utils/Address.sol\":8064:8081  mload(returndata) */\n      mload\n        /* \"@openzeppelin/contracts/utils/Address.sol\":8130:8145  returndata_size */\n      dup1\n        /* \"@openzeppelin/contracts/utils/Address.sol\":8117:8127  returndata */\n      dup5\n        /* \"@openzeppelin/contracts/utils/Address.sol\":8113:8115  32 */\n      0x20\n        /* \"@openzeppelin/contracts/utils/Address.sol\":8109:8128  add(32, returndata) */\n      add\n        /* \"@openzeppelin/contracts/utils/Address.sol\":8102:8146  revert(add(32, returndata), returndata_size) */\n      revert\n        /* \"@openzeppelin/contracts/utils/Address.sol\":7872:8237  if (returndata.length > 0) {... */\n    tag_282:\n        /* \"@openzeppelin/contracts/utils/Address.sol\":8209:8221  errorMessage */\n      dup2\n        /* \"@openzeppelin/contracts/utils/Address.sol\":8202:8222  revert(errorMessage) */\n      mload(0x40)\n      0x08c379a000000000000000000000000000000000000000000000000000000000\n      dup2\n      mstore\n      0x04\n      add\n      tag_284\n      swap2\n      swap1\n      tag_285\n      jump\t// in\n    tag_284:\n      mload(0x40)\n      dup1\n      swap2\n      sub\n      swap1\n      revert\n        /* \"@openzeppelin/contracts/utils/Address.sol\":7561:8253  function verifyCallResult(... */\n    tag_279:\n      swap4\n      swap3\n      pop\n      pop\n      pop\n      jump\t// out\n        /* \"#utility.yul\":7:146   */\n    tag_287:\n        /* \"#utility.yul\":53:58   */\n      0x00\n        /* \"#utility.yul\":91:97   */\n      dup2\n        /* \"#utility.yul\":78:98   */\n      calldataload\n        /* \"#utility.yul\":69:98   */\n      swap1\n      pop\n        /* \"#utility.yul\":107:140   */\n      tag_289\n        /* \"#utility.yul\":134:139   */\n      dup2\n        /* \"#utility.yul\":107:140   */\n      tag_290\n      jump\t// in\n    tag_289:\n        /* \"#utility.yul\":7:146   */\n      swap3\n      swap2\n      pop\n      pop\n      jump\t// out\n        /* \"#utility.yul\":152:289   */\n    tag_291:\n        /* \"#utility.yul\":206:211   */\n      0x00\n        /* \"#utility.yul\":237:243   */\n      dup2\n        /* \"#utility.yul\":231:244   */\n      mload\n        /* \"#utility.yul\":222:244   */\n      swap1\n      pop\n        /* \"#utility.yul\":253:283   */\n      tag_293\n        /* \"#utility.yul\":277:282   */\n      dup2\n        /* \"#utility.yul\":253:283   */\n      tag_294\n      jump\t// in\n    tag_293:\n        /* \"#utility.yul\":152:289   */\n      swap3\n      swap2\n      pop\n      pop\n      jump\t// out\n        /* \"#utility.yul\":295:434   */\n    tag_295:\n        /* \"#utility.yul\":341:346   */\n      0x00\n        /* \"#utility.yul\":379:385   */\n      dup2\n        /* \"#utility.yul\":366:386   */\n      calldataload\n        /* \"#utility.yul\":357:386   */\n      swap1\n      pop\n        /* \"#utility.yul\":395:428   */\n      tag_297\n        /* \"#utility.yul\":422:427   */\n      dup2\n        /* \"#utility.yul\":395:428   */\n      tag_298\n      jump\t// in\n    tag_297:\n        /* \"#utility.yul\":295:434   */\n      swap3\n      swap2\n      pop\n      pop\n      jump\t// out\n        /* \"#utility.yul\":440:583   */\n    tag_299:\n        /* \"#utility.yul\":497:502   */\n      0x00\n        /* \"#utility.yul\":528:534   */\n      dup2\n        /* \"#utility.yul\":522:535   */\n      mload\n        /* \"#utility.yul\":513:535   */\n      swap1\n      pop\n        /* \"#utility.yul\":544:577   */\n      tag_301\n        /* \"#utility.yul\":571:576   */\n      dup2\n        /* \"#utility.yul\":544:577   */\n      tag_298\n      jump\t// in\n    tag_301:\n        /* \"#utility.yul\":440:583   */\n      swap3\n      swap2\n      pop\n      pop\n      jump\t// out\n        /* \"#utility.yul\":589:918   */\n    tag_28:\n        /* \"#utility.yul\":648:654   */\n      0x00\n        /* \"#utility.yul\":697:699   */\n      0x20\n        /* \"#utility.yul\":685:694   */\n      dup3\n        /* \"#utility.yul\":676:683   */\n      dup5\n        /* \"#utility.yul\":672:695   */\n      sub\n        /* \"#utility.yul\":668:700   */\n      slt\n        /* \"#utility.yul\":665:784   */\n      iszero\n      tag_303\n      jumpi\n        /* \"#utility.yul\":703:782   */\n      tag_304\n      tag_305\n      jump\t// in\n    tag_304:\n        /* \"#utility.yul\":665:784   */\n    tag_303:\n        /* \"#utility.yul\":823:824   */\n      0x00\n        /* \"#utility.yul\":848:901   */\n      tag_306\n        /* \"#utility.yul\":893:900   */\n      dup5\n        /* \"#utility.yul\":884:890   */\n      dup3\n        /* \"#utility.yul\":873:882   */\n      dup6\n        /* \"#utility.yul\":869:891   */\n      add\n        /* \"#utility.yul\":848:901   */\n      tag_287\n      jump\t// in\n    tag_306:\n        /* \"#utility.yul\":838:901   */\n      swap2\n      pop\n        /* \"#utility.yul\":794:911   */\n      pop\n        /* \"#utility.yul\":589:918   */\n      swap3\n      swap2\n      pop\n      pop\n      jump\t// out\n        /* \"#utility.yul\":924:1269   */\n    tag_255:\n        /* \"#utility.yul\":991:997   */\n      0x00\n        /* \"#utility.yul\":1040:1042   */\n      0x20\n        /* \"#utility.yul\":1028:1037   */\n      dup3\n        /* \"#utility.yul\":1019:1026   */\n      dup5\n        /* \"#utility.yul\":1015:1038   */\n      sub\n        /* \"#utility.yul\":1011:1043   */\n      slt\n        /* \"#utility.yul\":1008:1127   */\n      iszero\n      tag_308\n      jumpi\n        /* \"#utility.yul\":1046:1125   */\n      tag_309\n      tag_305\n      jump\t// in\n    tag_309:\n        /* \"#utility.yul\":1008:1127   */\n    tag_308:\n        /* \"#utility.yul\":1166:1167   */\n      0x00\n        /* \"#utility.yul\":1191:1252   */\n      tag_310\n        /* \"#utility.yul\":1244:1251   */\n      dup5\n        /* \"#utility.yul\":1235:1241   */\n      dup3\n        /* \"#utility.yul\":1224:1233   */\n      dup6\n        /* \"#utility.yul\":1220:1242   */\n      add\n        /* \"#utility.yul\":1191:1252   */\n      tag_291\n      jump\t// in\n    tag_310:\n        /* \"#utility.yul\":1181:1252   */\n      swap2\n      pop\n        /* \"#utility.yul\":1137:1262   */\n      pop\n        /* \"#utility.yul\":924:1269   */\n      swap3\n      swap2\n      pop\n      pop\n      jump\t// out\n        /* \"#utility.yul\":1275:1604   */\n    tag_45:\n        /* \"#utility.yul\":1334:1340   */\n      0x00\n        /* \"#utility.yul\":1383:1385   */\n      0x20\n        /* \"#utility.yul\":1371:1380   */\n      dup3\n        /* \"#utility.yul\":1362:1369   */\n      dup5\n        /* \"#utility.yul\":1358:1381   */\n      sub\n        /* \"#utility.yul\":1354:1386   */\n      slt\n        /* \"#utility.yul\":1351:1470   */\n      iszero\n      tag_312\n      jumpi\n        /* \"#utility.yul\":1389:1468   */\n      tag_313\n      tag_305\n      jump\t// in\n    tag_313:\n        /* \"#utility.yul\":1351:1470   */\n    tag_312:\n        /* \"#utility.yul\":1509:1510   */\n      0x00\n        /* \"#utility.yul\":1534:1587   */\n      tag_314\n        /* \"#utility.yul\":1579:1586   */\n      dup5\n        /* \"#utility.yul\":1570:1576   */\n      dup3\n        /* \"#utility.yul\":1559:1568   */\n      dup6\n        /* \"#utility.yul\":1555:1577   */\n      add\n        /* \"#utility.yul\":1534:1587   */\n      tag_295\n      jump\t// in\n    tag_314:\n        /* \"#utility.yul\":1524:1587   */\n      swap2\n      pop\n        /* \"#utility.yul\":1480:1597   */\n      pop\n        /* \"#utility.yul\":1275:1604   */\n      swap3\n      swap2\n      pop\n      pop\n      jump\t// out\n        /* \"#utility.yul\":1610:1961   */\n    tag_133:\n        /* \"#utility.yul\":1680:1686   */\n      0x00\n        /* \"#utility.yul\":1729:1731   */\n      0x20\n        /* \"#utility.yul\":1717:1726   */\n      dup3\n        /* \"#utility.yul\":1708:1715   */\n      dup5\n        /* \"#utility.yul\":1704:1727   */\n      sub\n        /* \"#utility.yul\":1700:1732   */\n      slt\n        /* \"#utility.yul\":1697:1816   */\n      iszero\n      tag_316\n      jumpi\n        /* \"#utility.yul\":1735:1814   */\n      tag_317\n      tag_305\n      jump\t// in\n    tag_317:\n        /* \"#utility.yul\":1697:1816   */\n    tag_316:\n        /* \"#utility.yul\":1855:1856   */\n      0x00\n        /* \"#utility.yul\":1880:1944   */\n      tag_318\n        /* \"#utility.yul\":1936:1943   */\n      dup5\n        /* \"#utility.yul\":1927:1933   */\n      dup3\n        /* \"#utility.yul\":1916:1925   */\n      dup6\n        /* \"#utility.yul\":1912:1934   */\n      add\n        /* \"#utility.yul\":1880:1944   */\n      tag_299\n      jump\t// in\n    tag_318:\n        /* \"#utility.yul\":1870:1944   */\n      swap2\n      pop\n        /* \"#utility.yul\":1826:1954   */\n      pop\n        /* \"#utility.yul\":1610:1961   */\n      swap3\n      swap2\n      pop\n      pop\n      jump\t// out\n        /* \"#utility.yul\":1967:2441   */\n    tag_63:\n        /* \"#utility.yul\":2035:2041   */\n      0x00\n        /* \"#utility.yul\":2043:2049   */\n      dup1\n        /* \"#utility.yul\":2092:2094   */\n      0x40\n        /* \"#utility.yul\":2080:2089   */\n      dup4\n        /* \"#utility.yul\":2071:2078   */\n      dup6\n        /* \"#utility.yul\":2067:2090   */\n      sub\n        /* \"#utility.yul\":2063:2095   */\n      slt\n        /* \"#utility.yul\":2060:2179   */\n      iszero\n      tag_320\n      jumpi\n        /* \"#utility.yul\":2098:2177   */\n      tag_321\n      tag_305\n      jump\t// in\n    tag_321:\n        /* \"#utility.yul\":2060:2179   */\n    tag_320:\n        /* \"#utility.yul\":2218:2219   */\n      0x00\n        /* \"#utility.yul\":2243:2296   */\n      tag_322\n        /* \"#utility.yul\":2288:2295   */\n      dup6\n        /* \"#utility.yul\":2279:2285   */\n      dup3\n        /* \"#utility.yul\":2268:2277   */\n      dup7\n        /* \"#utility.yul\":2264:2286   */\n      add\n        /* \"#utility.yul\":2243:2296   */\n      tag_295\n      jump\t// in\n    tag_322:\n        /* \"#utility.yul\":2233:2296   */\n      swap3\n      pop\n        /* \"#utility.yul\":2189:2306   */\n      pop\n        /* \"#utility.yul\":2345:2347   */\n      0x20\n        /* \"#utility.yul\":2371:2424   */\n      tag_323\n        /* \"#utility.yul\":2416:2423   */\n      dup6\n        /* \"#utility.yul\":2407:2413   */\n      dup3\n        /* \"#utility.yul\":2396:2405   */\n      dup7\n        /* \"#utility.yul\":2392:2414   */\n      add\n        /* \"#utility.yul\":2371:2424   */\n      tag_287\n      jump\t// in\n    tag_323:\n        /* \"#utility.yul\":2361:2424   */\n      swap2\n      pop\n        /* \"#utility.yul\":2316:2434   */\n      pop\n        /* \"#utility.yul\":1967:2441   */\n      swap3\n      pop\n      swap3\n      swap1\n      pop\n      jump\t// out\n        /* \"#utility.yul\":2447:2921   */\n    tag_41:\n        /* \"#utility.yul\":2515:2521   */\n      0x00\n        /* \"#utility.yul\":2523:2529   */\n      dup1\n        /* \"#utility.yul\":2572:2574   */\n      0x40\n        /* \"#utility.yul\":2560:2569   */\n      dup4\n        /* \"#utility.yul\":2551:2558   */\n      dup6\n        /* \"#utility.yul\":2547:2570   */\n      sub\n        /* \"#utility.yul\":2543:2575   */\n      slt\n        /* \"#utility.yul\":2540:2659   */\n      iszero\n      tag_325\n      jumpi\n        /* \"#utility.yul\":2578:2657   */\n      tag_326\n      tag_305\n      jump\t// in\n    tag_326:\n        /* \"#utility.yul\":2540:2659   */\n    tag_325:\n        /* \"#utility.yul\":2698:2699   */\n      0x00\n        /* \"#utility.yul\":2723:2776   */\n      tag_327\n        /* \"#utility.yul\":2768:2775   */\n      dup6\n        /* \"#utility.yul\":2759:2765   */\n      dup3\n        /* \"#utility.yul\":2748:2757   */\n      dup7\n        /* \"#utility.yul\":2744:2766   */\n      add\n        /* \"#utility.yul\":2723:2776   */\n      tag_295\n      jump\t// in\n    tag_327:\n        /* \"#utility.yul\":2713:2776   */\n      swap3\n      pop\n        /* \"#utility.yul\":2669:2786   */\n      pop\n        /* \"#utility.yul\":2825:2827   */\n      0x20\n        /* \"#utility.yul\":2851:2904   */\n      tag_328\n        /* \"#utility.yul\":2896:2903   */\n      dup6\n        /* \"#utility.yul\":2887:2893   */\n      dup3\n        /* \"#utility.yul\":2876:2885   */\n      dup7\n        /* \"#utility.yul\":2872:2894   */\n      add\n        /* \"#utility.yul\":2851:2904   */\n      tag_295\n      jump\t// in\n    tag_328:\n        /* \"#utility.yul\":2841:2904   */\n      swap2\n      pop\n        /* \"#utility.yul\":2796:2914   */\n      pop\n        /* \"#utility.yul\":2447:2921   */\n      swap3\n      pop\n      swap3\n      swap1\n      pop\n      jump\t// out\n        /* \"#utility.yul\":2927:3045   */\n    tag_329:\n        /* \"#utility.yul\":3014:3038   */\n      tag_331\n        /* \"#utility.yul\":3032:3037   */\n      dup2\n        /* \"#utility.yul\":3014:3038   */\n      tag_332\n      jump\t// in\n    tag_331:\n        /* \"#utility.yul\":3009:3012   */\n      dup3\n        /* \"#utility.yul\":3002:3039   */\n      mstore\n        /* \"#utility.yul\":2927:3045   */\n      pop\n      pop\n      jump\t// out\n        /* \"#utility.yul\":3051:3424   */\n    tag_333:\n        /* \"#utility.yul\":3155:3158   */\n      0x00\n        /* \"#utility.yul\":3183:3221   */\n      tag_335\n        /* \"#utility.yul\":3215:3220   */\n      dup3\n        /* \"#utility.yul\":3183:3221   */\n      tag_336\n      jump\t// in\n    tag_335:\n        /* \"#utility.yul\":3237:3325   */\n      tag_337\n        /* \"#utility.yul\":3318:3324   */\n      dup2\n        /* \"#utility.yul\":3313:3316   */\n      dup6\n        /* \"#utility.yul\":3237:3325   */\n      tag_338\n      jump\t// in\n    tag_337:\n        /* \"#utility.yul\":3230:3325   */\n      swap4\n      pop\n        /* \"#utility.yul\":3334:3386   */\n      tag_339\n        /* \"#utility.yul\":3379:3385   */\n      dup2\n        /* \"#utility.yul\":3374:3377   */\n      dup6\n        /* \"#utility.yul\":3367:3371   */\n      0x20\n        /* \"#utility.yul\":3360:3365   */\n      dup7\n        /* \"#utility.yul\":3356:3372   */\n      add\n        /* \"#utility.yul\":3334:3386   */\n      tag_340\n      jump\t// in\n    tag_339:\n        /* \"#utility.yul\":3411:3417   */\n      dup1\n        /* \"#utility.yul\":3406:3409   */\n      dup5\n        /* \"#utility.yul\":3402:3418   */\n      add\n        /* \"#utility.yul\":3395:3418   */\n      swap2\n      pop\n        /* \"#utility.yul\":3159:3424   */\n      pop\n        /* \"#utility.yul\":3051:3424   */\n      swap3\n      swap2\n      pop\n      pop\n      jump\t// out\n        /* \"#utility.yul\":3430:3587   */\n    tag_341:\n        /* \"#utility.yul\":3530:3580   */\n      tag_343\n        /* \"#utility.yul\":3574:3579   */\n      dup2\n        /* \"#utility.yul\":3530:3580   */\n      tag_344\n      jump\t// in\n    tag_343:\n        /* \"#utility.yul\":3525:3528   */\n      dup3\n        /* \"#utility.yul\":3518:3581   */\n      mstore\n        /* \"#utility.yul\":3430:3587   */\n      pop\n      pop\n      jump\t// out\n        /* \"#utility.yul\":3593:3957   */\n    tag_345:\n        /* \"#utility.yul\":3681:3684   */\n      0x00\n        /* \"#utility.yul\":3709:3748   */\n      tag_347\n        /* \"#utility.yul\":3742:3747   */\n      dup3\n        /* \"#utility.yul\":3709:3748   */\n      tag_348\n      jump\t// in\n    tag_347:\n        /* \"#utility.yul\":3764:3835   */\n      tag_349\n        /* \"#utility.yul\":3828:3834   */\n      dup2\n        /* \"#utility.yul\":3823:3826   */\n      dup6\n        /* \"#utility.yul\":3764:3835   */\n      tag_350\n      jump\t// in\n    tag_349:\n        /* \"#utility.yul\":3757:3835   */\n      swap4\n      pop\n        /* \"#utility.yul\":3844:3896   */\n      tag_351\n        /* \"#utility.yul\":3889:3895   */\n      dup2\n        /* \"#utility.yul\":3884:3887   */\n      dup6\n        /* \"#utility.yul\":3877:3881   */\n      0x20\n        /* \"#utility.yul\":3870:3875   */\n      dup7\n        /* \"#utility.yul\":3866:3882   */\n      add\n        /* \"#utility.yul\":3844:3896   */\n      tag_340\n      jump\t// in\n    tag_351:\n        /* \"#utility.yul\":3921:3950   */\n      tag_352\n        /* \"#utility.yul\":3943:3949   */\n      dup2\n        /* \"#utility.yul\":3921:3950   */\n      tag_353\n      jump\t// in\n    tag_352:\n        /* \"#utility.yul\":3916:3919   */\n      dup5\n        /* \"#utility.yul\":3912:3951   */\n      add\n        /* \"#utility.yul\":3905:3951   */\n      swap2\n      pop\n        /* \"#utility.yul\":3685:3957   */\n      pop\n        /* \"#utility.yul\":3593:3957   */\n      swap3\n      swap2\n      pop\n      pop\n      jump\t// out\n        /* \"#utility.yul\":3963:4329   */\n    tag_354:\n        /* \"#utility.yul\":4105:4108   */\n      0x00\n        /* \"#utility.yul\":4126:4193   */\n      tag_356\n        /* \"#utility.yul\":4190:4192   */\n      0x19\n        /* \"#utility.yul\":4185:4188   */\n      dup4\n        /* \"#utility.yul\":4126:4193   */\n      tag_350\n      jump\t// in\n    tag_356:\n        /* \"#utility.yul\":4119:4193   */\n      swap2\n      pop\n        /* \"#utility.yul\":4202:4295   */\n      tag_357\n        /* \"#utility.yul\":4291:4294   */\n      dup3\n        /* \"#utility.yul\":4202:4295   */\n      tag_358\n      jump\t// in\n    tag_357:\n        /* \"#utility.yul\":4320:4322   */\n      0x20\n        /* \"#utility.yul\":4315:4318   */\n      dup3\n        /* \"#utility.yul\":4311:4323   */\n      add\n        /* \"#utility.yul\":4304:4323   */\n      swap1\n      pop\n        /* \"#utility.yul\":3963:4329   */\n      swap2\n      swap1\n      pop\n      jump\t// out\n        /* \"#utility.yul\":4335:4701   */\n    tag_359:\n        /* \"#utility.yul\":4477:4480   */\n      0x00\n        /* \"#utility.yul\":4498:4565   */\n      tag_361\n        /* \"#utility.yul\":4562:4564   */\n      0x1c\n        /* \"#utility.yul\":4557:4560   */\n      dup4\n        /* \"#utility.yul\":4498:4565   */\n      tag_350\n      jump\t// in\n    tag_361:\n        /* \"#utility.yul\":4491:4565   */\n      swap2\n      pop\n        /* \"#utility.yul\":4574:4667   */\n      tag_362\n        /* \"#utility.yul\":4663:4666   */\n      dup3\n        /* \"#utility.yul\":4574:4667   */\n      tag_363\n      jump\t// in\n    tag_362:\n        /* \"#utility.yul\":4692:4694   */\n      0x20\n        /* \"#utility.yul\":4687:4690   */\n      dup3\n        /* \"#utility.yul\":4683:4695   */\n      add\n        /* \"#utility.yul\":4676:4695   */\n      swap1\n      pop\n        /* \"#utility.yul\":4335:4701   */\n      swap2\n      swap1\n      pop\n      jump\t// out\n        /* \"#utility.yul\":4707:5073   */\n    tag_364:\n        /* \"#utility.yul\":4849:4852   */\n      0x00\n        /* \"#utility.yul\":4870:4937   */\n      tag_366\n        /* \"#utility.yul\":4934:4936   */\n      0x0e\n        /* \"#utility.yul\":4929:4932   */\n      dup4\n        /* \"#utility.yul\":4870:4937   */\n      tag_350\n      jump\t// in\n    tag_366:\n        /* \"#utility.yul\":4863:4937   */\n      swap2\n      pop\n        /* \"#utility.yul\":4946:5039   */\n      tag_367\n        /* \"#utility.yul\":5035:5038   */\n      dup3\n        /* \"#utility.yul\":4946:5039   */\n      tag_368\n      jump\t// in\n    tag_367:\n        /* \"#utility.yul\":5064:5066   */\n      0x20\n        /* \"#utility.yul\":5059:5062   */\n      dup3\n        /* \"#utility.yul\":5055:5067   */\n      add\n        /* \"#utility.yul\":5048:5067   */\n      swap1\n      pop\n        /* \"#utility.yul\":4707:5073   */\n      swap2\n      swap1\n      pop\n      jump\t// out\n        /* \"#utility.yul\":5079:5445   */\n    tag_369:\n        /* \"#utility.yul\":5221:5224   */\n      0x00\n        /* \"#utility.yul\":5242:5309   */\n      tag_371\n        /* \"#utility.yul\":5306:5308   */\n      0x26\n        /* \"#utility.yul\":5301:5304   */\n      dup4\n        /* \"#utility.yul\":5242:5309   */\n      tag_350\n      jump\t// in\n    tag_371:\n        /* \"#utility.yul\":5235:5309   */\n      swap2\n      pop\n        /* \"#utility.yul\":5318:5411   */\n      tag_372\n        /* \"#utility.yul\":5407:5410   */\n      dup3\n        /* \"#utility.yul\":5318:5411   */\n      tag_373\n      jump\t// in\n    tag_372:\n        /* \"#utility.yul\":5436:5438   */\n      0x40\n        /* \"#utility.yul\":5431:5434   */\n      dup3\n        /* \"#utility.yul\":5427:5439   */\n      add\n        /* \"#utility.yul\":5420:5439   */\n      swap1\n      pop\n        /* \"#utility.yul\":5079:5445   */\n      swap2\n      swap1\n      pop\n      jump\t// out\n        /* \"#utility.yul\":5451:5817   */\n    tag_374:\n        /* \"#utility.yul\":5593:5596   */\n      0x00\n        /* \"#utility.yul\":5614:5681   */\n      tag_376\n        /* \"#utility.yul\":5678:5680   */\n      0x16\n        /* \"#utility.yul\":5673:5676   */\n      dup4\n        /* \"#utility.yul\":5614:5681   */\n      tag_350\n      jump\t// in\n    tag_376:\n        /* \"#utility.yul\":5607:5681   */\n      swap2\n      pop\n        /* \"#utility.yul\":5690:5783   */\n      tag_377\n        /* \"#utility.yul\":5779:5782   */\n      dup3\n        /* \"#utility.yul\":5690:5783   */\n      tag_378\n      jump\t// in\n    tag_377:\n        /* \"#utility.yul\":5808:5810   */\n      0x20\n        /* \"#utility.yul\":5803:5806   */\n      dup3\n        /* \"#utility.yul\":5799:5811   */\n      add\n        /* \"#utility.yul\":5792:5811   */\n      swap1\n      pop\n        /* \"#utility.yul\":5451:5817   */\n      swap2\n      swap1\n      pop\n      jump\t// out\n        /* \"#utility.yul\":5823:6189   */\n    tag_379:\n        /* \"#utility.yul\":5965:5968   */\n      0x00\n        /* \"#utility.yul\":5986:6053   */\n      tag_381\n        /* \"#utility.yul\":6050:6052   */\n      0x1d\n        /* \"#utility.yul\":6045:6048   */\n      dup4\n        /* \"#utility.yul\":5986:6053   */\n      tag_350\n      jump\t// in\n    tag_381:\n        /* \"#utility.yul\":5979:6053   */\n      swap2\n      pop\n        /* \"#utility.yul\":6062:6155   */\n      tag_382\n        /* \"#utility.yul\":6151:6154   */\n      dup3\n        /* \"#utility.yul\":6062:6155   */\n      tag_383\n      jump\t// in\n    tag_382:\n        /* \"#utility.yul\":6180:6182   */\n      0x20\n        /* \"#utility.yul\":6175:6178   */\n      dup3\n        /* \"#utility.yul\":6171:6183   */\n      add\n        /* \"#utility.yul\":6164:6183   */\n      swap1\n      pop\n        /* \"#utility.yul\":5823:6189   */\n      swap2\n      swap1\n      pop\n      jump\t// out\n        /* \"#utility.yul\":6195:6561   */\n    tag_384:\n        /* \"#utility.yul\":6337:6340   */\n      0x00\n        /* \"#utility.yul\":6358:6425   */\n      tag_386\n        /* \"#utility.yul\":6422:6424   */\n      0x11\n        /* \"#utility.yul\":6417:6420   */\n      dup4\n        /* \"#utility.yul\":6358:6425   */\n      tag_350\n      jump\t// in\n    tag_386:\n        /* \"#utility.yul\":6351:6425   */\n      swap2\n      pop\n        /* \"#utility.yul\":6434:6527   */\n      tag_387\n        /* \"#utility.yul\":6523:6526   */\n      dup3\n        /* \"#utility.yul\":6434:6527   */\n      tag_388\n      jump\t// in\n    tag_387:\n        /* \"#utility.yul\":6552:6554   */\n      0x20\n        /* \"#utility.yul\":6547:6550   */\n      dup3\n        /* \"#utility.yul\":6543:6555   */\n      add\n        /* \"#utility.yul\":6536:6555   */\n      swap1\n      pop\n        /* \"#utility.yul\":6195:6561   */\n      swap2\n      swap1\n      pop\n      jump\t// out\n        /* \"#utility.yul\":6567:6933   */\n    tag_389:\n        /* \"#utility.yul\":6709:6712   */\n      0x00\n        /* \"#utility.yul\":6730:6797   */\n      tag_391\n        /* \"#utility.yul\":6794:6796   */\n      0x18\n        /* \"#utility.yul\":6789:6792   */\n      dup4\n        /* \"#utility.yul\":6730:6797   */\n      tag_350\n      jump\t// in\n    tag_391:\n        /* \"#utility.yul\":6723:6797   */\n      swap2\n      pop\n        /* \"#utility.yul\":6806:6899   */\n      tag_392\n        /* \"#utility.yul\":6895:6898   */\n      dup3\n        /* \"#utility.yul\":6806:6899   */\n      tag_393\n      jump\t// in\n    tag_392:\n        /* \"#utility.yul\":6924:6926   */\n      0x20\n        /* \"#utility.yul\":6919:6922   */\n      dup3\n        /* \"#utility.yul\":6915:6927   */\n      add\n        /* \"#utility.yul\":6908:6927   */\n      swap1\n      pop\n        /* \"#utility.yul\":6567:6933   */\n      swap2\n      swap1\n      pop\n      jump\t// out\n        /* \"#utility.yul\":6939:7305   */\n    tag_394:\n        /* \"#utility.yul\":7081:7084   */\n      0x00\n        /* \"#utility.yul\":7102:7169   */\n      tag_396\n        /* \"#utility.yul\":7166:7168   */\n      0x1d\n        /* \"#utility.yul\":7161:7164   */\n      dup4\n        /* \"#utility.yul\":7102:7169   */\n      tag_350\n      jump\t// in\n    tag_396:\n        /* \"#utility.yul\":7095:7169   */\n      swap2\n      pop\n        /* \"#utility.yul\":7178:7271   */\n      tag_397\n        /* \"#utility.yul\":7267:7270   */\n      dup3\n        /* \"#utility.yul\":7178:7271   */\n      tag_398\n      jump\t// in\n    tag_397:\n        /* \"#utility.yul\":7296:7298   */\n      0x20\n        /* \"#utility.yul\":7291:7294   */\n      dup3\n        /* \"#utility.yul\":7287:7299   */\n      add\n        /* \"#utility.yul\":7280:7299   */\n      swap1\n      pop\n        /* \"#utility.yul\":6939:7305   */\n      swap2\n      swap1\n      pop\n      jump\t// out\n        /* \"#utility.yul\":7311:7677   */\n    tag_399:\n        /* \"#utility.yul\":7453:7456   */\n      0x00\n        /* \"#utility.yul\":7474:7541   */\n      tag_401\n        /* \"#utility.yul\":7538:7540   */\n      0x2a\n        /* \"#utility.yul\":7533:7536   */\n      dup4\n        /* \"#utility.yul\":7474:7541   */\n      tag_350\n      jump\t// in\n    tag_401:\n        /* \"#utility.yul\":7467:7541   */\n      swap2\n      pop\n        /* \"#utility.yul\":7550:7643   */\n      tag_402\n        /* \"#utility.yul\":7639:7642   */\n      dup3\n        /* \"#utility.yul\":7550:7643   */\n      tag_403\n      jump\t// in\n    tag_402:\n        /* \"#utility.yul\":7668:7670   */\n      0x40\n        /* \"#utility.yul\":7663:7666   */\n      dup3\n        /* \"#utility.yul\":7659:7671   */\n      add\n        /* \"#utility.yul\":7652:7671   */\n      swap1\n      pop\n        /* \"#utility.yul\":7311:7677   */\n      swap2\n      swap1\n      pop\n      jump\t// out\n        /* \"#utility.yul\":7683:8049   */\n    tag_404:\n        /* \"#utility.yul\":7825:7828   */\n      0x00\n        /* \"#utility.yul\":7846:7913   */\n      tag_406\n        /* \"#utility.yul\":7910:7912   */\n      0x2a\n        /* \"#utility.yul\":7905:7908   */\n      dup4\n        /* \"#utility.yul\":7846:7913   */\n      tag_350\n      jump\t// in\n    tag_406:\n        /* \"#utility.yul\":7839:7913   */\n      swap2\n      pop\n        /* \"#utility.yul\":7922:8015   */\n      tag_407\n        /* \"#utility.yul\":8011:8014   */\n      dup3\n        /* \"#utility.yul\":7922:8015   */\n      tag_408\n      jump\t// in\n    tag_407:\n        /* \"#utility.yul\":8040:8042   */\n      0x40\n        /* \"#utility.yul\":8035:8038   */\n      dup3\n        /* \"#utility.yul\":8031:8043   */\n      add\n        /* \"#utility.yul\":8024:8043   */\n      swap1\n      pop\n        /* \"#utility.yul\":7683:8049   */\n      swap2\n      swap1\n      pop\n      jump\t// out\n        /* \"#utility.yul\":8055:8421   */\n    tag_409:\n        /* \"#utility.yul\":8197:8200   */\n      0x00\n        /* \"#utility.yul\":8218:8285   */\n      tag_411\n        /* \"#utility.yul\":8282:8284   */\n      0x1f\n        /* \"#utility.yul\":8277:8280   */\n      dup4\n        /* \"#utility.yul\":8218:8285   */\n      tag_350\n      jump\t// in\n    tag_411:\n        /* \"#utility.yul\":8211:8285   */\n      swap2\n      pop\n        /* \"#utility.yul\":8294:8387   */\n      tag_412\n        /* \"#utility.yul\":8383:8386   */\n      dup3\n        /* \"#utility.yul\":8294:8387   */\n      tag_413\n      jump\t// in\n    tag_412:\n        /* \"#utility.yul\":8412:8414   */\n      0x20\n        /* \"#utility.yul\":8407:8410   */\n      dup3\n        /* \"#utility.yul\":8403:8415   */\n      add\n        /* \"#utility.yul\":8396:8415   */\n      swap1\n      pop\n        /* \"#utility.yul\":8055:8421   */\n      swap2\n      swap1\n      pop\n      jump\t// out\n        /* \"#utility.yul\":8427:8545   */\n    tag_414:\n        /* \"#utility.yul\":8514:8538   */\n      tag_416\n        /* \"#utility.yul\":8532:8537   */\n      dup2\n        /* \"#utility.yul\":8514:8538   */\n      tag_417\n      jump\t// in\n    tag_416:\n        /* \"#utility.yul\":8509:8512   */\n      dup3\n        /* \"#utility.yul\":8502:8539   */\n      mstore\n        /* \"#utility.yul\":8427:8545   */\n      pop\n      pop\n      jump\t// out\n        /* \"#utility.yul\":8551:8822   */\n    tag_272:\n        /* \"#utility.yul\":8681:8684   */\n      0x00\n        /* \"#utility.yul\":8703:8796   */\n      tag_419\n        /* \"#utility.yul\":8792:8795   */\n      dup3\n        /* \"#utility.yul\":8783:8789   */\n      dup5\n        /* \"#utility.yul\":8703:8796   */\n      tag_333\n      jump\t// in\n    tag_419:\n        /* \"#utility.yul\":8696:8796   */\n      swap2\n      pop\n        /* \"#utility.yul\":8813:8816   */\n      dup2\n        /* \"#utility.yul\":8806:8816   */\n      swap1\n      pop\n        /* \"#utility.yul\":8551:8822   */\n      swap3\n      swap2\n      pop\n      pop\n      jump\t// out\n        /* \"#utility.yul\":8828:9050   */\n    tag_52:\n        /* \"#utility.yul\":8921:8925   */\n      0x00\n        /* \"#utility.yul\":8959:8961   */\n      0x20\n        /* \"#utility.yul\":8948:8957   */\n      dup3\n        /* \"#utility.yul\":8944:8962   */\n      add\n        /* \"#utility.yul\":8936:8962   */\n      swap1\n      pop\n        /* \"#utility.yul\":8972:9043   */\n      tag_421\n        /* \"#utility.yul\":9040:9041   */\n      0x00\n        /* \"#utility.yul\":9029:9038   */\n      dup4\n        /* \"#utility.yul\":9025:9042   */\n      add\n        /* \"#utility.yul\":9016:9022   */\n      dup5\n        /* \"#utility.yul\":8972:9043   */\n      tag_329\n      jump\t// in\n    tag_421:\n        /* \"#utility.yul\":8828:9050   */\n      swap3\n      swap2\n      pop\n      pop\n      jump\t// out\n        /* \"#utility.yul\":9056:9498   */\n    tag_189:\n        /* \"#utility.yul\":9205:9209   */\n      0x00\n        /* \"#utility.yul\":9243:9245   */\n      0x60\n        /* \"#utility.yul\":9232:9241   */\n      dup3\n        /* \"#utility.yul\":9228:9246   */\n      add\n        /* \"#utility.yul\":9220:9246   */\n      swap1\n      pop\n        /* \"#utility.yul\":9256:9327   */\n      tag_423\n        /* \"#utility.yul\":9324:9325   */\n      0x00\n        /* \"#utility.yul\":9313:9322   */\n      dup4\n        /* \"#utility.yul\":9309:9326   */\n      add\n        /* \"#utility.yul\":9300:9306   */\n      dup7\n        /* \"#utility.yul\":9256:9327   */\n      tag_329\n      jump\t// in\n    tag_423:\n        /* \"#utility.yul\":9337:9409   */\n      tag_424\n        /* \"#utility.yul\":9405:9407   */\n      0x20\n        /* \"#utility.yul\":9394:9403   */\n      dup4\n        /* \"#utility.yul\":9390:9408   */\n      add\n        /* \"#utility.yul\":9381:9387   */\n      dup6\n        /* \"#utility.yul\":9337:9409   */\n      tag_329\n      jump\t// in\n    tag_424:\n        /* \"#utility.yul\":9419:9491   */\n      tag_425\n        /* \"#utility.yul\":9487:9489   */\n      0x40\n        /* \"#utility.yul\":9476:9485   */\n      dup4\n        /* \"#utility.yul\":9472:9490   */\n      add\n        /* \"#utility.yul\":9463:9469   */\n      dup5\n        /* \"#utility.yul\":9419:9491   */\n      tag_414\n      jump\t// in\n    tag_425:\n        /* \"#utility.yul\":9056:9498   */\n      swap5\n      swap4\n      pop\n      pop\n      pop\n      pop\n      jump\t// out\n        /* \"#utility.yul\":9504:9836   */\n    tag_242:\n        /* \"#utility.yul\":9625:9629   */\n      0x00\n        /* \"#utility.yul\":9663:9665   */\n      0x40\n        /* \"#utility.yul\":9652:9661   */\n      dup3\n        /* \"#utility.yul\":9648:9666   */\n      add\n        /* \"#utility.yul\":9640:9666   */\n      swap1\n      pop\n        /* \"#utility.yul\":9676:9747   */\n      tag_427\n        /* \"#utility.yul\":9744:9745   */\n      0x00\n        /* \"#utility.yul\":9733:9742   */\n      dup4\n        /* \"#utility.yul\":9729:9746   */\n      add\n        /* \"#utility.yul\":9720:9726   */\n      dup6\n        /* \"#utility.yul\":9676:9747   */\n      tag_329\n      jump\t// in\n    tag_427:\n        /* \"#utility.yul\":9757:9829   */\n      tag_428\n        /* \"#utility.yul\":9825:9827   */\n      0x20\n        /* \"#utility.yul\":9814:9823   */\n      dup4\n        /* \"#utility.yul\":9810:9828   */\n      add\n        /* \"#utility.yul\":9801:9807   */\n      dup5\n        /* \"#utility.yul\":9757:9829   */\n      tag_414\n      jump\t// in\n    tag_428:\n        /* \"#utility.yul\":9504:9836   */\n      swap4\n      swap3\n      pop\n      pop\n      pop\n      jump\t// out\n        /* \"#utility.yul\":9842:10090   */\n    tag_60:\n        /* \"#utility.yul\":9948:9952   */\n      0x00\n        /* \"#utility.yul\":9986:9988   */\n      0x20\n        /* \"#utility.yul\":9975:9984   */\n      dup3\n        /* \"#utility.yul\":9971:9989   */\n      add\n        /* \"#utility.yul\":9963:9989   */\n      swap1\n      pop\n        /* \"#utility.yul\":9999:10083   */\n      tag_430\n        /* \"#utility.yul\":10080:10081   */\n      0x00\n        /* \"#utility.yul\":10069:10078   */\n      dup4\n        /* \"#utility.yul\":10065:10082   */\n      add\n        /* \"#utility.yul\":10056:10062   */\n      dup5\n        /* \"#utility.yul\":9999:10083   */\n      tag_341\n      jump\t// in\n    tag_430:\n        /* \"#utility.yul\":9842:10090   */\n      swap3\n      swap2\n      pop\n      pop\n      jump\t// out\n        /* \"#utility.yul\":10096:10409   */\n    tag_285:\n        /* \"#utility.yul\":10209:10213   */\n      0x00\n        /* \"#utility.yul\":10247:10249   */\n      0x20\n        /* \"#utility.yul\":10236:10245   */\n      dup3\n        /* \"#utility.yul\":10232:10250   */\n      add\n        /* \"#utility.yul\":10224:10250   */\n      swap1\n      pop\n        /* \"#utility.yul\":10296:10305   */\n      dup2\n        /* \"#utility.yul\":10290:10294   */\n      dup2\n        /* \"#utility.yul\":10286:10306   */\n      sub\n        /* \"#utility.yul\":10282:10283   */\n      0x00\n        /* \"#utility.yul\":10271:10280   */\n      dup4\n        /* \"#utility.yul\":10267:10284   */\n      add\n        /* \"#utility.yul\":10260:10307   */\n      mstore\n        /* \"#utility.yul\":10324:10402   */\n      tag_432\n        /* \"#utility.yul\":10397:10401   */\n      dup2\n        /* \"#utility.yul\":10388:10394   */\n      dup5\n        /* \"#utility.yul\":10324:10402   */\n      tag_345\n      jump\t// in\n    tag_432:\n        /* \"#utility.yul\":10316:10402   */\n      swap1\n      pop\n        /* \"#utility.yul\":10096:10409   */\n      swap3\n      swap2\n      pop\n      pop\n      jump\t// out\n        /* \"#utility.yul\":10415:10834   */\n    tag_167:\n        /* \"#utility.yul\":10581:10585   */\n      0x00\n        /* \"#utility.yul\":10619:10621   */\n      0x20\n        /* \"#utility.yul\":10608:10617   */\n      dup3\n        /* \"#utility.yul\":10604:10622   */\n      add\n        /* \"#utility.yul\":10596:10622   */\n      swap1\n      pop\n        /* \"#utility.yul\":10668:10677   */\n      dup2\n        /* \"#utility.yul\":10662:10666   */\n      dup2\n        /* \"#utility.yul\":10658:10678   */\n      sub\n        /* \"#utility.yul\":10654:10655   */\n      0x00\n        /* \"#utility.yul\":10643:10652   */\n      dup4\n        /* \"#utility.yul\":10639:10656   */\n      add\n        /* \"#utility.yul\":10632:10679   */\n      mstore\n        /* \"#utility.yul\":10696:10827   */\n      tag_434\n        /* \"#utility.yul\":10822:10826   */\n      dup2\n        /* \"#utility.yul\":10696:10827   */\n      tag_354\n      jump\t// in\n    tag_434:\n        /* \"#utility.yul\":10688:10827   */\n      swap1\n      pop\n        /* \"#utility.yul\":10415:10834   */\n      swap2\n      swap1\n      pop\n      jump\t// out\n        /* \"#utility.yul\":10840:11259   */\n    tag_224:\n        /* \"#utility.yul\":11006:11010   */\n      0x00\n        /* \"#utility.yul\":11044:11046   */\n      0x20\n        /* \"#utility.yul\":11033:11042   */\n      dup3\n        /* \"#utility.yul\":11029:11047   */\n      add\n        /* \"#utility.yul\":11021:11047   */\n      swap1\n      pop\n        /* \"#utility.yul\":11093:11102   */\n      dup2\n        /* \"#utility.yul\":11087:11091   */\n      dup2\n        /* \"#utility.yul\":11083:11103   */\n      sub\n        /* \"#utility.yul\":11079:11080   */\n      0x00\n        /* \"#utility.yul\":11068:11077   */\n      dup4\n        /* \"#utility.yul\":11064:11081   */\n      add\n        /* \"#utility.yul\":11057:11104   */\n      mstore\n        /* \"#utility.yul\":11121:11252   */\n      tag_436\n        /* \"#utility.yul\":11247:11251   */\n      dup2\n        /* \"#utility.yul\":11121:11252   */\n      tag_359\n      jump\t// in\n    tag_436:\n        /* \"#utility.yul\":11113:11252   */\n      swap1\n      pop\n        /* \"#utility.yul\":10840:11259   */\n      swap2\n      swap1\n      pop\n      jump\t// out\n        /* \"#utility.yul\":11265:11684   */\n    tag_185:\n        /* \"#utility.yul\":11431:11435   */\n      0x00\n        /* \"#utility.yul\":11469:11471   */\n      0x20\n        /* \"#utility.yul\":11458:11467   */\n      dup3\n        /* \"#utility.yul\":11454:11472   */\n      add\n        /* \"#utility.yul\":11446:11472   */\n      swap1\n      pop\n        /* \"#utility.yul\":11518:11527   */\n      dup2\n        /* \"#utility.yul\":11512:11516   */\n      dup2\n        /* \"#utility.yul\":11508:11528   */\n      sub\n        /* \"#utility.yul\":11504:11505   */\n      0x00\n        /* \"#utility.yul\":11493:11502   */\n      dup4\n        /* \"#utility.yul\":11489:11506   */\n      add\n        /* \"#utility.yul\":11482:11529   */\n      mstore\n        /* \"#utility.yul\":11546:11677   */\n      tag_438\n        /* \"#utility.yul\":11672:11676   */\n      dup2\n        /* \"#utility.yul\":11546:11677   */\n      tag_364\n      jump\t// in\n    tag_438:\n        /* \"#utility.yul\":11538:11677   */\n      swap1\n      pop\n        /* \"#utility.yul\":11265:11684   */\n      swap2\n      swap1\n      pop\n      jump\t// out\n        /* \"#utility.yul\":11690:12109   */\n    tag_265:\n        /* \"#utility.yul\":11856:11860   */\n      0x00\n        /* \"#utility.yul\":11894:11896   */\n      0x20\n        /* \"#utility.yul\":11883:11892   */\n      dup3\n        /* \"#utility.yul\":11879:11897   */\n      add\n        /* \"#utility.yul\":11871:11897   */\n      swap1\n      pop\n        /* \"#utility.yul\":11943:11952   */\n      dup2\n        /* \"#utility.yul\":11937:11941   */\n      dup2\n        /* \"#utility.yul\":11933:11953   */\n      sub\n        /* \"#utility.yul\":11929:11930   */\n      0x00\n        /* \"#utility.yul\":11918:11927   */\n      dup4\n        /* \"#utility.yul\":11914:11931   */\n      add\n        /* \"#utility.yul\":11907:11954   */\n      mstore\n        /* \"#utility.yul\":11971:12102   */\n      tag_440\n        /* \"#utility.yul\":12097:12101   */\n      dup2\n        /* \"#utility.yul\":11971:12102   */\n      tag_369\n      jump\t// in\n    tag_440:\n        /* \"#utility.yul\":11963:12102   */\n      swap1\n      pop\n        /* \"#utility.yul\":11690:12109   */\n      swap2\n      swap1\n      pop\n      jump\t// out\n        /* \"#utility.yul\":12115:12534   */\n    tag_221:\n        /* \"#utility.yul\":12281:12285   */\n      0x00\n        /* \"#utility.yul\":12319:12321   */\n      0x20\n        /* \"#utility.yul\":12308:12317   */\n      dup3\n        /* \"#utility.yul\":12304:12322   */\n      add\n        /* \"#utility.yul\":12296:12322   */\n      swap1\n      pop\n        /* \"#utility.yul\":12368:12377   */\n      dup2\n        /* \"#utility.yul\":12362:12366   */\n      dup2\n        /* \"#utility.yul\":12358:12378   */\n      sub\n        /* \"#utility.yul\":12354:12355   */\n      0x00\n        /* \"#utility.yul\":12343:12352   */\n      dup4\n        /* \"#utility.yul\":12339:12356   */\n      add\n        /* \"#utility.yul\":12332:12379   */\n      mstore\n        /* \"#utility.yul\":12396:12527   */\n      tag_442\n        /* \"#utility.yul\":12522:12526   */\n      dup2\n        /* \"#utility.yul\":12396:12527   */\n      tag_374\n      jump\t// in\n    tag_442:\n        /* \"#utility.yul\":12388:12527   */\n      swap1\n      pop\n        /* \"#utility.yul\":12115:12534   */\n      swap2\n      swap1\n      pop\n      jump\t// out\n        /* \"#utility.yul\":12540:12959   */\n    tag_120:\n        /* \"#utility.yul\":12706:12710   */\n      0x00\n        /* \"#utility.yul\":12744:12746   */\n      0x20\n        /* \"#utility.yul\":12733:12742   */\n      dup3\n        /* \"#utility.yul\":12729:12747   */\n      add\n        /* \"#utility.yul\":12721:12747   */\n      swap1\n      pop\n        /* \"#utility.yul\":12793:12802   */\n      dup2\n        /* \"#utility.yul\":12787:12791   */\n      dup2\n        /* \"#utility.yul\":12783:12803   */\n      sub\n        /* \"#utility.yul\":12779:12780   */\n      0x00\n        /* \"#utility.yul\":12768:12777   */\n      dup4\n        /* \"#utility.yul\":12764:12781   */\n      add\n        /* \"#utility.yul\":12757:12804   */\n      mstore\n        /* \"#utility.yul\":12821:12952   */\n      tag_444\n        /* \"#utility.yul\":12947:12951   */\n      dup2\n        /* \"#utility.yul\":12821:12952   */\n      tag_379\n      jump\t// in\n    tag_444:\n        /* \"#utility.yul\":12813:12952   */\n      swap1\n      pop\n        /* \"#utility.yul\":12540:12959   */\n      swap2\n      swap1\n      pop\n      jump\t// out\n        /* \"#utility.yul\":12965:13384   */\n    tag_147:\n        /* \"#utility.yul\":13131:13135   */\n      0x00\n        /* \"#utility.yul\":13169:13171   */\n      0x20\n        /* \"#utility.yul\":13158:13167   */\n      dup3\n        /* \"#utility.yul\":13154:13172   */\n      add\n        /* \"#utility.yul\":13146:13172   */\n      swap1\n      pop\n        /* \"#utility.yul\":13218:13227   */\n      dup2\n        /* \"#utility.yul\":13212:13216   */\n      dup2\n        /* \"#utility.yul\":13208:13228   */\n      sub\n        /* \"#utility.yul\":13204:13205   */\n      0x00\n        /* \"#utility.yul\":13193:13202   */\n      dup4\n        /* \"#utility.yul\":13189:13206   */\n      add\n        /* \"#utility.yul\":13182:13229   */\n      mstore\n        /* \"#utility.yul\":13246:13377   */\n      tag_446\n        /* \"#utility.yul\":13372:13376   */\n      dup2\n        /* \"#utility.yul\":13246:13377   */\n      tag_384\n      jump\t// in\n    tag_446:\n        /* \"#utility.yul\":13238:13377   */\n      swap1\n      pop\n        /* \"#utility.yul\":12965:13384   */\n      swap2\n      swap1\n      pop\n      jump\t// out\n        /* \"#utility.yul\":13390:13809   */\n    tag_137:\n        /* \"#utility.yul\":13556:13560   */\n      0x00\n        /* \"#utility.yul\":13594:13596   */\n      0x20\n        /* \"#utility.yul\":13583:13592   */\n      dup3\n        /* \"#utility.yul\":13579:13597   */\n      add\n        /* \"#utility.yul\":13571:13597   */\n      swap1\n      pop\n        /* \"#utility.yul\":13643:13652   */\n      dup2\n        /* \"#utility.yul\":13637:13641   */\n      dup2\n        /* \"#utility.yul\":13633:13653   */\n      sub\n        /* \"#utility.yul\":13629:13630   */\n      0x00\n        /* \"#utility.yul\":13618:13627   */\n      dup4\n        /* \"#utility.yul\":13614:13631   */\n      add\n        /* \"#utility.yul\":13607:13654   */\n      mstore\n        /* \"#utility.yul\":13671:13802   */\n      tag_448\n        /* \"#utility.yul\":13797:13801   */\n      dup2\n        /* \"#utility.yul\":13671:13802   */\n      tag_389\n      jump\t// in\n    tag_448:\n        /* \"#utility.yul\":13663:13802   */\n      swap1\n      pop\n        /* \"#utility.yul\":13390:13809   */\n      swap2\n      swap1\n      pop\n      jump\t// out\n        /* \"#utility.yul\":13815:14234   */\n    tag_270:\n        /* \"#utility.yul\":13981:13985   */\n      0x00\n        /* \"#utility.yul\":14019:14021   */\n      0x20\n        /* \"#utility.yul\":14008:14017   */\n      dup3\n        /* \"#utility.yul\":14004:14022   */\n      add\n        /* \"#utility.yul\":13996:14022   */\n      swap1\n      pop\n        /* \"#utility.yul\":14068:14077   */\n      dup2\n        /* \"#utility.yul\":14062:14066   */\n      dup2\n        /* \"#utility.yul\":14058:14078   */\n      sub\n        /* \"#utility.yul\":14054:14055   */\n      0x00\n        /* \"#utility.yul\":14043:14052   */\n      dup4\n        /* \"#utility.yul\":14039:14056   */\n      add\n        /* \"#utility.yul\":14032:14079   */\n      mstore\n        /* \"#utility.yul\":14096:14227   */\n      tag_450\n        /* \"#utility.yul\":14222:14226   */\n      dup2\n        /* \"#utility.yul\":14096:14227   */\n      tag_394\n      jump\t// in\n    tag_450:\n        /* \"#utility.yul\":14088:14227   */\n      swap1\n      pop\n        /* \"#utility.yul\":13815:14234   */\n      swap2\n      swap1\n      pop\n      jump\t// out\n        /* \"#utility.yul\":14240:14659   */\n    tag_109:\n        /* \"#utility.yul\":14406:14410   */\n      0x00\n        /* \"#utility.yul\":14444:14446   */\n      0x20\n        /* \"#utility.yul\":14433:14442   */\n      dup3\n        /* \"#utility.yul\":14429:14447   */\n      add\n        /* \"#utility.yul\":14421:14447   */\n      swap1\n      pop\n        /* \"#utility.yul\":14493:14502   */\n      dup2\n        /* \"#utility.yul\":14487:14491   */\n      dup2\n        /* \"#utility.yul\":14483:14503   */\n      sub\n        /* \"#utility.yul\":14479:14480   */\n      0x00\n        /* \"#utility.yul\":14468:14477   */\n      dup4\n        /* \"#utility.yul\":14464:14481   */\n      add\n        /* \"#utility.yul\":14457:14504   */\n      mstore\n        /* \"#utility.yul\":14521:14652   */\n      tag_452\n        /* \"#utility.yul\":14647:14651   */\n      dup2\n        /* \"#utility.yul\":14521:14652   */\n      tag_399\n      jump\t// in\n    tag_452:\n        /* \"#utility.yul\":14513:14652   */\n      swap1\n      pop\n        /* \"#utility.yul\":14240:14659   */\n      swap2\n      swap1\n      pop\n      jump\t// out\n        /* \"#utility.yul\":14665:15084   */\n    tag_258:\n        /* \"#utility.yul\":14831:14835   */\n      0x00\n        /* \"#utility.yul\":14869:14871   */\n      0x20\n        /* \"#utility.yul\":14858:14867   */\n      dup3\n        /* \"#utility.yul\":14854:14872   */\n      add\n        /* \"#utility.yul\":14846:14872   */\n      swap1\n      pop\n        /* \"#utility.yul\":14918:14927   */\n      dup2\n        /* \"#utility.yul\":14912:14916   */\n      dup2\n        /* \"#utility.yul\":14908:14928   */\n      sub\n        /* \"#utility.yul\":14904:14905   */\n      0x00\n        /* \"#utility.yul\":14893:14902   */\n      dup4\n        /* \"#utility.yul\":14889:14906   */\n      add\n        /* \"#utility.yul\":14882:14929   */\n      mstore\n        /* \"#utility.yul\":14946:15077   */\n      tag_454\n        /* \"#utility.yul\":15072:15076   */\n      dup2\n        /* \"#utility.yul\":14946:15077   */\n      tag_404\n      jump\t// in\n    tag_454:\n        /* \"#utility.yul\":14938:15077   */\n      swap1\n      pop\n        /* \"#utility.yul\":14665:15084   */\n      swap2\n      swap1\n      pop\n      jump\t// out\n        /* \"#utility.yul\":15090:15509   */\n    tag_155:\n        /* \"#utility.yul\":15256:15260   */\n      0x00\n        /* \"#utility.yul\":15294:15296   */\n      0x20\n        /* \"#utility.yul\":15283:15292   */\n      dup3\n        /* \"#utility.yul\":15279:15297   */\n      add\n        /* \"#utility.yul\":15271:15297   */\n      swap1\n      pop\n        /* \"#utility.yul\":15343:15352   */\n      dup2\n        /* \"#utility.yul\":15337:15341   */\n      dup2\n        /* \"#utility.yul\":15333:15353   */\n      sub\n        /* \"#utility.yul\":15329:15330   */\n      0x00\n        /* \"#utility.yul\":15318:15327   */\n      dup4\n        /* \"#utility.yul\":15314:15331   */\n      add\n        /* \"#utility.yul\":15307:15354   */\n      mstore\n        /* \"#utility.yul\":15371:15502   */\n      tag_456\n        /* \"#utility.yul\":15497:15501   */\n      dup2\n        /* \"#utility.yul\":15371:15502   */\n      tag_409\n      jump\t// in\n    tag_456:\n        /* \"#utility.yul\":15363:15502   */\n      swap1\n      pop\n        /* \"#utility.yul\":15090:15509   */\n      swap2\n      swap1\n      pop\n      jump\t// out\n        /* \"#utility.yul\":15515:15737   */\n    tag_31:\n        /* \"#utility.yul\":15608:15612   */\n      0x00\n        /* \"#utility.yul\":15646:15648   */\n      0x20\n        /* \"#utility.yul\":15635:15644   */\n      dup3\n        /* \"#utility.yul\":15631:15649   */\n      add\n        /* \"#utility.yul\":15623:15649   */\n      swap1\n      pop\n        /* \"#utility.yul\":15659:15730   */\n      tag_458\n        /* \"#utility.yul\":15727:15728   */\n      0x00\n        /* \"#utility.yul\":15716:15725   */\n      dup4\n        /* \"#utility.yul\":15712:15729   */\n      add\n        /* \"#utility.yul\":15703:15709   */\n      dup5\n        /* \"#utility.yul\":15659:15730   */\n      tag_414\n      jump\t// in\n    tag_458:\n        /* \"#utility.yul\":15515:15737   */\n      swap3\n      swap2\n      pop\n      pop\n      jump\t// out\n        /* \"#utility.yul\":15743:16075   */\n    tag_140:\n        /* \"#utility.yul\":15864:15868   */\n      0x00\n        /* \"#utility.yul\":15902:15904   */\n      0x40\n        /* \"#utility.yul\":15891:15900   */\n      dup3\n        /* \"#utility.yul\":15887:15905   */\n      add\n        /* \"#utility.yul\":15879:15905   */\n      swap1\n      pop\n        /* \"#utility.yul\":15915:15986   */\n      tag_460\n        /* \"#utility.yul\":15983:15984   */\n      0x00\n        /* \"#utility.yul\":15972:15981   */\n      dup4\n        /* \"#utility.yul\":15968:15985   */\n      add\n        /* \"#utility.yul\":15959:15965   */\n      dup6\n        /* \"#utility.yul\":15915:15986   */\n      tag_414\n      jump\t// in\n    tag_460:\n        /* \"#utility.yul\":15996:16068   */\n      tag_461\n        /* \"#utility.yul\":16064:16066   */\n      0x20\n        /* \"#utility.yul\":16053:16062   */\n      dup4\n        /* \"#utility.yul\":16049:16067   */\n      add\n        /* \"#utility.yul\":16040:16046   */\n      dup5\n        /* \"#utility.yul\":15996:16068   */\n      tag_414\n      jump\t// in\n    tag_461:\n        /* \"#utility.yul\":15743:16075   */\n      swap4\n      swap3\n      pop\n      pop\n      pop\n      jump\t// out\n        /* \"#utility.yul\":16162:16260   */\n    tag_336:\n        /* \"#utility.yul\":16213:16219   */\n      0x00\n        /* \"#utility.yul\":16247:16252   */\n      dup2\n        /* \"#utility.yul\":16241:16253   */\n      mload\n        /* \"#utility.yul\":16231:16253   */\n      swap1\n      pop\n        /* \"#utility.yul\":16162:16260   */\n      swap2\n      swap1\n      pop\n      jump\t// out\n        /* \"#utility.yul\":16266:16365   */\n    tag_348:\n        /* \"#utility.yul\":16318:16324   */\n      0x00\n        /* \"#utility.yul\":16352:16357   */\n      dup2\n        /* \"#utility.yul\":16346:16358   */\n      mload\n        /* \"#utility.yul\":16336:16358   */\n      swap1\n      pop\n        /* \"#utility.yul\":16266:16365   */\n      swap2\n      swap1\n      pop\n      jump\t// out\n        /* \"#utility.yul\":16371:16518   */\n    tag_338:\n        /* \"#utility.yul\":16472:16483   */\n      0x00\n        /* \"#utility.yul\":16509:16512   */\n      dup2\n        /* \"#utility.yul\":16494:16512   */\n      swap1\n      pop\n        /* \"#utility.yul\":16371:16518   */\n      swap3\n      swap2\n      pop\n      pop\n      jump\t// out\n        /* \"#utility.yul\":16524:16693   */\n    tag_350:\n        /* \"#utility.yul\":16608:16619   */\n      0x00\n        /* \"#utility.yul\":16642:16648   */\n      dup3\n        /* \"#utility.yul\":16637:16640   */\n      dup3\n        /* \"#utility.yul\":16630:16649   */\n      mstore\n        /* \"#utility.yul\":16682:16686   */\n      0x20\n        /* \"#utility.yul\":16677:16680   */\n      dup3\n        /* \"#utility.yul\":16673:16687   */\n      add\n        /* \"#utility.yul\":16658:16687   */\n      swap1\n      pop\n        /* \"#utility.yul\":16524:16693   */\n      swap3\n      swap2\n      pop\n      pop\n      jump\t// out\n        /* \"#utility.yul\":16699:17004   */\n    tag_143:\n        /* \"#utility.yul\":16739:16742   */\n      0x00\n        /* \"#utility.yul\":16758:16778   */\n      tag_469\n        /* \"#utility.yul\":16776:16777   */\n      dup3\n        /* \"#utility.yul\":16758:16778   */\n      tag_417\n      jump\t// in\n    tag_469:\n        /* \"#utility.yul\":16753:16778   */\n      swap2\n      pop\n        /* \"#utility.yul\":16792:16812   */\n      tag_470\n        /* \"#utility.yul\":16810:16811   */\n      dup4\n        /* \"#utility.yul\":16792:16812   */\n      tag_417\n      jump\t// in\n    tag_470:\n        /* \"#utility.yul\":16787:16812   */\n      swap3\n      pop\n        /* \"#utility.yul\":16946:16947   */\n      dup3\n        /* \"#utility.yul\":16878:16944   */\n      0xffffffffffffffffffffffffffffffffffffffffffffffffffffffffffffffff\n        /* \"#utility.yul\":16874:16948   */\n      sub\n        /* \"#utility.yul\":16871:16872   */\n      dup3\n        /* \"#utility.yul\":16868:16949   */\n      gt\n        /* \"#utility.yul\":16865:16972   */\n      iszero\n      tag_471\n      jumpi\n        /* \"#utility.yul\":16952:16970   */\n      tag_472\n      tag_473\n      jump\t// in\n    tag_472:\n        /* \"#utility.yul\":16865:16972   */\n    tag_471:\n        /* \"#utility.yul\":16996:16997   */\n      dup3\n        /* \"#utility.yul\":16993:16994   */\n      dup3\n        /* \"#utility.yul\":16989:16998   */\n      add\n        /* \"#utility.yul\":16982:16998   */\n      swap1\n      pop\n        /* \"#utility.yul\":16699:17004   */\n      swap3\n      swap2\n      pop\n      pop\n      jump\t// out\n        /* \"#utility.yul\":17010:17195   */\n    tag_236:\n        /* \"#utility.yul\":17050:17051   */\n      0x00\n        /* \"#utility.yul\":17067:17087   */\n      tag_475\n        /* \"#utility.yul\":17085:17086   */\n      dup3\n        /* \"#utility.yul\":17067:17087   */\n      tag_417\n      jump\t// in\n    tag_475:\n        /* \"#utility.yul\":17062:17087   */\n      swap2\n      pop\n        /* \"#utility.yul\":17101:17121   */\n      tag_476\n        /* \"#utility.yul\":17119:17120   */\n      dup4\n        /* \"#utility.yul\":17101:17121   */\n      tag_417\n      jump\t// in\n    tag_476:\n        /* \"#utility.yul\":17096:17121   */\n      swap3\n      pop\n        /* \"#utility.yul\":17140:17141   */\n      dup3\n        /* \"#utility.yul\":17130:17165   */\n      tag_477\n      jumpi\n        /* \"#utility.yul\":17145:17163   */\n      tag_478\n      tag_479\n      jump\t// in\n    tag_478:\n        /* \"#utility.yul\":17130:17165   */\n    tag_477:\n        /* \"#utility.yul\":17187:17188   */\n      dup3\n        /* \"#utility.yul\":17184:17185   */\n      dup3\n        /* \"#utility.yul\":17180:17189   */\n      div\n        /* \"#utility.yul\":17175:17189   */\n      swap1\n      pop\n        /* \"#utility.yul\":17010:17195   */\n      swap3\n      swap2\n      pop\n      pop\n      jump\t// out\n        /* \"#utility.yul\":17201:17549   */\n    tag_233:\n        /* \"#utility.yul\":17241:17248   */\n      0x00\n        /* \"#utility.yul\":17264:17284   */\n      tag_481\n        /* \"#utility.yul\":17282:17283   */\n      dup3\n        /* \"#utility.yul\":17264:17284   */\n      tag_417\n      jump\t// in\n    tag_481:\n        /* \"#utility.yul\":17259:17284   */\n      swap2\n      pop\n        /* \"#utility.yul\":17298:17318   */\n      tag_482\n        /* \"#utility.yul\":17316:17317   */\n      dup4\n        /* \"#utility.yul\":17298:17318   */\n      tag_417\n      jump\t// in\n    tag_482:\n        /* \"#utility.yul\":17293:17318   */\n      swap3\n      pop\n        /* \"#utility.yul\":17486:17487   */\n      dup2\n        /* \"#utility.yul\":17418:17484   */\n      0xffffffffffffffffffffffffffffffffffffffffffffffffffffffffffffffff\n        /* \"#utility.yul\":17414:17488   */\n      div\n        /* \"#utility.yul\":17411:17412   */\n      dup4\n        /* \"#utility.yul\":17408:17489   */\n      gt\n        /* \"#utility.yul\":17403:17404   */\n      dup3\n        /* \"#utility.yul\":17396:17405   */\n      iszero\n        /* \"#utility.yul\":17389:17406   */\n      iszero\n        /* \"#utility.yul\":17385:17490   */\n      and\n        /* \"#utility.yul\":17382:17513   */\n      iszero\n      tag_483\n      jumpi\n        /* \"#utility.yul\":17493:17511   */\n      tag_484\n      tag_473\n      jump\t// in\n    tag_484:\n        /* \"#utility.yul\":17382:17513   */\n    tag_483:\n        /* \"#utility.yul\":17541:17542   */\n      dup3\n        /* \"#utility.yul\":17538:17539   */\n      dup3\n        /* \"#utility.yul\":17534:17543   */\n      mul\n        /* \"#utility.yul\":17523:17543   */\n      swap1\n      pop\n        /* \"#utility.yul\":17201:17549   */\n      swap3\n      swap2\n      pop\n      pop\n      jump\t// out\n        /* \"#utility.yul\":17555:17746   */\n    tag_230:\n        /* \"#utility.yul\":17595:17599   */\n      0x00\n        /* \"#utility.yul\":17615:17635   */\n      tag_486\n        /* \"#utility.yul\":17633:17634   */\n      dup3\n        /* \"#utility.yul\":17615:17635   */\n      tag_417\n      jump\t// in\n    tag_486:\n        /* \"#utility.yul\":17610:17635   */\n      swap2\n      pop\n        /* \"#utility.yul\":17649:17669   */\n      tag_487\n        /* \"#utility.yul\":17667:17668   */\n      dup4\n        /* \"#utility.yul\":17649:17669   */\n      tag_417\n      jump\t// in\n    tag_487:\n        /* \"#utility.yul\":17644:17669   */\n      swap3\n      pop\n        /* \"#utility.yul\":17688:17689   */\n      dup3\n        /* \"#utility.yul\":17685:17686   */\n      dup3\n        /* \"#utility.yul\":17682:17690   */\n      lt\n        /* \"#utility.yul\":17679:17713   */\n      iszero\n      tag_488\n      jumpi\n        /* \"#utility.yul\":17693:17711   */\n      tag_489\n      tag_473\n      jump\t// in\n    tag_489:\n        /* \"#utility.yul\":17679:17713   */\n    tag_488:\n        /* \"#utility.yul\":17738:17739   */\n      dup3\n        /* \"#utility.yul\":17735:17736   */\n      dup3\n        /* \"#utility.yul\":17731:17740   */\n      sub\n        /* \"#utility.yul\":17723:17740   */\n      swap1\n      pop\n        /* \"#utility.yul\":17555:17746   */\n      swap3\n      swap2\n      pop\n      pop\n      jump\t// out\n        /* \"#utility.yul\":17752:17848   */\n    tag_332:\n        /* \"#utility.yul\":17789:17796   */\n      0x00\n        /* \"#utility.yul\":17818:17842   */\n      tag_491\n        /* \"#utility.yul\":17836:17841   */\n      dup3\n        /* \"#utility.yul\":17818:17842   */\n      tag_492\n      jump\t// in\n    tag_491:\n        /* \"#utility.yul\":17807:17842   */\n      swap1\n      pop\n        /* \"#utility.yul\":17752:17848   */\n      swap2\n      swap1\n      pop\n      jump\t// out\n        /* \"#utility.yul\":17854:17944   */\n    tag_493:\n        /* \"#utility.yul\":17888:17895   */\n      0x00\n        /* \"#utility.yul\":17931:17936   */\n      dup2\n        /* \"#utility.yul\":17924:17937   */\n      iszero\n        /* \"#utility.yul\":17917:17938   */\n      iszero\n        /* \"#utility.yul\":17906:17938   */\n      swap1\n      pop\n        /* \"#utility.yul\":17854:17944   */\n      swap2\n      swap1\n      pop\n      jump\t// out\n        /* \"#utility.yul\":17950:18076   */\n    tag_492:\n        /* \"#utility.yul\":17987:17994   */\n      0x00\n        /* \"#utility.yul\":18027:18069   */\n      0xffffffffffffffffffffffffffffffffffffffff\n        /* \"#utility.yul\":18020:18025   */\n      dup3\n        /* \"#utility.yul\":18016:18070   */\n      and\n        /* \"#utility.yul\":18005:18070   */\n      swap1\n      pop\n        /* \"#utility.yul\":17950:18076   */\n      swap2\n      swap1\n      pop\n      jump\t// out\n        /* \"#utility.yul\":18082:18159   */\n    tag_417:\n        /* \"#utility.yul\":18119:18126   */\n      0x00\n        /* \"#utility.yul\":18148:18153   */\n      dup2\n        /* \"#utility.yul\":18137:18153   */\n      swap1\n      pop\n        /* \"#utility.yul\":18082:18159   */\n      swap2\n      swap1\n      pop\n      jump\t// out\n        /* \"#utility.yul\":18165:18304   */\n    tag_344:\n        /* \"#utility.yul\":18228:18237   */\n      0x00\n        /* \"#utility.yul\":18261:18298   */\n      tag_498\n        /* \"#utility.yul\":18292:18297   */\n      dup3\n        /* \"#utility.yul\":18261:18298   */\n      tag_499\n      jump\t// in\n    tag_498:\n        /* \"#utility.yul\":18248:18298   */\n      swap1\n      pop\n        /* \"#utility.yul\":18165:18304   */\n      swap2\n      swap1\n      pop\n      jump\t// out\n        /* \"#utility.yul\":18310:18436   */\n    tag_499:\n        /* \"#utility.yul\":18360:18369   */\n      0x00\n        /* \"#utility.yul\":18393:18430   */\n      tag_501\n        /* \"#utility.yul\":18424:18429   */\n      dup3\n        /* \"#utility.yul\":18393:18430   */\n      tag_502\n      jump\t// in\n    tag_501:\n        /* \"#utility.yul\":18380:18430   */\n      swap1\n      pop\n        /* \"#utility.yul\":18310:18436   */\n      swap2\n      swap1\n      pop\n      jump\t// out\n        /* \"#utility.yul\":18442:18555   */\n    tag_502:\n        /* \"#utility.yul\":18492:18501   */\n      0x00\n        /* \"#utility.yul\":18525:18549   */\n      tag_504\n        /* \"#utility.yul\":18543:18548   */\n      dup3\n        /* \"#utility.yul\":18525:18549   */\n      tag_492\n      jump\t// in\n    tag_504:\n        /* \"#utility.yul\":18512:18549   */\n      swap1\n      pop\n        /* \"#utility.yul\":18442:18555   */\n      swap2\n      swap1\n      pop\n      jump\t// out\n        /* \"#utility.yul\":18561:18868   */\n    tag_340:\n        /* \"#utility.yul\":18629:18630   */\n      0x00\n        /* \"#utility.yul\":18639:18752   */\n    tag_506:\n        /* \"#utility.yul\":18653:18659   */\n      dup4\n        /* \"#utility.yul\":18650:18651   */\n      dup2\n        /* \"#utility.yul\":18647:18660   */\n      lt\n        /* \"#utility.yul\":18639:18752   */\n      iszero\n      tag_508\n      jumpi\n        /* \"#utility.yul\":18738:18739   */\n      dup1\n        /* \"#utility.yul\":18733:18736   */\n      dup3\n        /* \"#utility.yul\":18729:18740   */\n      add\n        /* \"#utility.yul\":18723:18741   */\n      mload\n        /* \"#utility.yul\":18719:18720   */\n      dup2\n        /* \"#utility.yul\":18714:18717   */\n      dup5\n        /* \"#utility.yul\":18710:18721   */\n      add\n        /* \"#utility.yul\":18703:18742   */\n      mstore\n        /* \"#utility.yul\":18675:18677   */\n      0x20\n        /* \"#utility.yul\":18672:18673   */\n      dup2\n        /* \"#utility.yul\":18668:18678   */\n      add\n        /* \"#utility.yul\":18663:18678   */\n      swap1\n      pop\n        /* \"#utility.yul\":18639:18752   */\n      jump(tag_506)\n    tag_508:\n        /* \"#utility.yul\":18770:18776   */\n      dup4\n        /* \"#utility.yul\":18767:18768   */\n      dup2\n        /* \"#utility.yul\":18764:18777   */\n      gt\n        /* \"#utility.yul\":18761:18862   */\n      iszero\n      tag_509\n      jumpi\n        /* \"#utility.yul\":18850:18851   */\n      0x00\n        /* \"#utility.yul\":18841:18847   */\n      dup5\n        /* \"#utility.yul\":18836:18839   */\n      dup5\n        /* \"#utility.yul\":18832:18848   */\n      add\n        /* \"#utility.yul\":18825:18852   */\n      mstore\n        /* \"#utility.yul\":18761:18862   */\n    tag_509:\n        /* \"#utility.yul\":18610:18868   */\n      pop\n        /* \"#utility.yul\":18561:18868   */\n      pop\n      pop\n      pop\n      jump\t// out\n        /* \"#utility.yul\":18874:19054   */\n    tag_473:\n        /* \"#utility.yul\":18922:18999   */\n      0x4e487b7100000000000000000000000000000000000000000000000000000000\n        /* \"#utility.yul\":18919:18920   */\n      0x00\n        /* \"#utility.yul\":18912:19000   */\n      mstore\n        /* \"#utility.yul\":19019:19023   */\n      0x11\n        /* \"#utility.yul\":19016:19017   */\n      0x04\n        /* \"#utility.yul\":19009:19024   */\n      mstore\n        /* \"#utility.yul\":19043:19047   */\n      0x24\n        /* \"#utility.yul\":19040:19041   */\n      0x00\n        /* \"#utility.yul\":19033:19048   */\n      revert\n        /* \"#utility.yul\":19060:19240   */\n    tag_479:\n        /* \"#utility.yul\":19108:19185   */\n      0x4e487b7100000000000000000000000000000000000000000000000000000000\n        /* \"#utility.yul\":19105:19106   */\n      0x00\n        /* \"#utility.yul\":19098:19186   */\n      mstore\n        /* \"#utility.yul\":19205:19209   */\n      0x12\n        /* \"#utility.yul\":19202:19203   */\n      0x04\n        /* \"#utility.yul\":19195:19210   */\n      mstore\n        /* \"#utility.yul\":19229:19233   */\n      0x24\n        /* \"#utility.yul\":19226:19227   */\n      0x00\n        /* \"#utility.yul\":19219:19234   */\n      revert\n        /* \"#utility.yul\":19369:19486   */\n    tag_305:\n        /* \"#utility.yul\":19478:19479   */\n      0x00\n        /* \"#utility.yul\":19475:19476   */\n      dup1\n        /* \"#utility.yul\":19468:19480   */\n      revert\n        /* \"#utility.yul\":19492:19594   */\n    tag_353:\n        /* \"#utility.yul\":19533:19539   */\n      0x00\n        /* \"#utility.yul\":19584:19586   */\n      0x1f\n        /* \"#utility.yul\":19580:19587   */\n      not\n        /* \"#utility.yul\":19575:19577   */\n      0x1f\n        /* \"#utility.yul\":19568:19573   */\n      dup4\n        /* \"#utility.yul\":19564:19578   */\n      add\n        /* \"#utility.yul\":19560:19588   */\n      and\n        /* \"#utility.yul\":19550:19588   */\n      swap1\n      pop\n        /* \"#utility.yul\":19492:19594   */\n      swap2\n      swap1\n      pop\n      jump\t// out\n        /* \"#utility.yul\":19600:19775   */\n    tag_358:\n        /* \"#utility.yul\":19740:19767   */\n      0x756e626f756e64696e6720706572696f64207374617274656400000000000000\n        /* \"#utility.yul\":19736:19737   */\n      0x00\n        /* \"#utility.yul\":19728:19734   */\n      dup3\n        /* \"#utility.yul\":19724:19738   */\n      add\n        /* \"#utility.yul\":19717:19768   */\n      mstore\n        /* \"#utility.yul\":19600:19775   */\n      pop\n      jump\t// out\n        /* \"#utility.yul\":19781:19959   */\n    tag_363:\n        /* \"#utility.yul\":19921:19951   */\n      0x756e626f756e64696e6720706572696f642069736e2774206f76657200000000\n        /* \"#utility.yul\":19917:19918   */\n      0x00\n        /* \"#utility.yul\":19909:19915   */\n      dup3\n        /* \"#utility.yul\":19905:19919   */\n      add\n        /* \"#utility.yul\":19898:19952   */\n      mstore\n        /* \"#utility.yul\":19781:19959   */\n      pop\n      jump\t// out\n        /* \"#utility.yul\":19965:20129   */\n    tag_368:\n        /* \"#utility.yul\":20105:20121   */\n      0x43616e6e6f74207374616b652030000000000000000000000000000000000000\n        /* \"#utility.yul\":20101:20102   */\n      0x00\n        /* \"#utility.yul\":20093:20099   */\n      dup3\n        /* \"#utility.yul\":20089:20103   */\n      add\n        /* \"#utility.yul\":20082:20122   */\n      mstore\n        /* \"#utility.yul\":19965:20129   */\n      pop\n      jump\t// out\n        /* \"#utility.yul\":20135:20360   */\n    tag_373:\n        /* \"#utility.yul\":20275:20309   */\n      0x416464726573733a20696e73756666696369656e742062616c616e636520666f\n        /* \"#utility.yul\":20271:20272   */\n      0x00\n        /* \"#utility.yul\":20263:20269   */\n      dup3\n        /* \"#utility.yul\":20259:20273   */\n      add\n        /* \"#utility.yul\":20252:20310   */\n      mstore\n        /* \"#utility.yul\":20344:20352   */\n      0x722063616c6c0000000000000000000000000000000000000000000000000000\n        /* \"#utility.yul\":20339:20341   */\n      0x20\n        /* \"#utility.yul\":20331:20337   */\n      dup3\n        /* \"#utility.yul\":20327:20342   */\n      add\n        /* \"#utility.yul\":20320:20353   */\n      mstore\n        /* \"#utility.yul\":20135:20360   */\n      pop\n      jump\t// out\n        /* \"#utility.yul\":20366:20538   */\n    tag_378:\n        /* \"#utility.yul\":20506:20530   */\n      0x756e626f756e64696e67206e6f74207374617274656400000000000000000000\n        /* \"#utility.yul\":20502:20503   */\n      0x00\n        /* \"#utility.yul\":20494:20500   */\n      dup3\n        /* \"#utility.yul\":20490:20504   */\n      add\n        /* \"#utility.yul\":20483:20531   */\n      mstore\n        /* \"#utility.yul\":20366:20538   */\n      pop\n      jump\t// out\n        /* \"#utility.yul\":20544:20723   */\n    tag_383:\n        /* \"#utility.yul\":20684:20715   */\n      0x43616e6e6f7420726564756365206578697374696e6720706572696f64000000\n        /* \"#utility.yul\":20680:20681   */\n      0x00\n        /* \"#utility.yul\":20672:20678   */\n      dup3\n        /* \"#utility.yul\":20668:20682   */\n      add\n        /* \"#utility.yul\":20661:20716   */\n      mstore\n        /* \"#utility.yul\":20544:20723   */\n      pop\n      jump\t// out\n        /* \"#utility.yul\":20729:20896   */\n    tag_388:\n        /* \"#utility.yul\":20869:20888   */\n      0x43616e6e6f742077697468647261772030000000000000000000000000000000\n        /* \"#utility.yul\":20865:20866   */\n      0x00\n        /* \"#utility.yul\":20857:20863   */\n      dup3\n        /* \"#utility.yul\":20853:20867   */\n      add\n        /* \"#utility.yul\":20846:20889   */\n      mstore\n        /* \"#utility.yul\":20729:20896   */\n      pop\n      jump\t// out\n        /* \"#utility.yul\":20902:21076   */\n    tag_393:\n        /* \"#utility.yul\":21042:21068   */\n      0x50726f76696465642072657761726420746f6f20686967680000000000000000\n        /* \"#utility.yul\":21038:21039   */\n      0x00\n        /* \"#utility.yul\":21030:21036   */\n      dup3\n        /* \"#utility.yul\":21026:21040   */\n      add\n        /* \"#utility.yul\":21019:21069   */\n      mstore\n        /* \"#utility.yul\":20902:21076   */\n      pop\n      jump\t// out\n        /* \"#utility.yul\":21082:21261   */\n    tag_398:\n        /* \"#utility.yul\":21222:21253   */\n      0x416464726573733a2063616c6c20746f206e6f6e2d636f6e7472616374000000\n        /* \"#utility.yul\":21218:21219   */\n      0x00\n        /* \"#utility.yul\":21210:21216   */\n      dup3\n        /* \"#utility.yul\":21206:21220   */\n      add\n        /* \"#utility.yul\":21199:21254   */\n      mstore\n        /* \"#utility.yul\":21082:21261   */\n      pop\n      jump\t// out\n        /* \"#utility.yul\":21267:21496   */\n    tag_403:\n        /* \"#utility.yul\":21407:21441   */\n      0x43616c6c6572206973206e6f742052657761726473446973747269627574696f\n        /* \"#utility.yul\":21403:21404   */\n      0x00\n        /* \"#utility.yul\":21395:21401   */\n      dup3\n        /* \"#utility.yul\":21391:21405   */\n      add\n        /* \"#utility.yul\":21384:21442   */\n      mstore\n        /* \"#utility.yul\":21476:21488   */\n      0x6e20636f6e747261637400000000000000000000000000000000000000000000\n        /* \"#utility.yul\":21471:21473   */\n      0x20\n        /* \"#utility.yul\":21463:21469   */\n      dup3\n        /* \"#utility.yul\":21459:21474   */\n      add\n        /* \"#utility.yul\":21452:21489   */\n      mstore\n        /* \"#utility.yul\":21267:21496   */\n      pop\n      jump\t// out\n        /* \"#utility.yul\":21502:21731   */\n    tag_408:\n        /* \"#utility.yul\":21642:21676   */\n      0x5361666545524332303a204552433230206f7065726174696f6e20646964206e\n        /* \"#utility.yul\":21638:21639   */\n      0x00\n        /* \"#utility.yul\":21630:21636   */\n      dup3\n        /* \"#utility.yul\":21626:21640   */\n      add\n        /* \"#utility.yul\":21619:21677   */\n      mstore\n        /* \"#utility.yul\":21711:21723   */\n      0x6f74207375636365656400000000000000000000000000000000000000000000\n        /* \"#utility.yul\":21706:21708   */\n      0x20\n        /* \"#utility.yul\":21698:21704   */\n      dup3\n        /* \"#utility.yul\":21694:21709   */\n      add\n        /* \"#utility.yul\":21687:21724   */\n      mstore\n        /* \"#utility.yul\":21502:21731   */\n      pop\n      jump\t// out\n        /* \"#utility.yul\":21737:21918   */\n    tag_413:\n        /* \"#utility.yul\":21877:21910   */\n      0x5265656e7472616e637947756172643a207265656e7472616e742063616c6c00\n        /* \"#utility.yul\":21873:21874   */\n      0x00\n        /* \"#utility.yul\":21865:21871   */\n      dup3\n        /* \"#utility.yul\":21861:21875   */\n      add\n        /* \"#utility.yul\":21854:21911   */\n      mstore\n        /* \"#utility.yul\":21737:21918   */\n      pop\n      jump\t// out\n        /* \"#utility.yul\":21924:22046   */\n    tag_290:\n        /* \"#utility.yul\":21997:22021   */\n      tag_529\n        /* \"#utility.yul\":22015:22020   */\n      dup2\n        /* \"#utility.yul\":21997:22021   */\n      tag_332\n      jump\t// in\n    tag_529:\n        /* \"#utility.yul\":21990:21995   */\n      dup2\n        /* \"#utility.yul\":21987:22022   */\n      eq\n        /* \"#utility.yul\":21977:22040   */\n      tag_530\n      jumpi\n        /* \"#utility.yul\":22036:22037   */\n      0x00\n        /* \"#utility.yul\":22033:22034   */\n      dup1\n        /* \"#utility.yul\":22026:22038   */\n      revert\n        /* \"#utility.yul\":21977:22040   */\n    tag_530:\n        /* \"#utility.yul\":21924:22046   */\n      pop\n      jump\t// out\n        /* \"#utility.yul\":22052:22168   */\n    tag_294:\n        /* \"#utility.yul\":22122:22143   */\n      tag_532\n        /* \"#utility.yul\":22137:22142   */\n      dup2\n        /* \"#utility.yul\":22122:22143   */\n      tag_493\n      jump\t// in\n    tag_532:\n        /* \"#utility.yul\":22115:22120   */\n      dup2\n        /* \"#utility.yul\":22112:22144   */\n      eq\n        /* \"#utility.yul\":22102:22162   */\n      tag_533\n      jumpi\n        /* \"#utility.yul\":22158:22159   */\n      0x00\n        /* \"#utility.yul\":22155:22156   */\n      dup1\n        /* \"#utility.yul\":22148:22160   */\n      revert\n        /* \"#utility.yul\":22102:22162   */\n    tag_533:\n        /* \"#utility.yul\":22052:22168   */\n      pop\n      jump\t// out\n        /* \"#utility.yul\":22174:22296   */\n    tag_298:\n        /* \"#utility.yul\":22247:22271   */\n      tag_535\n        /* \"#utility.yul\":22265:22270   */\n      dup2\n        /* \"#utility.yul\":22247:22271   */\n      tag_417\n      jump\t// in\n    tag_535:\n        /* \"#utility.yul\":22240:22245   */\n      dup2\n        /* \"#utility.yul\":22237:22272   */\n      eq\n        /* \"#utility.yul\":22227:22290   */\n      tag_536\n      jumpi\n        /* \"#utility.yul\":22286:22287   */\n      0x00\n        /* \"#utility.yul\":22283:22284   */\n      dup1\n        /* \"#utility.yul\":22276:22288   */\n      revert\n        /* \"#utility.yul\":22227:22290   */\n    tag_536:\n        /* \"#utility.yul\":22174:22296   */\n      pop\n      jump\t// out\n\n    auxdata: 0xa2646970667358221220661a42cdd73d13ac28f13ee778064be9831d1fc2b498cb53dd98131a37e965d664736f6c63430008070033\n}\n",
				"bytecode": {
					"linkReferences": {},
					"object": "6080604052600060045560006005553480156200001b57600080fd5b50604051620027423803806200274283398181016040528101906200004191906200012a565b6001808190555081600260006101000a81548173ffffffffffffffffffffffffffffffffffffffff021916908373ffffffffffffffffffffffffffffffffffffffff16021790555080600360006101000a81548173ffffffffffffffffffffffffffffffffffffffff021916908373ffffffffffffffffffffffffffffffffffffffff160217905550826000806101000a81548173ffffffffffffffffffffffffffffffffffffffff021916908373ffffffffffffffffffffffffffffffffffffffff160217905550505050620001d9565b6000815190506200012481620001bf565b92915050565b600080600060608486031215620001465762000145620001ba565b5b6000620001568682870162000113565b9350506020620001698682870162000113565b92505060406200017c8682870162000113565b9150509250925092565b600062000193826200019a565b9050919050565b600073ffffffffffffffffffffffffffffffffffffffff82169050919050565b600080fd5b620001ca8162000186565b8114620001d657600080fd5b50565b61255980620001e96000396000f3fe608060405234801561001057600080fd5b506004361061012b5760003560e01c80637b0a47ee116100ad578063d1af0c7d11610071578063d1af0c7d14610320578063d505493d1461033e578063df136d651461035a578063e9fad8ee14610378578063ebe2b12b146103825761012b565b80637b0a47ee1461027857806380faa57d146102965780638b876347146102b4578063c8f33c91146102e4578063cd3daf9d146103025761012b565b80633d18b912116100f45780633d18b912146101e65780633fc6df6e146101f057806370a082311461020e57806372f702f31461023e5780637acb77571461025c5761012b565b80628cc262146101305780630700037d1461016057806318160ddd14610190578063246132f9146101ae5780632e1a7d4d146101ca575b600080fd5b61014a60048036038101906101459190611a12565b6103a0565b6040516101579190611fd0565b60405180910390f35b61017a60048036038101906101759190611a12565b6104be565b6040516101879190611fd0565b60405180910390f35b6101986104d6565b6040516101a59190611fd0565b60405180910390f35b6101c860048036038101906101c39190611b06565b6104e0565b005b6101e460048036038101906101df9190611a6c565b6108ad565b005b6101ee610aa3565b005b6101f8610d83565b6040516102059190611d98565b60405180910390f35b61022860048036038101906102239190611a12565b610da7565b6040516102359190611fd0565b60405180910390f35b610246610df0565b6040516102539190611e13565b60405180910390f35b61027660048036038101906102719190611ac6565b610e16565b005b610280611144565b60405161028d9190611fd0565b60405180910390f35b61029e61114a565b6040516102ab9190611fd0565b60405180910390f35b6102ce60048036038101906102c99190611a12565b61115d565b6040516102db9190611fd0565b60405180910390f35b6102ec611175565b6040516102f99190611fd0565b60405180910390f35b61030a61117b565b6040516103179190611fd0565b60405180910390f35b610328611209565b6040516103359190611e13565b60405180910390f35b61035860048036038101906103539190611a6c565b61122f565b005b6103626113be565b60405161036f9190611fd0565b60405180910390f35b6103806113c4565b005b61038a6115bb565b6040516103979190611fd0565b60405180910390f35b60006104b7600960008473ffffffffffffffffffffffffffffffffffffffff1673ffffffffffffffffffffffffffffffffffffffff168152602001908152602001600020546104a9670de0b6b3a764000061049b61044d600860008973ffffffffffffffffffffffffffffffffffffffff1673ffffffffffffffffffffffffffffffffffffffff1681526020019081526020016000205461043f61117b565b6115c190919063ffffffff16565b600b60008973ffffffffffffffffffffffffffffffffffffffff1673ffffffffffffffffffffffffffffffffffffffff168152602001908152602001600020546115d790919063ffffffff16565b6115ed90919063ffffffff16565b61160390919063ffffffff16565b9050919050565b60096020528060005260406000206000915090505481565b6000600a54905090565b60008054906101000a900473ffffffffffffffffffffffffffffffffffffffff1673ffffffffffffffffffffffffffffffffffffffff163373ffffffffffffffffffffffffffffffffffffffff161461056e576040517f08c379a000000000000000000000000000000000000000000000000000000000815260040161056590611f70565b60405180910390fd5b6000600c60009054906101000a900460ff166106685761058c61117b565b60078190555061059a61114a565b600681905550600073ffffffffffffffffffffffffffffffffffffffff168173ffffffffffffffffffffffffffffffffffffffff1614610667576105dd816103a0565b600960008373ffffffffffffffffffffffffffffffffffffffff1673ffffffffffffffffffffffffffffffffffffffff16815260200190815260200160002081905550600754600860008373ffffffffffffffffffffffffffffffffffffffff1673ffffffffffffffffffffffffffffffffffffffff168152602001908152602001600020819055505b5b60045461067e834261160390919063ffffffff16565b10156106bf576040517f08c379a00000000000000000000000000000000000000000000000000000000081526004016106b690611ef0565b60405180910390fd5b60045442106106e6576106db82846115ed90919063ffffffff16565b600581905550610746565b60006106fd426004546115c190919063ffffffff16565b90506000610716600554836115d790919063ffffffff16565b905061073d8461072f838861160390919063ffffffff16565b6115ed90919063ffffffff16565b60058190555050505b6000600260009054906101000a900473ffffffffffffffffffffffffffffffffffffffff1673ffffffffffffffffffffffffffffffffffffffff166370a08231306040518263ffffffff1660e01b81526004016107a39190611d98565b60206040518083038186803b1580156107bb57600080fd5b505afa1580156107cf573d6000803e3d6000fd5b505050506040513d601f19601f820116820180604052508101906107f39190611a99565b905061080883826115ed90919063ffffffff16565b600554111561084c576040517f08c379a000000000000000000000000000000000000000000000000000000000815260040161084390611f30565b60405180910390fd5b42600681905550610866834261160390919063ffffffff16565b6004819055507f6c07ee05dcf262f13abf9d87b846ee789d2f90fe991d495acd7d7fc109ee1f558460045460405161089f929190611feb565b60405180910390a150505050565b60018060008282546108bf9190612046565b925050819055506000600154905060008211610910576040517f08c379a000000000000000000000000000000000000000000000000000000000815260040161090790611f10565b60405180910390fd5b61092582600a546115c190919063ffffffff16565b600a8190555061097d82600b60003373ffffffffffffffffffffffffffffffffffffffff1673ffffffffffffffffffffffffffffffffffffffff168152602001908152602001600020546115c190919063ffffffff16565b600b60003373ffffffffffffffffffffffffffffffffffffffff1673ffffffffffffffffffffffffffffffffffffffff16815260200190815260200160002081905550610a0d3383600360009054906101000a900473ffffffffffffffffffffffffffffffffffffffff1673ffffffffffffffffffffffffffffffffffffffff166116199092919063ffffffff16565b3373ffffffffffffffffffffffffffffffffffffffff167f7084f5476618d8e60b11ef0d7d3f06914655adb8793e28ff7f018d4c76d505d583604051610a539190611fd0565b60405180910390a26001548114610a9f576040517f08c379a0000000000000000000000000000000000000000000000000000000008152600401610a9690611fb0565b60405180910390fd5b5050565b6001806000828254610ab59190612046565b925050819055506000600154905033600c60009054906101000a900460ff16610bbc57610ae061117b565b600781905550610aee61114a565b600681905550600073ffffffffffffffffffffffffffffffffffffffff168173ffffffffffffffffffffffffffffffffffffffff1614610bbb57610b31816103a0565b600960008373ffffffffffffffffffffffffffffffffffffffff1673ffffffffffffffffffffffffffffffffffffffff16815260200190815260200160002081905550600754600860008373ffffffffffffffffffffffffffffffffffffffff1673ffffffffffffffffffffffffffffffffffffffff168152602001908152602001600020819055505b5b600c60009054906101000a900460ff1615610c0c576040517f08c379a0000000000000000000000000000000000000000000000000000000008152600401610c0390611e50565b60405180910390fd5b6000600960003373ffffffffffffffffffffffffffffffffffffffff1673ffffffffffffffffffffffffffffffffffffffff1681526020019081526020016000205490506000811115610d3a576000600960003373ffffffffffffffffffffffffffffffffffffffff1673ffffffffffffffffffffffffffffffffffffffff16815260200190815260200160002081905550610ceb3382600260009054906101000a900473ffffffffffffffffffffffffffffffffffffffff1673ffffffffffffffffffffffffffffffffffffffff166116199092919063ffffffff16565b3373ffffffffffffffffffffffffffffffffffffffff167fe2403640ba68fed3a2f88b7557551d1993f84b99bb10ff833f0cf8db0c5e048682604051610d319190611fd0565b60405180910390a25b50506001548114610d80576040517f08c379a0000000000000000000000000000000000000000000000000000000008152600401610d7790611fb0565b60405180910390fd5b50565b60008054906101000a900473ffffffffffffffffffffffffffffffffffffffff1681565b6000600b60008373ffffffffffffffffffffffffffffffffffffffff1673ffffffffffffffffffffffffffffffffffffffff168152602001908152602001600020549050919050565b600360009054906101000a900473ffffffffffffffffffffffffffffffffffffffff1681565b6001806000828254610e289190612046565b925050819055506000600154905033600c60009054906101000a900460ff16610f2f57610e5361117b565b600781905550610e6161114a565b600681905550600073ffffffffffffffffffffffffffffffffffffffff168173ffffffffffffffffffffffffffffffffffffffff1614610f2e57610ea4816103a0565b600960008373ffffffffffffffffffffffffffffffffffffffff1673ffffffffffffffffffffffffffffffffffffffff16815260200190815260200160002081905550600754600860008373ffffffffffffffffffffffffffffffffffffffff1673ffffffffffffffffffffffffffffffffffffffff168152602001908152602001600020819055505b5b60008411610f72576040517f08c379a0000000000000000000000000000000000000000000000000000000008152600401610f6990611e90565b60405180910390fd5b610f8784600a5461160390919063ffffffff16565b600a81905550610fdf84600b60003373ffffffffffffffffffffffffffffffffffffffff1673ffffffffffffffffffffffffffffffffffffffff1681526020019081526020016000205461160390919063ffffffff16565b600b60003373ffffffffffffffffffffffffffffffffffffffff1673ffffffffffffffffffffffffffffffffffffffff168152602001908152602001600020819055507fc90ba2f1821a1933b06a152b152556d33fb65bcc1366bfa839c68715b039f61583308660405161105593929190611db3565b60405180910390a16110ac333086600360009054906101000a900473ffffffffffffffffffffffffffffffffffffffff1673ffffffffffffffffffffffffffffffffffffffff1661169f909392919063ffffffff16565b3373ffffffffffffffffffffffffffffffffffffffff167f9e71bc8eea02a63969f509818f2dafb9254532904319f9dbda79b67bd34a5f3d856040516110f29190611fd0565b60405180910390a250600154811461113f576040517f08c379a000000000000000000000000000000000000000000000000000000000815260040161113690611fb0565b60405180910390fd5b505050565b60055481565b600061115842600454611728565b905090565b60086020528060005260406000206000915090505481565b60065481565b600080600a541415611191576007549050611206565b6112036111f2600a546111e4670de0b6b3a76400006111d66005546111c86006546111ba61114a565b6115c190919063ffffffff16565b6115d790919063ffffffff16565b6115d790919063ffffffff16565b6115ed90919063ffffffff16565b60075461160390919063ffffffff16565b90505b90565b600260009054906101000a900473ffffffffffffffffffffffffffffffffffffffff1681565b60018060008282546112419190612046565b925050819055506000600154905033600c60009054906101000a900460ff166113485761126c61117b565b60078190555061127a61114a565b600681905550600073ffffffffffffffffffffffffffffffffffffffff168173ffffffffffffffffffffffffffffffffffffffff1614611347576112bd816103a0565b600960008373ffffffffffffffffffffffffffffffffffffffff1673ffffffffffffffffffffffffffffffffffffffff16815260200190815260200160002081905550600754600860008373ffffffffffffffffffffffffffffffffffffffff1673ffffffffffffffffffffffffffffffffffffffff168152602001908152602001600020819055505b5b6001600c60006101000a81548160ff021916908315150217905550824261136f9190612046565b600d819055505060015481146113ba576040517f08c379a00000000000000000000000000000000000000000000000000000000081526004016113b190611fb0565b60405180910390fd5b5050565b60075481565b600c60009054906101000a900460ff16611413576040517f08c379a000000000000000000000000000000000000000000000000000000000815260040161140a90611ed0565b60405180910390fd5b600d54421015611458576040517f08c379a000000000000000000000000000000000000000000000000000000000815260040161144f90611e70565b60405180910390fd5b6114a0600b60003373ffffffffffffffffffffffffffffffffffffffff1673ffffffffffffffffffffffffffffffffffffffff168152602001908152602001600020546108ad565b61152c33600960003373ffffffffffffffffffffffffffffffffffffffff1673ffffffffffffffffffffffffffffffffffffffff16815260200190815260200160002054600260009054906101000a900473ffffffffffffffffffffffffffffffffffffffff1673ffffffffffffffffffffffffffffffffffffffff166116199092919063ffffffff16565b3373ffffffffffffffffffffffffffffffffffffffff167fe2403640ba68fed3a2f88b7557551d1993f84b99bb10ff833f0cf8db0c5e0486600960003373ffffffffffffffffffffffffffffffffffffffff1673ffffffffffffffffffffffffffffffffffffffff168152602001908152602001600020546040516115b19190611fd0565b60405180910390a2565b60045481565b600081836115cf9190612127565b905092915050565b600081836115e591906120cd565b905092915050565b600081836115fb919061209c565b905092915050565b600081836116119190612046565b905092915050565b61169a8363a9059cbb60e01b8484604051602401611638929190611dea565b604051602081830303815290604052907bffffffffffffffffffffffffffffffffffffffffffffffffffffffff19166020820180517bffffffffffffffffffffffffffffffffffffffffffffffffffffffff8381831617835250505050611741565b505050565b611722846323b872dd60e01b8585856040516024016116c093929190611db3565b604051602081830303815290604052907bffffffffffffffffffffffffffffffffffffffffffffffffffffffff19166020820180517bffffffffffffffffffffffffffffffffffffffffffffffffffffffff8381831617835250505050611741565b50505050565b60008183106117375781611739565b825b905092915050565b60006117a3826040518060400160405280602081526020017f5361666545524332303a206c6f772d6c6576656c2063616c6c206661696c65648152508573ffffffffffffffffffffffffffffffffffffffff166118089092919063ffffffff16565b905060008151111561180357808060200190518101906117c39190611a3f565b611802576040517f08c379a00000000000000000000000000000000000000000000000000000000081526004016117f990611f90565b60405180910390fd5b5b505050565b60606118178484600085611820565b90509392505050565b606082471015611865576040517f08c379a000000000000000000000000000000000000000000000000000000000815260040161185c90611eb0565b60405180910390fd5b61186e85611934565b6118ad576040517f08c379a00000000000000000000000000000000000000000000000000000000081526004016118a490611f50565b60405180910390fd5b6000808673ffffffffffffffffffffffffffffffffffffffff1685876040516118d69190611d81565b60006040518083038185875af1925050503d8060008114611913576040519150601f19603f3d011682016040523d82523d6000602084013e611918565b606091505b5091509150611928828286611957565b92505050949350505050565b6000808273ffffffffffffffffffffffffffffffffffffffff163b119050919050565b60608315611967578290506119b7565b60008351111561197a5782518084602001fd5b816040517f08c379a00000000000000000000000000000000000000000000000000000000081526004016119ae9190611e2e565b60405180910390fd5b9392505050565b6000813590506119cd816124de565b92915050565b6000815190506119e2816124f5565b92915050565b6000813590506119f78161250c565b92915050565b600081519050611a0c8161250c565b92915050565b600060208284031215611a2857611a2761226a565b5b6000611a36848285016119be565b91505092915050565b600060208284031215611a5557611a5461226a565b5b6000611a63848285016119d3565b91505092915050565b600060208284031215611a8257611a8161226a565b5b6000611a90848285016119e8565b91505092915050565b600060208284031215611aaf57611aae61226a565b5b6000611abd848285016119fd565b91505092915050565b60008060408385031215611add57611adc61226a565b5b6000611aeb858286016119e8565b9250506020611afc858286016119be565b9150509250929050565b60008060408385031215611b1d57611b1c61226a565b5b6000611b2b858286016119e8565b9250506020611b3c858286016119e8565b9150509250929050565b611b4f8161215b565b82525050565b6000611b6082612014565b611b6a818561202a565b9350611b7a8185602086016121d9565b80840191505092915050565b611b8f816121a3565b82525050565b6000611ba08261201f565b611baa8185612035565b9350611bba8185602086016121d9565b611bc38161226f565b840191505092915050565b6000611bdb601983612035565b9150611be682612280565b602082019050919050565b6000611bfe601c83612035565b9150611c09826122a9565b602082019050919050565b6000611c21600e83612035565b9150611c2c826122d2565b602082019050919050565b6000611c44602683612035565b9150611c4f826122fb565b604082019050919050565b6000611c67601683612035565b9150611c728261234a565b602082019050919050565b6000611c8a601d83612035565b9150611c9582612373565b602082019050919050565b6000611cad601183612035565b9150611cb88261239c565b602082019050919050565b6000611cd0601883612035565b9150611cdb826123c5565b602082019050919050565b6000611cf3601d83612035565b9150611cfe826123ee565b602082019050919050565b6000611d16602a83612035565b9150611d2182612417565b604082019050919050565b6000611d39602a83612035565b9150611d4482612466565b604082019050919050565b6000611d5c601f83612035565b9150611d67826124b5565b602082019050919050565b611d7b81612199565b82525050565b6000611d8d8284611b55565b915081905092915050565b6000602082019050611dad6000830184611b46565b92915050565b6000606082019050611dc86000830186611b46565b611dd56020830185611b46565b611de26040830184611d72565b949350505050565b6000604082019050611dff6000830185611b46565b611e0c6020830184611d72565b9392505050565b6000602082019050611e286000830184611b86565b92915050565b60006020820190508181036000830152611e488184611b95565b905092915050565b60006020820190508181036000830152611e6981611bce565b9050919050565b60006020820190508181036000830152611e8981611bf1565b9050919050565b60006020820190508181036000830152611ea981611c14565b9050919050565b60006020820190508181036000830152611ec981611c37565b9050919050565b60006020820190508181036000830152611ee981611c5a565b9050919050565b60006020820190508181036000830152611f0981611c7d565b9050919050565b60006020820190508181036000830152611f2981611ca0565b9050919050565b60006020820190508181036000830152611f4981611cc3565b9050919050565b60006020820190508181036000830152611f6981611ce6565b9050919050565b60006020820190508181036000830152611f8981611d09565b9050919050565b60006020820190508181036000830152611fa981611d2c565b9050919050565b60006020820190508181036000830152611fc981611d4f565b9050919050565b6000602082019050611fe56000830184611d72565b92915050565b60006040820190506120006000830185611d72565b61200d6020830184611d72565b9392505050565b600081519050919050565b600081519050919050565b600081905092915050565b600082825260208201905092915050565b600061205182612199565b915061205c83612199565b9250827fffffffffffffffffffffffffffffffffffffffffffffffffffffffffffffffff038211156120915761209061220c565b5b828201905092915050565b60006120a782612199565b91506120b283612199565b9250826120c2576120c161223b565b5b828204905092915050565b60006120d882612199565b91506120e383612199565b9250817fffffffffffffffffffffffffffffffffffffffffffffffffffffffffffffffff048311821515161561211c5761211b61220c565b5b828202905092915050565b600061213282612199565b915061213d83612199565b9250828210156121505761214f61220c565b5b828203905092915050565b600061216682612179565b9050919050565b60008115159050919050565b600073ffffffffffffffffffffffffffffffffffffffff82169050919050565b6000819050919050565b60006121ae826121b5565b9050919050565b60006121c0826121c7565b9050919050565b60006121d282612179565b9050919050565b60005b838110156121f75780820151818401526020810190506121dc565b83811115612206576000848401525b50505050565b7f4e487b7100000000000000000000000000000000000000000000000000000000600052601160045260246000fd5b7f4e487b7100000000000000000000000000000000000000000000000000000000600052601260045260246000fd5b600080fd5b6000601f19601f8301169050919050565b7f756e626f756e64696e6720706572696f64207374617274656400000000000000600082015250565b7f756e626f756e64696e6720706572696f642069736e2774206f76657200000000600082015250565b7f43616e6e6f74207374616b652030000000000000000000000000000000000000600082015250565b7f416464726573733a20696e73756666696369656e742062616c616e636520666f60008201527f722063616c6c0000000000000000000000000000000000000000000000000000602082015250565b7f756e626f756e64696e67206e6f74207374617274656400000000000000000000600082015250565b7f43616e6e6f7420726564756365206578697374696e6720706572696f64000000600082015250565b7f43616e6e6f742077697468647261772030000000000000000000000000000000600082015250565b7f50726f76696465642072657761726420746f6f20686967680000000000000000600082015250565b7f416464726573733a2063616c6c20746f206e6f6e2d636f6e7472616374000000600082015250565b7f43616c6c6572206973206e6f742052657761726473446973747269627574696f60008201527f6e20636f6e747261637400000000000000000000000000000000000000000000602082015250565b7f5361666545524332303a204552433230206f7065726174696f6e20646964206e60008201527f6f74207375636365656400000000000000000000000000000000000000000000602082015250565b7f5265656e7472616e637947756172643a207265656e7472616e742063616c6c00600082015250565b6124e78161215b565b81146124f257600080fd5b50565b6124fe8161216d565b811461250957600080fd5b50565b61251581612199565b811461252057600080fd5b5056fea2646970667358221220661a42cdd73d13ac28f13ee778064be9831d1fc2b498cb53dd98131a37e965d664736f6c63430008070033",
					"opcodes": "PUSH1 0x80 PUSH1 0x40 MSTORE PUSH1 0x0 PUSH1 0x4 SSTORE PUSH1 0x0 PUSH1 0x5 SSTORE CALLVALUE DUP1 ISZERO PUSH3 0x1B JUMPI PUSH1 0x0 DUP1 REVERT JUMPDEST POP PUSH1 0x40 MLOAD PUSH3 0x2742 CODESIZE SUB DUP1 PUSH3 0x2742 DUP4 CODECOPY DUP2 DUP2 ADD PUSH1 0x40 MSTORE DUP2 ADD SWAP1 PUSH3 0x41 SWAP2 SWAP1 PUSH3 0x12A JUMP JUMPDEST PUSH1 0x1 DUP1 DUP2 SWAP1 SSTORE POP DUP2 PUSH1 0x2 PUSH1 0x0 PUSH2 0x100 EXP DUP2 SLOAD DUP2 PUSH20 0xFFFFFFFFFFFFFFFFFFFFFFFFFFFFFFFFFFFFFFFF MUL NOT AND SWAP1 DUP4 PUSH20 0xFFFFFFFFFFFFFFFFFFFFFFFFFFFFFFFFFFFFFFFF AND MUL OR SWAP1 SSTORE POP DUP1 PUSH1 0x3 PUSH1 0x0 PUSH2 0x100 EXP DUP2 SLOAD DUP2 PUSH20 0xFFFFFFFFFFFFFFFFFFFFFFFFFFFFFFFFFFFFFFFF MUL NOT AND SWAP1 DUP4 PUSH20 0xFFFFFFFFFFFFFFFFFFFFFFFFFFFFFFFFFFFFFFFF AND MUL OR SWAP1 SSTORE POP DUP3 PUSH1 0x0 DUP1 PUSH2 0x100 EXP DUP2 SLOAD DUP2 PUSH20 0xFFFFFFFFFFFFFFFFFFFFFFFFFFFFFFFFFFFFFFFF MUL NOT AND SWAP1 DUP4 PUSH20 0xFFFFFFFFFFFFFFFFFFFFFFFFFFFFFFFFFFFFFFFF AND MUL OR SWAP1 SSTORE POP POP POP POP PUSH3 0x1D9 JUMP JUMPDEST PUSH1 0x0 DUP2 MLOAD SWAP1 POP PUSH3 0x124 DUP2 PUSH3 0x1BF JUMP JUMPDEST SWAP3 SWAP2 POP POP JUMP JUMPDEST PUSH1 0x0 DUP1 PUSH1 0x0 PUSH1 0x60 DUP5 DUP7 SUB SLT ISZERO PUSH3 0x146 JUMPI PUSH3 0x145 PUSH3 0x1BA JUMP JUMPDEST JUMPDEST PUSH1 0x0 PUSH3 0x156 DUP7 DUP3 DUP8 ADD PUSH3 0x113 JUMP JUMPDEST SWAP4 POP POP PUSH1 0x20 PUSH3 0x169 DUP7 DUP3 DUP8 ADD PUSH3 0x113 JUMP JUMPDEST SWAP3 POP POP PUSH1 0x40 PUSH3 0x17C DUP7 DUP3 DUP8 ADD PUSH3 0x113 JUMP JUMPDEST SWAP2 POP POP SWAP3 POP SWAP3 POP SWAP3 JUMP JUMPDEST PUSH1 0x0 PUSH3 0x193 DUP3 PUSH3 0x19A JUMP JUMPDEST SWAP1 POP SWAP2 SWAP1 POP JUMP JUMPDEST PUSH1 0x0 PUSH20 0xFFFFFFFFFFFFFFFFFFFFFFFFFFFFFFFFFFFFFFFF DUP3 AND SWAP1 POP SWAP2 SWAP1 POP JUMP JUMPDEST PUSH1 0x0 DUP1 REVERT JUMPDEST PUSH3 0x1CA DUP2 PUSH3 0x186 JUMP JUMPDEST DUP2 EQ PUSH3 0x1D6 JUMPI PUSH1 0x0 DUP1 REVERT JUMPDEST POP JUMP JUMPDEST PUSH2 0x2559 DUP1 PUSH3 0x1E9 PUSH1 0x0 CODECOPY PUSH1 0x0 RETURN INVALID PUSH1 0x80 PUSH1 0x40 MSTORE CALLVALUE DUP1 ISZERO PUSH2 0x10 JUMPI PUSH1 0x0 DUP1 REVERT JUMPDEST POP PUSH1 0x4 CALLDATASIZE LT PUSH2 0x12B JUMPI PUSH1 0x0 CALLDATALOAD PUSH1 0xE0 SHR DUP1 PUSH4 0x7B0A47EE GT PUSH2 0xAD JUMPI DUP1 PUSH4 0xD1AF0C7D GT PUSH2 0x71 JUMPI DUP1 PUSH4 0xD1AF0C7D EQ PUSH2 0x320 JUMPI DUP1 PUSH4 0xD505493D EQ PUSH2 0x33E JUMPI DUP1 PUSH4 0xDF136D65 EQ PUSH2 0x35A JUMPI DUP1 PUSH4 0xE9FAD8EE EQ PUSH2 0x378 JUMPI DUP1 PUSH4 0xEBE2B12B EQ PUSH2 0x382 JUMPI PUSH2 0x12B JUMP JUMPDEST DUP1 PUSH4 0x7B0A47EE EQ PUSH2 0x278 JUMPI DUP1 PUSH4 0x80FAA57D EQ PUSH2 0x296 JUMPI DUP1 PUSH4 0x8B876347 EQ PUSH2 0x2B4 JUMPI DUP1 PUSH4 0xC8F33C91 EQ PUSH2 0x2E4 JUMPI DUP1 PUSH4 0xCD3DAF9D EQ PUSH2 0x302 JUMPI PUSH2 0x12B JUMP JUMPDEST DUP1 PUSH4 0x3D18B912 GT PUSH2 0xF4 JUMPI DUP1 PUSH4 0x3D18B912 EQ PUSH2 0x1E6 JUMPI DUP1 PUSH4 0x3FC6DF6E EQ PUSH2 0x1F0 JUMPI DUP1 PUSH4 0x70A08231 EQ PUSH2 0x20E JUMPI DUP1 PUSH4 0x72F702F3 EQ PUSH2 0x23E JUMPI DUP1 PUSH4 0x7ACB7757 EQ PUSH2 0x25C JUMPI PUSH2 0x12B JUMP JUMPDEST DUP1 PUSH3 0x8CC262 EQ PUSH2 0x130 JUMPI DUP1 PUSH4 0x700037D EQ PUSH2 0x160 JUMPI DUP1 PUSH4 0x18160DDD EQ PUSH2 0x190 JUMPI DUP1 PUSH4 0x246132F9 EQ PUSH2 0x1AE JUMPI DUP1 PUSH4 0x2E1A7D4D EQ PUSH2 0x1CA JUMPI JUMPDEST PUSH1 0x0 DUP1 REVERT JUMPDEST PUSH2 0x14A PUSH1 0x4 DUP1 CALLDATASIZE SUB DUP2 ADD SWAP1 PUSH2 0x145 SWAP2 SWAP1 PUSH2 0x1A12 JUMP JUMPDEST PUSH2 0x3A0 JUMP JUMPDEST PUSH1 0x40 MLOAD PUSH2 0x157 SWAP2 SWAP1 PUSH2 0x1FD0 JUMP JUMPDEST PUSH1 0x40 MLOAD DUP1 SWAP2 SUB SWAP1 RETURN JUMPDEST PUSH2 0x17A PUSH1 0x4 DUP1 CALLDATASIZE SUB DUP2 ADD SWAP1 PUSH2 0x175 SWAP2 SWAP1 PUSH2 0x1A12 JUMP JUMPDEST PUSH2 0x4BE JUMP JUMPDEST PUSH1 0x40 MLOAD PUSH2 0x187 SWAP2 SWAP1 PUSH2 0x1FD0 JUMP JUMPDEST PUSH1 0x40 MLOAD DUP1 SWAP2 SUB SWAP1 RETURN JUMPDEST PUSH2 0x198 PUSH2 0x4D6 JUMP JUMPDEST PUSH1 0x40 MLOAD PUSH2 0x1A5 SWAP2 SWAP1 PUSH2 0x1FD0 JUMP JUMPDEST PUSH1 0x40 MLOAD DUP1 SWAP2 SUB SWAP1 RETURN JUMPDEST PUSH2 0x1C8 PUSH1 0x4 DUP1 CALLDATASIZE SUB DUP2 ADD SWAP1 PUSH2 0x1C3 SWAP2 SWAP1 PUSH2 0x1B06 JUMP JUMPDEST PUSH2 0x4E0 JUMP JUMPDEST STOP JUMPDEST PUSH2 0x1E4 PUSH1 0x4 DUP1 CALLDATASIZE SUB DUP2 ADD SWAP1 PUSH2 0x1DF SWAP2 SWAP1 PUSH2 0x1A6C JUMP JUMPDEST PUSH2 0x8AD JUMP JUMPDEST STOP JUMPDEST PUSH2 0x1EE PUSH2 0xAA3 JUMP JUMPDEST STOP JUMPDEST PUSH2 0x1F8 PUSH2 0xD83 JUMP JUMPDEST PUSH1 0x40 MLOAD PUSH2 0x205 SWAP2 SWAP1 PUSH2 0x1D98 JUMP JUMPDEST PUSH1 0x40 MLOAD DUP1 SWAP2 SUB SWAP1 RETURN JUMPDEST PUSH2 0x228 PUSH1 0x4 DUP1 CALLDATASIZE SUB DUP2 ADD SWAP1 PUSH2 0x223 SWAP2 SWAP1 PUSH2 0x1A12 JUMP JUMPDEST PUSH2 0xDA7 JUMP JUMPDEST PUSH1 0x40 MLOAD PUSH2 0x235 SWAP2 SWAP1 PUSH2 0x1FD0 JUMP JUMPDEST PUSH1 0x40 MLOAD DUP1 SWAP2 SUB SWAP1 RETURN JUMPDEST PUSH2 0x246 PUSH2 0xDF0 JUMP JUMPDEST PUSH1 0x40 MLOAD PUSH2 0x253 SWAP2 SWAP1 PUSH2 0x1E13 JUMP JUMPDEST PUSH1 0x40 MLOAD DUP1 SWAP2 SUB SWAP1 RETURN JUMPDEST PUSH2 0x276 PUSH1 0x4 DUP1 CALLDATASIZE SUB DUP2 ADD SWAP1 PUSH2 0x271 SWAP2 SWAP1 PUSH2 0x1AC6 JUMP JUMPDEST PUSH2 0xE16 JUMP JUMPDEST STOP JUMPDEST PUSH2 0x280 PUSH2 0x1144 JUMP JUMPDEST PUSH1 0x40 MLOAD PUSH2 0x28D SWAP2 SWAP1 PUSH2 0x1FD0 JUMP JUMPDEST PUSH1 0x40 MLOAD DUP1 SWAP2 SUB SWAP1 RETURN JUMPDEST PUSH2 0x29E PUSH2 0x114A JUMP JUMPDEST PUSH1 0x40 MLOAD PUSH2 0x2AB SWAP2 SWAP1 PUSH2 0x1FD0 JUMP JUMPDEST PUSH1 0x40 MLOAD DUP1 SWAP2 SUB SWAP1 RETURN JUMPDEST PUSH2 0x2CE PUSH1 0x4 DUP1 CALLDATASIZE SUB DUP2 ADD SWAP1 PUSH2 0x2C9 SWAP2 SWAP1 PUSH2 0x1A12 JUMP JUMPDEST PUSH2 0x115D JUMP JUMPDEST PUSH1 0x40 MLOAD PUSH2 0x2DB SWAP2 SWAP1 PUSH2 0x1FD0 JUMP JUMPDEST PUSH1 0x40 MLOAD DUP1 SWAP2 SUB SWAP1 RETURN JUMPDEST PUSH2 0x2EC PUSH2 0x1175 JUMP JUMPDEST PUSH1 0x40 MLOAD PUSH2 0x2F9 SWAP2 SWAP1 PUSH2 0x1FD0 JUMP JUMPDEST PUSH1 0x40 MLOAD DUP1 SWAP2 SUB SWAP1 RETURN JUMPDEST PUSH2 0x30A PUSH2 0x117B JUMP JUMPDEST PUSH1 0x40 MLOAD PUSH2 0x317 SWAP2 SWAP1 PUSH2 0x1FD0 JUMP JUMPDEST PUSH1 0x40 MLOAD DUP1 SWAP2 SUB SWAP1 RETURN JUMPDEST PUSH2 0x328 PUSH2 0x1209 JUMP JUMPDEST PUSH1 0x40 MLOAD PUSH2 0x335 SWAP2 SWAP1 PUSH2 0x1E13 JUMP JUMPDEST PUSH1 0x40 MLOAD DUP1 SWAP2 SUB SWAP1 RETURN JUMPDEST PUSH2 0x358 PUSH1 0x4 DUP1 CALLDATASIZE SUB DUP2 ADD SWAP1 PUSH2 0x353 SWAP2 SWAP1 PUSH2 0x1A6C JUMP JUMPDEST PUSH2 0x122F JUMP JUMPDEST STOP JUMPDEST PUSH2 0x362 PUSH2 0x13BE JUMP JUMPDEST PUSH1 0x40 MLOAD PUSH2 0x36F SWAP2 SWAP1 PUSH2 0x1FD0 JUMP JUMPDEST PUSH1 0x40 MLOAD DUP1 SWAP2 SUB SWAP1 RETURN JUMPDEST PUSH2 0x380 PUSH2 0x13C4 JUMP JUMPDEST STOP JUMPDEST PUSH2 0x38A PUSH2 0x15BB JUMP JUMPDEST PUSH1 0x40 MLOAD PUSH2 0x397 SWAP2 SWAP1 PUSH2 0x1FD0 JUMP JUMPDEST PUSH1 0x40 MLOAD DUP1 SWAP2 SUB SWAP1 RETURN JUMPDEST PUSH1 0x0 PUSH2 0x4B7 PUSH1 0x9 PUSH1 0x0 DUP5 PUSH20 0xFFFFFFFFFFFFFFFFFFFFFFFFFFFFFFFFFFFFFFFF AND PUSH20 0xFFFFFFFFFFFFFFFFFFFFFFFFFFFFFFFFFFFFFFFF AND DUP2 MSTORE PUSH1 0x20 ADD SWAP1 DUP2 MSTORE PUSH1 0x20 ADD PUSH1 0x0 KECCAK256 SLOAD PUSH2 0x4A9 PUSH8 0xDE0B6B3A7640000 PUSH2 0x49B PUSH2 0x44D PUSH1 0x8 PUSH1 0x0 DUP10 PUSH20 0xFFFFFFFFFFFFFFFFFFFFFFFFFFFFFFFFFFFFFFFF AND PUSH20 0xFFFFFFFFFFFFFFFFFFFFFFFFFFFFFFFFFFFFFFFF AND DUP2 MSTORE PUSH1 0x20 ADD SWAP1 DUP2 MSTORE PUSH1 0x20 ADD PUSH1 0x0 KECCAK256 SLOAD PUSH2 0x43F PUSH2 0x117B JUMP JUMPDEST PUSH2 0x15C1 SWAP1 SWAP2 SWAP1 PUSH4 0xFFFFFFFF AND JUMP JUMPDEST PUSH1 0xB PUSH1 0x0 DUP10 PUSH20 0xFFFFFFFFFFFFFFFFFFFFFFFFFFFFFFFFFFFFFFFF AND PUSH20 0xFFFFFFFFFFFFFFFFFFFFFFFFFFFFFFFFFFFFFFFF AND DUP2 MSTORE PUSH1 0x20 ADD SWAP1 DUP2 MSTORE PUSH1 0x20 ADD PUSH1 0x0 KECCAK256 SLOAD PUSH2 0x15D7 SWAP1 SWAP2 SWAP1 PUSH4 0xFFFFFFFF AND JUMP JUMPDEST PUSH2 0x15ED SWAP1 SWAP2 SWAP1 PUSH4 0xFFFFFFFF AND JUMP JUMPDEST PUSH2 0x1603 SWAP1 SWAP2 SWAP1 PUSH4 0xFFFFFFFF AND JUMP JUMPDEST SWAP1 POP SWAP2 SWAP1 POP JUMP JUMPDEST PUSH1 0x9 PUSH1 0x20 MSTORE DUP1 PUSH1 0x0 MSTORE PUSH1 0x40 PUSH1 0x0 KECCAK256 PUSH1 0x0 SWAP2 POP SWAP1 POP SLOAD DUP2 JUMP JUMPDEST PUSH1 0x0 PUSH1 0xA SLOAD SWAP1 POP SWAP1 JUMP JUMPDEST PUSH1 0x0 DUP1 SLOAD SWAP1 PUSH2 0x100 EXP SWAP1 DIV PUSH20 0xFFFFFFFFFFFFFFFFFFFFFFFFFFFFFFFFFFFFFFFF AND PUSH20 0xFFFFFFFFFFFFFFFFFFFFFFFFFFFFFFFFFFFFFFFF AND CALLER PUSH20 0xFFFFFFFFFFFFFFFFFFFFFFFFFFFFFFFFFFFFFFFF AND EQ PUSH2 0x56E JUMPI PUSH1 0x40 MLOAD PUSH32 0x8C379A000000000000000000000000000000000000000000000000000000000 DUP2 MSTORE PUSH1 0x4 ADD PUSH2 0x565 SWAP1 PUSH2 0x1F70 JUMP JUMPDEST PUSH1 0x40 MLOAD DUP1 SWAP2 SUB SWAP1 REVERT JUMPDEST PUSH1 0x0 PUSH1 0xC PUSH1 0x0 SWAP1 SLOAD SWAP1 PUSH2 0x100 EXP SWAP1 DIV PUSH1 0xFF AND PUSH2 0x668 JUMPI PUSH2 0x58C PUSH2 0x117B JUMP JUMPDEST PUSH1 0x7 DUP2 SWAP1 SSTORE POP PUSH2 0x59A PUSH2 0x114A JUMP JUMPDEST PUSH1 0x6 DUP2 SWAP1 SSTORE POP PUSH1 0x0 PUSH20 0xFFFFFFFFFFFFFFFFFFFFFFFFFFFFFFFFFFFFFFFF AND DUP2 PUSH20 0xFFFFFFFFFFFFFFFFFFFFFFFFFFFFFFFFFFFFFFFF AND EQ PUSH2 0x667 JUMPI PUSH2 0x5DD DUP2 PUSH2 0x3A0 JUMP JUMPDEST PUSH1 0x9 PUSH1 0x0 DUP4 PUSH20 0xFFFFFFFFFFFFFFFFFFFFFFFFFFFFFFFFFFFFFFFF AND PUSH20 0xFFFFFFFFFFFFFFFFFFFFFFFFFFFFFFFFFFFFFFFF AND DUP2 MSTORE PUSH1 0x20 ADD SWAP1 DUP2 MSTORE PUSH1 0x20 ADD PUSH1 0x0 KECCAK256 DUP2 SWAP1 SSTORE POP PUSH1 0x7 SLOAD PUSH1 0x8 PUSH1 0x0 DUP4 PUSH20 0xFFFFFFFFFFFFFFFFFFFFFFFFFFFFFFFFFFFFFFFF AND PUSH20 0xFFFFFFFFFFFFFFFFFFFFFFFFFFFFFFFFFFFFFFFF AND DUP2 MSTORE PUSH1 0x20 ADD SWAP1 DUP2 MSTORE PUSH1 0x20 ADD PUSH1 0x0 KECCAK256 DUP2 SWAP1 SSTORE POP JUMPDEST JUMPDEST PUSH1 0x4 SLOAD PUSH2 0x67E DUP4 TIMESTAMP PUSH2 0x1603 SWAP1 SWAP2 SWAP1 PUSH4 0xFFFFFFFF AND JUMP JUMPDEST LT ISZERO PUSH2 0x6BF JUMPI PUSH1 0x40 MLOAD PUSH32 0x8C379A000000000000000000000000000000000000000000000000000000000 DUP2 MSTORE PUSH1 0x4 ADD PUSH2 0x6B6 SWAP1 PUSH2 0x1EF0 JUMP JUMPDEST PUSH1 0x40 MLOAD DUP1 SWAP2 SUB SWAP1 REVERT JUMPDEST PUSH1 0x4 SLOAD TIMESTAMP LT PUSH2 0x6E6 JUMPI PUSH2 0x6DB DUP3 DUP5 PUSH2 0x15ED SWAP1 SWAP2 SWAP1 PUSH4 0xFFFFFFFF AND JUMP JUMPDEST PUSH1 0x5 DUP2 SWAP1 SSTORE POP PUSH2 0x746 JUMP JUMPDEST PUSH1 0x0 PUSH2 0x6FD TIMESTAMP PUSH1 0x4 SLOAD PUSH2 0x15C1 SWAP1 SWAP2 SWAP1 PUSH4 0xFFFFFFFF AND JUMP JUMPDEST SWAP1 POP PUSH1 0x0 PUSH2 0x716 PUSH1 0x5 SLOAD DUP4 PUSH2 0x15D7 SWAP1 SWAP2 SWAP1 PUSH4 0xFFFFFFFF AND JUMP JUMPDEST SWAP1 POP PUSH2 0x73D DUP5 PUSH2 0x72F DUP4 DUP9 PUSH2 0x1603 SWAP1 SWAP2 SWAP1 PUSH4 0xFFFFFFFF AND JUMP JUMPDEST PUSH2 0x15ED SWAP1 SWAP2 SWAP1 PUSH4 0xFFFFFFFF AND JUMP JUMPDEST PUSH1 0x5 DUP2 SWAP1 SSTORE POP POP POP JUMPDEST PUSH1 0x0 PUSH1 0x2 PUSH1 0x0 SWAP1 SLOAD SWAP1 PUSH2 0x100 EXP SWAP1 DIV PUSH20 0xFFFFFFFFFFFFFFFFFFFFFFFFFFFFFFFFFFFFFFFF AND PUSH20 0xFFFFFFFFFFFFFFFFFFFFFFFFFFFFFFFFFFFFFFFF AND PUSH4 0x70A08231 ADDRESS PUSH1 0x40 MLOAD DUP3 PUSH4 0xFFFFFFFF AND PUSH1 0xE0 SHL DUP2 MSTORE PUSH1 0x4 ADD PUSH2 0x7A3 SWAP2 SWAP1 PUSH2 0x1D98 JUMP JUMPDEST PUSH1 0x20 PUSH1 0x40 MLOAD DUP1 DUP4 SUB DUP2 DUP7 DUP1 EXTCODESIZE ISZERO DUP1 ISZERO PUSH2 0x7BB JUMPI PUSH1 0x0 DUP1 REVERT JUMPDEST POP GAS STATICCALL ISZERO DUP1 ISZERO PUSH2 0x7CF JUMPI RETURNDATASIZE PUSH1 0x0 DUP1 RETURNDATACOPY RETURNDATASIZE PUSH1 0x0 REVERT JUMPDEST POP POP POP POP PUSH1 0x40 MLOAD RETURNDATASIZE PUSH1 0x1F NOT PUSH1 0x1F DUP3 ADD AND DUP3 ADD DUP1 PUSH1 0x40 MSTORE POP DUP2 ADD SWAP1 PUSH2 0x7F3 SWAP2 SWAP1 PUSH2 0x1A99 JUMP JUMPDEST SWAP1 POP PUSH2 0x808 DUP4 DUP3 PUSH2 0x15ED SWAP1 SWAP2 SWAP1 PUSH4 0xFFFFFFFF AND JUMP JUMPDEST PUSH1 0x5 SLOAD GT ISZERO PUSH2 0x84C JUMPI PUSH1 0x40 MLOAD PUSH32 0x8C379A000000000000000000000000000000000000000000000000000000000 DUP2 MSTORE PUSH1 0x4 ADD PUSH2 0x843 SWAP1 PUSH2 0x1F30 JUMP JUMPDEST PUSH1 0x40 MLOAD DUP1 SWAP2 SUB SWAP1 REVERT JUMPDEST TIMESTAMP PUSH1 0x6 DUP2 SWAP1 SSTORE POP PUSH2 0x866 DUP4 TIMESTAMP PUSH2 0x1603 SWAP1 SWAP2 SWAP1 PUSH4 0xFFFFFFFF AND JUMP JUMPDEST PUSH1 0x4 DUP2 SWAP1 SSTORE POP PUSH32 0x6C07EE05DCF262F13ABF9D87B846EE789D2F90FE991D495ACD7D7FC109EE1F55 DUP5 PUSH1 0x4 SLOAD PUSH1 0x40 MLOAD PUSH2 0x89F SWAP3 SWAP2 SWAP1 PUSH2 0x1FEB JUMP JUMPDEST PUSH1 0x40 MLOAD DUP1 SWAP2 SUB SWAP1 LOG1 POP POP POP POP JUMP JUMPDEST PUSH1 0x1 DUP1 PUSH1 0x0 DUP3 DUP3 SLOAD PUSH2 0x8BF SWAP2 SWAP1 PUSH2 0x2046 JUMP JUMPDEST SWAP3 POP POP DUP2 SWAP1 SSTORE POP PUSH1 0x0 PUSH1 0x1 SLOAD SWAP1 POP PUSH1 0x0 DUP3 GT PUSH2 0x910 JUMPI PUSH1 0x40 MLOAD PUSH32 0x8C379A000000000000000000000000000000000000000000000000000000000 DUP2 MSTORE PUSH1 0x4 ADD PUSH2 0x907 SWAP1 PUSH2 0x1F10 JUMP JUMPDEST PUSH1 0x40 MLOAD DUP1 SWAP2 SUB SWAP1 REVERT JUMPDEST PUSH2 0x925 DUP3 PUSH1 0xA SLOAD PUSH2 0x15C1 SWAP1 SWAP2 SWAP1 PUSH4 0xFFFFFFFF AND JUMP JUMPDEST PUSH1 0xA DUP2 SWAP1 SSTORE POP PUSH2 0x97D DUP3 PUSH1 0xB PUSH1 0x0 CALLER PUSH20 0xFFFFFFFFFFFFFFFFFFFFFFFFFFFFFFFFFFFFFFFF AND PUSH20 0xFFFFFFFFFFFFFFFFFFFFFFFFFFFFFFFFFFFFFFFF AND DUP2 MSTORE PUSH1 0x20 ADD SWAP1 DUP2 MSTORE PUSH1 0x20 ADD PUSH1 0x0 KECCAK256 SLOAD PUSH2 0x15C1 SWAP1 SWAP2 SWAP1 PUSH4 0xFFFFFFFF AND JUMP JUMPDEST PUSH1 0xB PUSH1 0x0 CALLER PUSH20 0xFFFFFFFFFFFFFFFFFFFFFFFFFFFFFFFFFFFFFFFF AND PUSH20 0xFFFFFFFFFFFFFFFFFFFFFFFFFFFFFFFFFFFFFFFF AND DUP2 MSTORE PUSH1 0x20 ADD SWAP1 DUP2 MSTORE PUSH1 0x20 ADD PUSH1 0x0 KECCAK256 DUP2 SWAP1 SSTORE POP PUSH2 0xA0D CALLER DUP4 PUSH1 0x3 PUSH1 0x0 SWAP1 SLOAD SWAP1 PUSH2 0x100 EXP SWAP1 DIV PUSH20 0xFFFFFFFFFFFFFFFFFFFFFFFFFFFFFFFFFFFFFFFF AND PUSH20 0xFFFFFFFFFFFFFFFFFFFFFFFFFFFFFFFFFFFFFFFF AND PUSH2 0x1619 SWAP1 SWAP3 SWAP2 SWAP1 PUSH4 0xFFFFFFFF AND JUMP JUMPDEST CALLER PUSH20 0xFFFFFFFFFFFFFFFFFFFFFFFFFFFFFFFFFFFFFFFF AND PUSH32 0x7084F5476618D8E60B11EF0D7D3F06914655ADB8793E28FF7F018D4C76D505D5 DUP4 PUSH1 0x40 MLOAD PUSH2 0xA53 SWAP2 SWAP1 PUSH2 0x1FD0 JUMP JUMPDEST PUSH1 0x40 MLOAD DUP1 SWAP2 SUB SWAP1 LOG2 PUSH1 0x1 SLOAD DUP2 EQ PUSH2 0xA9F JUMPI PUSH1 0x40 MLOAD PUSH32 0x8C379A000000000000000000000000000000000000000000000000000000000 DUP2 MSTORE PUSH1 0x4 ADD PUSH2 0xA96 SWAP1 PUSH2 0x1FB0 JUMP JUMPDEST PUSH1 0x40 MLOAD DUP1 SWAP2 SUB SWAP1 REVERT JUMPDEST POP POP JUMP JUMPDEST PUSH1 0x1 DUP1 PUSH1 0x0 DUP3 DUP3 SLOAD PUSH2 0xAB5 SWAP2 SWAP1 PUSH2 0x2046 JUMP JUMPDEST SWAP3 POP POP DUP2 SWAP1 SSTORE POP PUSH1 0x0 PUSH1 0x1 SLOAD SWAP1 POP CALLER PUSH1 0xC PUSH1 0x0 SWAP1 SLOAD SWAP1 PUSH2 0x100 EXP SWAP1 DIV PUSH1 0xFF AND PUSH2 0xBBC JUMPI PUSH2 0xAE0 PUSH2 0x117B JUMP JUMPDEST PUSH1 0x7 DUP2 SWAP1 SSTORE POP PUSH2 0xAEE PUSH2 0x114A JUMP JUMPDEST PUSH1 0x6 DUP2 SWAP1 SSTORE POP PUSH1 0x0 PUSH20 0xFFFFFFFFFFFFFFFFFFFFFFFFFFFFFFFFFFFFFFFF AND DUP2 PUSH20 0xFFFFFFFFFFFFFFFFFFFFFFFFFFFFFFFFFFFFFFFF AND EQ PUSH2 0xBBB JUMPI PUSH2 0xB31 DUP2 PUSH2 0x3A0 JUMP JUMPDEST PUSH1 0x9 PUSH1 0x0 DUP4 PUSH20 0xFFFFFFFFFFFFFFFFFFFFFFFFFFFFFFFFFFFFFFFF AND PUSH20 0xFFFFFFFFFFFFFFFFFFFFFFFFFFFFFFFFFFFFFFFF AND DUP2 MSTORE PUSH1 0x20 ADD SWAP1 DUP2 MSTORE PUSH1 0x20 ADD PUSH1 0x0 KECCAK256 DUP2 SWAP1 SSTORE POP PUSH1 0x7 SLOAD PUSH1 0x8 PUSH1 0x0 DUP4 PUSH20 0xFFFFFFFFFFFFFFFFFFFFFFFFFFFFFFFFFFFFFFFF AND PUSH20 0xFFFFFFFFFFFFFFFFFFFFFFFFFFFFFFFFFFFFFFFF AND DUP2 MSTORE PUSH1 0x20 ADD SWAP1 DUP2 MSTORE PUSH1 0x20 ADD PUSH1 0x0 KECCAK256 DUP2 SWAP1 SSTORE POP JUMPDEST JUMPDEST PUSH1 0xC PUSH1 0x0 SWAP1 SLOAD SWAP1 PUSH2 0x100 EXP SWAP1 DIV PUSH1 0xFF AND ISZERO PUSH2 0xC0C JUMPI PUSH1 0x40 MLOAD PUSH32 0x8C379A000000000000000000000000000000000000000000000000000000000 DUP2 MSTORE PUSH1 0x4 ADD PUSH2 0xC03 SWAP1 PUSH2 0x1E50 JUMP JUMPDEST PUSH1 0x40 MLOAD DUP1 SWAP2 SUB SWAP1 REVERT JUMPDEST PUSH1 0x0 PUSH1 0x9 PUSH1 0x0 CALLER PUSH20 0xFFFFFFFFFFFFFFFFFFFFFFFFFFFFFFFFFFFFFFFF AND PUSH20 0xFFFFFFFFFFFFFFFFFFFFFFFFFFFFFFFFFFFFFFFF AND DUP2 MSTORE PUSH1 0x20 ADD SWAP1 DUP2 MSTORE PUSH1 0x20 ADD PUSH1 0x0 KECCAK256 SLOAD SWAP1 POP PUSH1 0x0 DUP2 GT ISZERO PUSH2 0xD3A JUMPI PUSH1 0x0 PUSH1 0x9 PUSH1 0x0 CALLER PUSH20 0xFFFFFFFFFFFFFFFFFFFFFFFFFFFFFFFFFFFFFFFF AND PUSH20 0xFFFFFFFFFFFFFFFFFFFFFFFFFFFFFFFFFFFFFFFF AND DUP2 MSTORE PUSH1 0x20 ADD SWAP1 DUP2 MSTORE PUSH1 0x20 ADD PUSH1 0x0 KECCAK256 DUP2 SWAP1 SSTORE POP PUSH2 0xCEB CALLER DUP3 PUSH1 0x2 PUSH1 0x0 SWAP1 SLOAD SWAP1 PUSH2 0x100 EXP SWAP1 DIV PUSH20 0xFFFFFFFFFFFFFFFFFFFFFFFFFFFFFFFFFFFFFFFF AND PUSH20 0xFFFFFFFFFFFFFFFFFFFFFFFFFFFFFFFFFFFFFFFF AND PUSH2 0x1619 SWAP1 SWAP3 SWAP2 SWAP1 PUSH4 0xFFFFFFFF AND JUMP JUMPDEST CALLER PUSH20 0xFFFFFFFFFFFFFFFFFFFFFFFFFFFFFFFFFFFFFFFF AND PUSH32 0xE2403640BA68FED3A2F88B7557551D1993F84B99BB10FF833F0CF8DB0C5E0486 DUP3 PUSH1 0x40 MLOAD PUSH2 0xD31 SWAP2 SWAP1 PUSH2 0x1FD0 JUMP JUMPDEST PUSH1 0x40 MLOAD DUP1 SWAP2 SUB SWAP1 LOG2 JUMPDEST POP POP PUSH1 0x1 SLOAD DUP2 EQ PUSH2 0xD80 JUMPI PUSH1 0x40 MLOAD PUSH32 0x8C379A000000000000000000000000000000000000000000000000000000000 DUP2 MSTORE PUSH1 0x4 ADD PUSH2 0xD77 SWAP1 PUSH2 0x1FB0 JUMP JUMPDEST PUSH1 0x40 MLOAD DUP1 SWAP2 SUB SWAP1 REVERT JUMPDEST POP JUMP JUMPDEST PUSH1 0x0 DUP1 SLOAD SWAP1 PUSH2 0x100 EXP SWAP1 DIV PUSH20 0xFFFFFFFFFFFFFFFFFFFFFFFFFFFFFFFFFFFFFFFF AND DUP2 JUMP JUMPDEST PUSH1 0x0 PUSH1 0xB PUSH1 0x0 DUP4 PUSH20 0xFFFFFFFFFFFFFFFFFFFFFFFFFFFFFFFFFFFFFFFF AND PUSH20 0xFFFFFFFFFFFFFFFFFFFFFFFFFFFFFFFFFFFFFFFF AND DUP2 MSTORE PUSH1 0x20 ADD SWAP1 DUP2 MSTORE PUSH1 0x20 ADD PUSH1 0x0 KECCAK256 SLOAD SWAP1 POP SWAP2 SWAP1 POP JUMP JUMPDEST PUSH1 0x3 PUSH1 0x0 SWAP1 SLOAD SWAP1 PUSH2 0x100 EXP SWAP1 DIV PUSH20 0xFFFFFFFFFFFFFFFFFFFFFFFFFFFFFFFFFFFFFFFF AND DUP2 JUMP JUMPDEST PUSH1 0x1 DUP1 PUSH1 0x0 DUP3 DUP3 SLOAD PUSH2 0xE28 SWAP2 SWAP1 PUSH2 0x2046 JUMP JUMPDEST SWAP3 POP POP DUP2 SWAP1 SSTORE POP PUSH1 0x0 PUSH1 0x1 SLOAD SWAP1 POP CALLER PUSH1 0xC PUSH1 0x0 SWAP1 SLOAD SWAP1 PUSH2 0x100 EXP SWAP1 DIV PUSH1 0xFF AND PUSH2 0xF2F JUMPI PUSH2 0xE53 PUSH2 0x117B JUMP JUMPDEST PUSH1 0x7 DUP2 SWAP1 SSTORE POP PUSH2 0xE61 PUSH2 0x114A JUMP JUMPDEST PUSH1 0x6 DUP2 SWAP1 SSTORE POP PUSH1 0x0 PUSH20 0xFFFFFFFFFFFFFFFFFFFFFFFFFFFFFFFFFFFFFFFF AND DUP2 PUSH20 0xFFFFFFFFFFFFFFFFFFFFFFFFFFFFFFFFFFFFFFFF AND EQ PUSH2 0xF2E JUMPI PUSH2 0xEA4 DUP2 PUSH2 0x3A0 JUMP JUMPDEST PUSH1 0x9 PUSH1 0x0 DUP4 PUSH20 0xFFFFFFFFFFFFFFFFFFFFFFFFFFFFFFFFFFFFFFFF AND PUSH20 0xFFFFFFFFFFFFFFFFFFFFFFFFFFFFFFFFFFFFFFFF AND DUP2 MSTORE PUSH1 0x20 ADD SWAP1 DUP2 MSTORE PUSH1 0x20 ADD PUSH1 0x0 KECCAK256 DUP2 SWAP1 SSTORE POP PUSH1 0x7 SLOAD PUSH1 0x8 PUSH1 0x0 DUP4 PUSH20 0xFFFFFFFFFFFFFFFFFFFFFFFFFFFFFFFFFFFFFFFF AND PUSH20 0xFFFFFFFFFFFFFFFFFFFFFFFFFFFFFFFFFFFFFFFF AND DUP2 MSTORE PUSH1 0x20 ADD SWAP1 DUP2 MSTORE PUSH1 0x20 ADD PUSH1 0x0 KECCAK256 DUP2 SWAP1 SSTORE POP JUMPDEST JUMPDEST PUSH1 0x0 DUP5 GT PUSH2 0xF72 JUMPI PUSH1 0x40 MLOAD PUSH32 0x8C379A000000000000000000000000000000000000000000000000000000000 DUP2 MSTORE PUSH1 0x4 ADD PUSH2 0xF69 SWAP1 PUSH2 0x1E90 JUMP JUMPDEST PUSH1 0x40 MLOAD DUP1 SWAP2 SUB SWAP1 REVERT JUMPDEST PUSH2 0xF87 DUP5 PUSH1 0xA SLOAD PUSH2 0x1603 SWAP1 SWAP2 SWAP1 PUSH4 0xFFFFFFFF AND JUMP JUMPDEST PUSH1 0xA DUP2 SWAP1 SSTORE POP PUSH2 0xFDF DUP5 PUSH1 0xB PUSH1 0x0 CALLER PUSH20 0xFFFFFFFFFFFFFFFFFFFFFFFFFFFFFFFFFFFFFFFF AND PUSH20 0xFFFFFFFFFFFFFFFFFFFFFFFFFFFFFFFFFFFFFFFF AND DUP2 MSTORE PUSH1 0x20 ADD SWAP1 DUP2 MSTORE PUSH1 0x20 ADD PUSH1 0x0 KECCAK256 SLOAD PUSH2 0x1603 SWAP1 SWAP2 SWAP1 PUSH4 0xFFFFFFFF AND JUMP JUMPDEST PUSH1 0xB PUSH1 0x0 CALLER PUSH20 0xFFFFFFFFFFFFFFFFFFFFFFFFFFFFFFFFFFFFFFFF AND PUSH20 0xFFFFFFFFFFFFFFFFFFFFFFFFFFFFFFFFFFFFFFFF AND DUP2 MSTORE PUSH1 0x20 ADD SWAP1 DUP2 MSTORE PUSH1 0x20 ADD PUSH1 0x0 KECCAK256 DUP2 SWAP1 SSTORE POP PUSH32 0xC90BA2F1821A1933B06A152B152556D33FB65BCC1366BFA839C68715B039F615 DUP4 ADDRESS DUP7 PUSH1 0x40 MLOAD PUSH2 0x1055 SWAP4 SWAP3 SWAP2 SWAP1 PUSH2 0x1DB3 JUMP JUMPDEST PUSH1 0x40 MLOAD DUP1 SWAP2 SUB SWAP1 LOG1 PUSH2 0x10AC CALLER ADDRESS DUP7 PUSH1 0x3 PUSH1 0x0 SWAP1 SLOAD SWAP1 PUSH2 0x100 EXP SWAP1 DIV PUSH20 0xFFFFFFFFFFFFFFFFFFFFFFFFFFFFFFFFFFFFFFFF AND PUSH20 0xFFFFFFFFFFFFFFFFFFFFFFFFFFFFFFFFFFFFFFFF AND PUSH2 0x169F SWAP1 SWAP4 SWAP3 SWAP2 SWAP1 PUSH4 0xFFFFFFFF AND JUMP JUMPDEST CALLER PUSH20 0xFFFFFFFFFFFFFFFFFFFFFFFFFFFFFFFFFFFFFFFF AND PUSH32 0x9E71BC8EEA02A63969F509818F2DAFB9254532904319F9DBDA79B67BD34A5F3D DUP6 PUSH1 0x40 MLOAD PUSH2 0x10F2 SWAP2 SWAP1 PUSH2 0x1FD0 JUMP JUMPDEST PUSH1 0x40 MLOAD DUP1 SWAP2 SUB SWAP1 LOG2 POP PUSH1 0x1 SLOAD DUP2 EQ PUSH2 0x113F JUMPI PUSH1 0x40 MLOAD PUSH32 0x8C379A000000000000000000000000000000000000000000000000000000000 DUP2 MSTORE PUSH1 0x4 ADD PUSH2 0x1136 SWAP1 PUSH2 0x1FB0 JUMP JUMPDEST PUSH1 0x40 MLOAD DUP1 SWAP2 SUB SWAP1 REVERT JUMPDEST POP POP POP JUMP JUMPDEST PUSH1 0x5 SLOAD DUP2 JUMP JUMPDEST PUSH1 0x0 PUSH2 0x1158 TIMESTAMP PUSH1 0x4 SLOAD PUSH2 0x1728 JUMP JUMPDEST SWAP1 POP SWAP1 JUMP JUMPDEST PUSH1 0x8 PUSH1 0x20 MSTORE DUP1 PUSH1 0x0 MSTORE PUSH1 0x40 PUSH1 0x0 KECCAK256 PUSH1 0x0 SWAP2 POP SWAP1 POP SLOAD DUP2 JUMP JUMPDEST PUSH1 0x6 SLOAD DUP2 JUMP JUMPDEST PUSH1 0x0 DUP1 PUSH1 0xA SLOAD EQ ISZERO PUSH2 0x1191 JUMPI PUSH1 0x7 SLOAD SWAP1 POP PUSH2 0x1206 JUMP JUMPDEST PUSH2 0x1203 PUSH2 0x11F2 PUSH1 0xA SLOAD PUSH2 0x11E4 PUSH8 0xDE0B6B3A7640000 PUSH2 0x11D6 PUSH1 0x5 SLOAD PUSH2 0x11C8 PUSH1 0x6 SLOAD PUSH2 0x11BA PUSH2 0x114A JUMP JUMPDEST PUSH2 0x15C1 SWAP1 SWAP2 SWAP1 PUSH4 0xFFFFFFFF AND JUMP JUMPDEST PUSH2 0x15D7 SWAP1 SWAP2 SWAP1 PUSH4 0xFFFFFFFF AND JUMP JUMPDEST PUSH2 0x15D7 SWAP1 SWAP2 SWAP1 PUSH4 0xFFFFFFFF AND JUMP JUMPDEST PUSH2 0x15ED SWAP1 SWAP2 SWAP1 PUSH4 0xFFFFFFFF AND JUMP JUMPDEST PUSH1 0x7 SLOAD PUSH2 0x1603 SWAP1 SWAP2 SWAP1 PUSH4 0xFFFFFFFF AND JUMP JUMPDEST SWAP1 POP JUMPDEST SWAP1 JUMP JUMPDEST PUSH1 0x2 PUSH1 0x0 SWAP1 SLOAD SWAP1 PUSH2 0x100 EXP SWAP1 DIV PUSH20 0xFFFFFFFFFFFFFFFFFFFFFFFFFFFFFFFFFFFFFFFF AND DUP2 JUMP JUMPDEST PUSH1 0x1 DUP1 PUSH1 0x0 DUP3 DUP3 SLOAD PUSH2 0x1241 SWAP2 SWAP1 PUSH2 0x2046 JUMP JUMPDEST SWAP3 POP POP DUP2 SWAP1 SSTORE POP PUSH1 0x0 PUSH1 0x1 SLOAD SWAP1 POP CALLER PUSH1 0xC PUSH1 0x0 SWAP1 SLOAD SWAP1 PUSH2 0x100 EXP SWAP1 DIV PUSH1 0xFF AND PUSH2 0x1348 JUMPI PUSH2 0x126C PUSH2 0x117B JUMP JUMPDEST PUSH1 0x7 DUP2 SWAP1 SSTORE POP PUSH2 0x127A PUSH2 0x114A JUMP JUMPDEST PUSH1 0x6 DUP2 SWAP1 SSTORE POP PUSH1 0x0 PUSH20 0xFFFFFFFFFFFFFFFFFFFFFFFFFFFFFFFFFFFFFFFF AND DUP2 PUSH20 0xFFFFFFFFFFFFFFFFFFFFFFFFFFFFFFFFFFFFFFFF AND EQ PUSH2 0x1347 JUMPI PUSH2 0x12BD DUP2 PUSH2 0x3A0 JUMP JUMPDEST PUSH1 0x9 PUSH1 0x0 DUP4 PUSH20 0xFFFFFFFFFFFFFFFFFFFFFFFFFFFFFFFFFFFFFFFF AND PUSH20 0xFFFFFFFFFFFFFFFFFFFFFFFFFFFFFFFFFFFFFFFF AND DUP2 MSTORE PUSH1 0x20 ADD SWAP1 DUP2 MSTORE PUSH1 0x20 ADD PUSH1 0x0 KECCAK256 DUP2 SWAP1 SSTORE POP PUSH1 0x7 SLOAD PUSH1 0x8 PUSH1 0x0 DUP4 PUSH20 0xFFFFFFFFFFFFFFFFFFFFFFFFFFFFFFFFFFFFFFFF AND PUSH20 0xFFFFFFFFFFFFFFFFFFFFFFFFFFFFFFFFFFFFFFFF AND DUP2 MSTORE PUSH1 0x20 ADD SWAP1 DUP2 MSTORE PUSH1 0x20 ADD PUSH1 0x0 KECCAK256 DUP2 SWAP1 SSTORE POP JUMPDEST JUMPDEST PUSH1 0x1 PUSH1 0xC PUSH1 0x0 PUSH2 0x100 EXP DUP2 SLOAD DUP2 PUSH1 0xFF MUL NOT AND SWAP1 DUP4 ISZERO ISZERO MUL OR SWAP1 SSTORE POP DUP3 TIMESTAMP PUSH2 0x136F SWAP2 SWAP1 PUSH2 0x2046 JUMP JUMPDEST PUSH1 0xD DUP2 SWAP1 SSTORE POP POP PUSH1 0x1 SLOAD DUP2 EQ PUSH2 0x13BA JUMPI PUSH1 0x40 MLOAD PUSH32 0x8C379A000000000000000000000000000000000000000000000000000000000 DUP2 MSTORE PUSH1 0x4 ADD PUSH2 0x13B1 SWAP1 PUSH2 0x1FB0 JUMP JUMPDEST PUSH1 0x40 MLOAD DUP1 SWAP2 SUB SWAP1 REVERT JUMPDEST POP POP JUMP JUMPDEST PUSH1 0x7 SLOAD DUP2 JUMP JUMPDEST PUSH1 0xC PUSH1 0x0 SWAP1 SLOAD SWAP1 PUSH2 0x100 EXP SWAP1 DIV PUSH1 0xFF AND PUSH2 0x1413 JUMPI PUSH1 0x40 MLOAD PUSH32 0x8C379A000000000000000000000000000000000000000000000000000000000 DUP2 MSTORE PUSH1 0x4 ADD PUSH2 0x140A SWAP1 PUSH2 0x1ED0 JUMP JUMPDEST PUSH1 0x40 MLOAD DUP1 SWAP2 SUB SWAP1 REVERT JUMPDEST PUSH1 0xD SLOAD TIMESTAMP LT ISZERO PUSH2 0x1458 JUMPI PUSH1 0x40 MLOAD PUSH32 0x8C379A000000000000000000000000000000000000000000000000000000000 DUP2 MSTORE PUSH1 0x4 ADD PUSH2 0x144F SWAP1 PUSH2 0x1E70 JUMP JUMPDEST PUSH1 0x40 MLOAD DUP1 SWAP2 SUB SWAP1 REVERT JUMPDEST PUSH2 0x14A0 PUSH1 0xB PUSH1 0x0 CALLER PUSH20 0xFFFFFFFFFFFFFFFFFFFFFFFFFFFFFFFFFFFFFFFF AND PUSH20 0xFFFFFFFFFFFFFFFFFFFFFFFFFFFFFFFFFFFFFFFF AND DUP2 MSTORE PUSH1 0x20 ADD SWAP1 DUP2 MSTORE PUSH1 0x20 ADD PUSH1 0x0 KECCAK256 SLOAD PUSH2 0x8AD JUMP JUMPDEST PUSH2 0x152C CALLER PUSH1 0x9 PUSH1 0x0 CALLER PUSH20 0xFFFFFFFFFFFFFFFFFFFFFFFFFFFFFFFFFFFFFFFF AND PUSH20 0xFFFFFFFFFFFFFFFFFFFFFFFFFFFFFFFFFFFFFFFF AND DUP2 MSTORE PUSH1 0x20 ADD SWAP1 DUP2 MSTORE PUSH1 0x20 ADD PUSH1 0x0 KECCAK256 SLOAD PUSH1 0x2 PUSH1 0x0 SWAP1 SLOAD SWAP1 PUSH2 0x100 EXP SWAP1 DIV PUSH20 0xFFFFFFFFFFFFFFFFFFFFFFFFFFFFFFFFFFFFFFFF AND PUSH20 0xFFFFFFFFFFFFFFFFFFFFFFFFFFFFFFFFFFFFFFFF AND PUSH2 0x1619 SWAP1 SWAP3 SWAP2 SWAP1 PUSH4 0xFFFFFFFF AND JUMP JUMPDEST CALLER PUSH20 0xFFFFFFFFFFFFFFFFFFFFFFFFFFFFFFFFFFFFFFFF AND PUSH32 0xE2403640BA68FED3A2F88B7557551D1993F84B99BB10FF833F0CF8DB0C5E0486 PUSH1 0x9 PUSH1 0x0 CALLER PUSH20 0xFFFFFFFFFFFFFFFFFFFFFFFFFFFFFFFFFFFFFFFF AND PUSH20 0xFFFFFFFFFFFFFFFFFFFFFFFFFFFFFFFFFFFFFFFF AND DUP2 MSTORE PUSH1 0x20 ADD SWAP1 DUP2 MSTORE PUSH1 0x20 ADD PUSH1 0x0 KECCAK256 SLOAD PUSH1 0x40 MLOAD PUSH2 0x15B1 SWAP2 SWAP1 PUSH2 0x1FD0 JUMP JUMPDEST PUSH1 0x40 MLOAD DUP1 SWAP2 SUB SWAP1 LOG2 JUMP JUMPDEST PUSH1 0x4 SLOAD DUP2 JUMP JUMPDEST PUSH1 0x0 DUP2 DUP4 PUSH2 0x15CF SWAP2 SWAP1 PUSH2 0x2127 JUMP JUMPDEST SWAP1 POP SWAP3 SWAP2 POP POP JUMP JUMPDEST PUSH1 0x0 DUP2 DUP4 PUSH2 0x15E5 SWAP2 SWAP1 PUSH2 0x20CD JUMP JUMPDEST SWAP1 POP SWAP3 SWAP2 POP POP JUMP JUMPDEST PUSH1 0x0 DUP2 DUP4 PUSH2 0x15FB SWAP2 SWAP1 PUSH2 0x209C JUMP JUMPDEST SWAP1 POP SWAP3 SWAP2 POP POP JUMP JUMPDEST PUSH1 0x0 DUP2 DUP4 PUSH2 0x1611 SWAP2 SWAP1 PUSH2 0x2046 JUMP JUMPDEST SWAP1 POP SWAP3 SWAP2 POP POP JUMP JUMPDEST PUSH2 0x169A DUP4 PUSH4 0xA9059CBB PUSH1 0xE0 SHL DUP5 DUP5 PUSH1 0x40 MLOAD PUSH1 0x24 ADD PUSH2 0x1638 SWAP3 SWAP2 SWAP1 PUSH2 0x1DEA JUMP JUMPDEST PUSH1 0x40 MLOAD PUSH1 0x20 DUP2 DUP4 SUB SUB DUP2 MSTORE SWAP1 PUSH1 0x40 MSTORE SWAP1 PUSH28 0xFFFFFFFFFFFFFFFFFFFFFFFFFFFFFFFFFFFFFFFFFFFFFFFFFFFFFFFF NOT AND PUSH1 0x20 DUP3 ADD DUP1 MLOAD PUSH28 0xFFFFFFFFFFFFFFFFFFFFFFFFFFFFFFFFFFFFFFFFFFFFFFFFFFFFFFFF DUP4 DUP2 DUP4 AND OR DUP4 MSTORE POP POP POP POP PUSH2 0x1741 JUMP JUMPDEST POP POP POP JUMP JUMPDEST PUSH2 0x1722 DUP5 PUSH4 0x23B872DD PUSH1 0xE0 SHL DUP6 DUP6 DUP6 PUSH1 0x40 MLOAD PUSH1 0x24 ADD PUSH2 0x16C0 SWAP4 SWAP3 SWAP2 SWAP1 PUSH2 0x1DB3 JUMP JUMPDEST PUSH1 0x40 MLOAD PUSH1 0x20 DUP2 DUP4 SUB SUB DUP2 MSTORE SWAP1 PUSH1 0x40 MSTORE SWAP1 PUSH28 0xFFFFFFFFFFFFFFFFFFFFFFFFFFFFFFFFFFFFFFFFFFFFFFFFFFFFFFFF NOT AND PUSH1 0x20 DUP3 ADD DUP1 MLOAD PUSH28 0xFFFFFFFFFFFFFFFFFFFFFFFFFFFFFFFFFFFFFFFFFFFFFFFFFFFFFFFF DUP4 DUP2 DUP4 AND OR DUP4 MSTORE POP POP POP POP PUSH2 0x1741 JUMP JUMPDEST POP POP POP POP JUMP JUMPDEST PUSH1 0x0 DUP2 DUP4 LT PUSH2 0x1737 JUMPI DUP2 PUSH2 0x1739 JUMP JUMPDEST DUP3 JUMPDEST SWAP1 POP SWAP3 SWAP2 POP POP JUMP JUMPDEST PUSH1 0x0 PUSH2 0x17A3 DUP3 PUSH1 0x40 MLOAD DUP1 PUSH1 0x40 ADD PUSH1 0x40 MSTORE DUP1 PUSH1 0x20 DUP2 MSTORE PUSH1 0x20 ADD PUSH32 0x5361666545524332303A206C6F772D6C6576656C2063616C6C206661696C6564 DUP2 MSTORE POP DUP6 PUSH20 0xFFFFFFFFFFFFFFFFFFFFFFFFFFFFFFFFFFFFFFFF AND PUSH2 0x1808 SWAP1 SWAP3 SWAP2 SWAP1 PUSH4 0xFFFFFFFF AND JUMP JUMPDEST SWAP1 POP PUSH1 0x0 DUP2 MLOAD GT ISZERO PUSH2 0x1803 JUMPI DUP1 DUP1 PUSH1 0x20 ADD SWAP1 MLOAD DUP2 ADD SWAP1 PUSH2 0x17C3 SWAP2 SWAP1 PUSH2 0x1A3F JUMP JUMPDEST PUSH2 0x1802 JUMPI PUSH1 0x40 MLOAD PUSH32 0x8C379A000000000000000000000000000000000000000000000000000000000 DUP2 MSTORE PUSH1 0x4 ADD PUSH2 0x17F9 SWAP1 PUSH2 0x1F90 JUMP JUMPDEST PUSH1 0x40 MLOAD DUP1 SWAP2 SUB SWAP1 REVERT JUMPDEST JUMPDEST POP POP POP JUMP JUMPDEST PUSH1 0x60 PUSH2 0x1817 DUP5 DUP5 PUSH1 0x0 DUP6 PUSH2 0x1820 JUMP JUMPDEST SWAP1 POP SWAP4 SWAP3 POP POP POP JUMP JUMPDEST PUSH1 0x60 DUP3 SELFBALANCE LT ISZERO PUSH2 0x1865 JUMPI PUSH1 0x40 MLOAD PUSH32 0x8C379A000000000000000000000000000000000000000000000000000000000 DUP2 MSTORE PUSH1 0x4 ADD PUSH2 0x185C SWAP1 PUSH2 0x1EB0 JUMP JUMPDEST PUSH1 0x40 MLOAD DUP1 SWAP2 SUB SWAP1 REVERT JUMPDEST PUSH2 0x186E DUP6 PUSH2 0x1934 JUMP JUMPDEST PUSH2 0x18AD JUMPI PUSH1 0x40 MLOAD PUSH32 0x8C379A000000000000000000000000000000000000000000000000000000000 DUP2 MSTORE PUSH1 0x4 ADD PUSH2 0x18A4 SWAP1 PUSH2 0x1F50 JUMP JUMPDEST PUSH1 0x40 MLOAD DUP1 SWAP2 SUB SWAP1 REVERT JUMPDEST PUSH1 0x0 DUP1 DUP7 PUSH20 0xFFFFFFFFFFFFFFFFFFFFFFFFFFFFFFFFFFFFFFFF AND DUP6 DUP8 PUSH1 0x40 MLOAD PUSH2 0x18D6 SWAP2 SWAP1 PUSH2 0x1D81 JUMP JUMPDEST PUSH1 0x0 PUSH1 0x40 MLOAD DUP1 DUP4 SUB DUP2 DUP6 DUP8 GAS CALL SWAP3 POP POP POP RETURNDATASIZE DUP1 PUSH1 0x0 DUP2 EQ PUSH2 0x1913 JUMPI PUSH1 0x40 MLOAD SWAP2 POP PUSH1 0x1F NOT PUSH1 0x3F RETURNDATASIZE ADD AND DUP3 ADD PUSH1 0x40 MSTORE RETURNDATASIZE DUP3 MSTORE RETURNDATASIZE PUSH1 0x0 PUSH1 0x20 DUP5 ADD RETURNDATACOPY PUSH2 0x1918 JUMP JUMPDEST PUSH1 0x60 SWAP2 POP JUMPDEST POP SWAP2 POP SWAP2 POP PUSH2 0x1928 DUP3 DUP3 DUP7 PUSH2 0x1957 JUMP JUMPDEST SWAP3 POP POP POP SWAP5 SWAP4 POP POP POP POP JUMP JUMPDEST PUSH1 0x0 DUP1 DUP3 PUSH20 0xFFFFFFFFFFFFFFFFFFFFFFFFFFFFFFFFFFFFFFFF AND EXTCODESIZE GT SWAP1 POP SWAP2 SWAP1 POP JUMP JUMPDEST PUSH1 0x60 DUP4 ISZERO PUSH2 0x1967 JUMPI DUP3 SWAP1 POP PUSH2 0x19B7 JUMP JUMPDEST PUSH1 0x0 DUP4 MLOAD GT ISZERO PUSH2 0x197A JUMPI DUP3 MLOAD DUP1 DUP5 PUSH1 0x20 ADD REVERT JUMPDEST DUP2 PUSH1 0x40 MLOAD PUSH32 0x8C379A000000000000000000000000000000000000000000000000000000000 DUP2 MSTORE PUSH1 0x4 ADD PUSH2 0x19AE SWAP2 SWAP1 PUSH2 0x1E2E JUMP JUMPDEST PUSH1 0x40 MLOAD DUP1 SWAP2 SUB SWAP1 REVERT JUMPDEST SWAP4 SWAP3 POP POP POP JUMP JUMPDEST PUSH1 0x0 DUP2 CALLDATALOAD SWAP1 POP PUSH2 0x19CD DUP2 PUSH2 0x24DE JUMP JUMPDEST SWAP3 SWAP2 POP POP JUMP JUMPDEST PUSH1 0x0 DUP2 MLOAD SWAP1 POP PUSH2 0x19E2 DUP2 PUSH2 0x24F5 JUMP JUMPDEST SWAP3 SWAP2 POP POP JUMP JUMPDEST PUSH1 0x0 DUP2 CALLDATALOAD SWAP1 POP PUSH2 0x19F7 DUP2 PUSH2 0x250C JUMP JUMPDEST SWAP3 SWAP2 POP POP JUMP JUMPDEST PUSH1 0x0 DUP2 MLOAD SWAP1 POP PUSH2 0x1A0C DUP2 PUSH2 0x250C JUMP JUMPDEST SWAP3 SWAP2 POP POP JUMP JUMPDEST PUSH1 0x0 PUSH1 0x20 DUP3 DUP5 SUB SLT ISZERO PUSH2 0x1A28 JUMPI PUSH2 0x1A27 PUSH2 0x226A JUMP JUMPDEST JUMPDEST PUSH1 0x0 PUSH2 0x1A36 DUP5 DUP3 DUP6 ADD PUSH2 0x19BE JUMP JUMPDEST SWAP2 POP POP SWAP3 SWAP2 POP POP JUMP JUMPDEST PUSH1 0x0 PUSH1 0x20 DUP3 DUP5 SUB SLT ISZERO PUSH2 0x1A55 JUMPI PUSH2 0x1A54 PUSH2 0x226A JUMP JUMPDEST JUMPDEST PUSH1 0x0 PUSH2 0x1A63 DUP5 DUP3 DUP6 ADD PUSH2 0x19D3 JUMP JUMPDEST SWAP2 POP POP SWAP3 SWAP2 POP POP JUMP JUMPDEST PUSH1 0x0 PUSH1 0x20 DUP3 DUP5 SUB SLT ISZERO PUSH2 0x1A82 JUMPI PUSH2 0x1A81 PUSH2 0x226A JUMP JUMPDEST JUMPDEST PUSH1 0x0 PUSH2 0x1A90 DUP5 DUP3 DUP6 ADD PUSH2 0x19E8 JUMP JUMPDEST SWAP2 POP POP SWAP3 SWAP2 POP POP JUMP JUMPDEST PUSH1 0x0 PUSH1 0x20 DUP3 DUP5 SUB SLT ISZERO PUSH2 0x1AAF JUMPI PUSH2 0x1AAE PUSH2 0x226A JUMP JUMPDEST JUMPDEST PUSH1 0x0 PUSH2 0x1ABD DUP5 DUP3 DUP6 ADD PUSH2 0x19FD JUMP JUMPDEST SWAP2 POP POP SWAP3 SWAP2 POP POP JUMP JUMPDEST PUSH1 0x0 DUP1 PUSH1 0x40 DUP4 DUP6 SUB SLT ISZERO PUSH2 0x1ADD JUMPI PUSH2 0x1ADC PUSH2 0x226A JUMP JUMPDEST JUMPDEST PUSH1 0x0 PUSH2 0x1AEB DUP6 DUP3 DUP7 ADD PUSH2 0x19E8 JUMP JUMPDEST SWAP3 POP POP PUSH1 0x20 PUSH2 0x1AFC DUP6 DUP3 DUP7 ADD PUSH2 0x19BE JUMP JUMPDEST SWAP2 POP POP SWAP3 POP SWAP3 SWAP1 POP JUMP JUMPDEST PUSH1 0x0 DUP1 PUSH1 0x40 DUP4 DUP6 SUB SLT ISZERO PUSH2 0x1B1D JUMPI PUSH2 0x1B1C PUSH2 0x226A JUMP JUMPDEST JUMPDEST PUSH1 0x0 PUSH2 0x1B2B DUP6 DUP3 DUP7 ADD PUSH2 0x19E8 JUMP JUMPDEST SWAP3 POP POP PUSH1 0x20 PUSH2 0x1B3C DUP6 DUP3 DUP7 ADD PUSH2 0x19E8 JUMP JUMPDEST SWAP2 POP POP SWAP3 POP SWAP3 SWAP1 POP JUMP JUMPDEST PUSH2 0x1B4F DUP2 PUSH2 0x215B JUMP JUMPDEST DUP3 MSTORE POP POP JUMP JUMPDEST PUSH1 0x0 PUSH2 0x1B60 DUP3 PUSH2 0x2014 JUMP JUMPDEST PUSH2 0x1B6A DUP2 DUP6 PUSH2 0x202A JUMP JUMPDEST SWAP4 POP PUSH2 0x1B7A DUP2 DUP6 PUSH1 0x20 DUP7 ADD PUSH2 0x21D9 JUMP JUMPDEST DUP1 DUP5 ADD SWAP2 POP POP SWAP3 SWAP2 POP POP JUMP JUMPDEST PUSH2 0x1B8F DUP2 PUSH2 0x21A3 JUMP JUMPDEST DUP3 MSTORE POP POP JUMP JUMPDEST PUSH1 0x0 PUSH2 0x1BA0 DUP3 PUSH2 0x201F JUMP JUMPDEST PUSH2 0x1BAA DUP2 DUP6 PUSH2 0x2035 JUMP JUMPDEST SWAP4 POP PUSH2 0x1BBA DUP2 DUP6 PUSH1 0x20 DUP7 ADD PUSH2 0x21D9 JUMP JUMPDEST PUSH2 0x1BC3 DUP2 PUSH2 0x226F JUMP JUMPDEST DUP5 ADD SWAP2 POP POP SWAP3 SWAP2 POP POP JUMP JUMPDEST PUSH1 0x0 PUSH2 0x1BDB PUSH1 0x19 DUP4 PUSH2 0x2035 JUMP JUMPDEST SWAP2 POP PUSH2 0x1BE6 DUP3 PUSH2 0x2280 JUMP JUMPDEST PUSH1 0x20 DUP3 ADD SWAP1 POP SWAP2 SWAP1 POP JUMP JUMPDEST PUSH1 0x0 PUSH2 0x1BFE PUSH1 0x1C DUP4 PUSH2 0x2035 JUMP JUMPDEST SWAP2 POP PUSH2 0x1C09 DUP3 PUSH2 0x22A9 JUMP JUMPDEST PUSH1 0x20 DUP3 ADD SWAP1 POP SWAP2 SWAP1 POP JUMP JUMPDEST PUSH1 0x0 PUSH2 0x1C21 PUSH1 0xE DUP4 PUSH2 0x2035 JUMP JUMPDEST SWAP2 POP PUSH2 0x1C2C DUP3 PUSH2 0x22D2 JUMP JUMPDEST PUSH1 0x20 DUP3 ADD SWAP1 POP SWAP2 SWAP1 POP JUMP JUMPDEST PUSH1 0x0 PUSH2 0x1C44 PUSH1 0x26 DUP4 PUSH2 0x2035 JUMP JUMPDEST SWAP2 POP PUSH2 0x1C4F DUP3 PUSH2 0x22FB JUMP JUMPDEST PUSH1 0x40 DUP3 ADD SWAP1 POP SWAP2 SWAP1 POP JUMP JUMPDEST PUSH1 0x0 PUSH2 0x1C67 PUSH1 0x16 DUP4 PUSH2 0x2035 JUMP JUMPDEST SWAP2 POP PUSH2 0x1C72 DUP3 PUSH2 0x234A JUMP JUMPDEST PUSH1 0x20 DUP3 ADD SWAP1 POP SWAP2 SWAP1 POP JUMP JUMPDEST PUSH1 0x0 PUSH2 0x1C8A PUSH1 0x1D DUP4 PUSH2 0x2035 JUMP JUMPDEST SWAP2 POP PUSH2 0x1C95 DUP3 PUSH2 0x2373 JUMP JUMPDEST PUSH1 0x20 DUP3 ADD SWAP1 POP SWAP2 SWAP1 POP JUMP JUMPDEST PUSH1 0x0 PUSH2 0x1CAD PUSH1 0x11 DUP4 PUSH2 0x2035 JUMP JUMPDEST SWAP2 POP PUSH2 0x1CB8 DUP3 PUSH2 0x239C JUMP JUMPDEST PUSH1 0x20 DUP3 ADD SWAP1 POP SWAP2 SWAP1 POP JUMP JUMPDEST PUSH1 0x0 PUSH2 0x1CD0 PUSH1 0x18 DUP4 PUSH2 0x2035 JUMP JUMPDEST SWAP2 POP PUSH2 0x1CDB DUP3 PUSH2 0x23C5 JUMP JUMPDEST PUSH1 0x20 DUP3 ADD SWAP1 POP SWAP2 SWAP1 POP JUMP JUMPDEST PUSH1 0x0 PUSH2 0x1CF3 PUSH1 0x1D DUP4 PUSH2 0x2035 JUMP JUMPDEST SWAP2 POP PUSH2 0x1CFE DUP3 PUSH2 0x23EE JUMP JUMPDEST PUSH1 0x20 DUP3 ADD SWAP1 POP SWAP2 SWAP1 POP JUMP JUMPDEST PUSH1 0x0 PUSH2 0x1D16 PUSH1 0x2A DUP4 PUSH2 0x2035 JUMP JUMPDEST SWAP2 POP PUSH2 0x1D21 DUP3 PUSH2 0x2417 JUMP JUMPDEST PUSH1 0x40 DUP3 ADD SWAP1 POP SWAP2 SWAP1 POP JUMP JUMPDEST PUSH1 0x0 PUSH2 0x1D39 PUSH1 0x2A DUP4 PUSH2 0x2035 JUMP JUMPDEST SWAP2 POP PUSH2 0x1D44 DUP3 PUSH2 0x2466 JUMP JUMPDEST PUSH1 0x40 DUP3 ADD SWAP1 POP SWAP2 SWAP1 POP JUMP JUMPDEST PUSH1 0x0 PUSH2 0x1D5C PUSH1 0x1F DUP4 PUSH2 0x2035 JUMP JUMPDEST SWAP2 POP PUSH2 0x1D67 DUP3 PUSH2 0x24B5 JUMP JUMPDEST PUSH1 0x20 DUP3 ADD SWAP1 POP SWAP2 SWAP1 POP JUMP JUMPDEST PUSH2 0x1D7B DUP2 PUSH2 0x2199 JUMP JUMPDEST DUP3 MSTORE POP POP JUMP JUMPDEST PUSH1 0x0 PUSH2 0x1D8D DUP3 DUP5 PUSH2 0x1B55 JUMP JUMPDEST SWAP2 POP DUP2 SWAP1 POP SWAP3 SWAP2 POP POP JUMP JUMPDEST PUSH1 0x0 PUSH1 0x20 DUP3 ADD SWAP1 POP PUSH2 0x1DAD PUSH1 0x0 DUP4 ADD DUP5 PUSH2 0x1B46 JUMP JUMPDEST SWAP3 SWAP2 POP POP JUMP JUMPDEST PUSH1 0x0 PUSH1 0x60 DUP3 ADD SWAP1 POP PUSH2 0x1DC8 PUSH1 0x0 DUP4 ADD DUP7 PUSH2 0x1B46 JUMP JUMPDEST PUSH2 0x1DD5 PUSH1 0x20 DUP4 ADD DUP6 PUSH2 0x1B46 JUMP JUMPDEST PUSH2 0x1DE2 PUSH1 0x40 DUP4 ADD DUP5 PUSH2 0x1D72 JUMP JUMPDEST SWAP5 SWAP4 POP POP POP POP JUMP JUMPDEST PUSH1 0x0 PUSH1 0x40 DUP3 ADD SWAP1 POP PUSH2 0x1DFF PUSH1 0x0 DUP4 ADD DUP6 PUSH2 0x1B46 JUMP JUMPDEST PUSH2 0x1E0C PUSH1 0x20 DUP4 ADD DUP5 PUSH2 0x1D72 JUMP JUMPDEST SWAP4 SWAP3 POP POP POP JUMP JUMPDEST PUSH1 0x0 PUSH1 0x20 DUP3 ADD SWAP1 POP PUSH2 0x1E28 PUSH1 0x0 DUP4 ADD DUP5 PUSH2 0x1B86 JUMP JUMPDEST SWAP3 SWAP2 POP POP JUMP JUMPDEST PUSH1 0x0 PUSH1 0x20 DUP3 ADD SWAP1 POP DUP2 DUP2 SUB PUSH1 0x0 DUP4 ADD MSTORE PUSH2 0x1E48 DUP2 DUP5 PUSH2 0x1B95 JUMP JUMPDEST SWAP1 POP SWAP3 SWAP2 POP POP JUMP JUMPDEST PUSH1 0x0 PUSH1 0x20 DUP3 ADD SWAP1 POP DUP2 DUP2 SUB PUSH1 0x0 DUP4 ADD MSTORE PUSH2 0x1E69 DUP2 PUSH2 0x1BCE JUMP JUMPDEST SWAP1 POP SWAP2 SWAP1 POP JUMP JUMPDEST PUSH1 0x0 PUSH1 0x20 DUP3 ADD SWAP1 POP DUP2 DUP2 SUB PUSH1 0x0 DUP4 ADD MSTORE PUSH2 0x1E89 DUP2 PUSH2 0x1BF1 JUMP JUMPDEST SWAP1 POP SWAP2 SWAP1 POP JUMP JUMPDEST PUSH1 0x0 PUSH1 0x20 DUP3 ADD SWAP1 POP DUP2 DUP2 SUB PUSH1 0x0 DUP4 ADD MSTORE PUSH2 0x1EA9 DUP2 PUSH2 0x1C14 JUMP JUMPDEST SWAP1 POP SWAP2 SWAP1 POP JUMP JUMPDEST PUSH1 0x0 PUSH1 0x20 DUP3 ADD SWAP1 POP DUP2 DUP2 SUB PUSH1 0x0 DUP4 ADD MSTORE PUSH2 0x1EC9 DUP2 PUSH2 0x1C37 JUMP JUMPDEST SWAP1 POP SWAP2 SWAP1 POP JUMP JUMPDEST PUSH1 0x0 PUSH1 0x20 DUP3 ADD SWAP1 POP DUP2 DUP2 SUB PUSH1 0x0 DUP4 ADD MSTORE PUSH2 0x1EE9 DUP2 PUSH2 0x1C5A JUMP JUMPDEST SWAP1 POP SWAP2 SWAP1 POP JUMP JUMPDEST PUSH1 0x0 PUSH1 0x20 DUP3 ADD SWAP1 POP DUP2 DUP2 SUB PUSH1 0x0 DUP4 ADD MSTORE PUSH2 0x1F09 DUP2 PUSH2 0x1C7D JUMP JUMPDEST SWAP1 POP SWAP2 SWAP1 POP JUMP JUMPDEST PUSH1 0x0 PUSH1 0x20 DUP3 ADD SWAP1 POP DUP2 DUP2 SUB PUSH1 0x0 DUP4 ADD MSTORE PUSH2 0x1F29 DUP2 PUSH2 0x1CA0 JUMP JUMPDEST SWAP1 POP SWAP2 SWAP1 POP JUMP JUMPDEST PUSH1 0x0 PUSH1 0x20 DUP3 ADD SWAP1 POP DUP2 DUP2 SUB PUSH1 0x0 DUP4 ADD MSTORE PUSH2 0x1F49 DUP2 PUSH2 0x1CC3 JUMP JUMPDEST SWAP1 POP SWAP2 SWAP1 POP JUMP JUMPDEST PUSH1 0x0 PUSH1 0x20 DUP3 ADD SWAP1 POP DUP2 DUP2 SUB PUSH1 0x0 DUP4 ADD MSTORE PUSH2 0x1F69 DUP2 PUSH2 0x1CE6 JUMP JUMPDEST SWAP1 POP SWAP2 SWAP1 POP JUMP JUMPDEST PUSH1 0x0 PUSH1 0x20 DUP3 ADD SWAP1 POP DUP2 DUP2 SUB PUSH1 0x0 DUP4 ADD MSTORE PUSH2 0x1F89 DUP2 PUSH2 0x1D09 JUMP JUMPDEST SWAP1 POP SWAP2 SWAP1 POP JUMP JUMPDEST PUSH1 0x0 PUSH1 0x20 DUP3 ADD SWAP1 POP DUP2 DUP2 SUB PUSH1 0x0 DUP4 ADD MSTORE PUSH2 0x1FA9 DUP2 PUSH2 0x1D2C JUMP JUMPDEST SWAP1 POP SWAP2 SWAP1 POP JUMP JUMPDEST PUSH1 0x0 PUSH1 0x20 DUP3 ADD SWAP1 POP DUP2 DUP2 SUB PUSH1 0x0 DUP4 ADD MSTORE PUSH2 0x1FC9 DUP2 PUSH2 0x1D4F JUMP JUMPDEST SWAP1 POP SWAP2 SWAP1 POP JUMP JUMPDEST PUSH1 0x0 PUSH1 0x20 DUP3 ADD SWAP1 POP PUSH2 0x1FE5 PUSH1 0x0 DUP4 ADD DUP5 PUSH2 0x1D72 JUMP JUMPDEST SWAP3 SWAP2 POP POP JUMP JUMPDEST PUSH1 0x0 PUSH1 0x40 DUP3 ADD SWAP1 POP PUSH2 0x2000 PUSH1 0x0 DUP4 ADD DUP6 PUSH2 0x1D72 JUMP JUMPDEST PUSH2 0x200D PUSH1 0x20 DUP4 ADD DUP5 PUSH2 0x1D72 JUMP JUMPDEST SWAP4 SWAP3 POP POP POP JUMP JUMPDEST PUSH1 0x0 DUP2 MLOAD SWAP1 POP SWAP2 SWAP1 POP JUMP JUMPDEST PUSH1 0x0 DUP2 MLOAD SWAP1 POP SWAP2 SWAP1 POP JUMP JUMPDEST PUSH1 0x0 DUP2 SWAP1 POP SWAP3 SWAP2 POP POP JUMP JUMPDEST PUSH1 0x0 DUP3 DUP3 MSTORE PUSH1 0x20 DUP3 ADD SWAP1 POP SWAP3 SWAP2 POP POP JUMP JUMPDEST PUSH1 0x0 PUSH2 0x2051 DUP3 PUSH2 0x2199 JUMP JUMPDEST SWAP2 POP PUSH2 0x205C DUP4 PUSH2 0x2199 JUMP JUMPDEST SWAP3 POP DUP3 PUSH32 0xFFFFFFFFFFFFFFFFFFFFFFFFFFFFFFFFFFFFFFFFFFFFFFFFFFFFFFFFFFFFFFFF SUB DUP3 GT ISZERO PUSH2 0x2091 JUMPI PUSH2 0x2090 PUSH2 0x220C JUMP JUMPDEST JUMPDEST DUP3 DUP3 ADD SWAP1 POP SWAP3 SWAP2 POP POP JUMP JUMPDEST PUSH1 0x0 PUSH2 0x20A7 DUP3 PUSH2 0x2199 JUMP JUMPDEST SWAP2 POP PUSH2 0x20B2 DUP4 PUSH2 0x2199 JUMP JUMPDEST SWAP3 POP DUP3 PUSH2 0x20C2 JUMPI PUSH2 0x20C1 PUSH2 0x223B JUMP JUMPDEST JUMPDEST DUP3 DUP3 DIV SWAP1 POP SWAP3 SWAP2 POP POP JUMP JUMPDEST PUSH1 0x0 PUSH2 0x20D8 DUP3 PUSH2 0x2199 JUMP JUMPDEST SWAP2 POP PUSH2 0x20E3 DUP4 PUSH2 0x2199 JUMP JUMPDEST SWAP3 POP DUP2 PUSH32 0xFFFFFFFFFFFFFFFFFFFFFFFFFFFFFFFFFFFFFFFFFFFFFFFFFFFFFFFFFFFFFFFF DIV DUP4 GT DUP3 ISZERO ISZERO AND ISZERO PUSH2 0x211C JUMPI PUSH2 0x211B PUSH2 0x220C JUMP JUMPDEST JUMPDEST DUP3 DUP3 MUL SWAP1 POP SWAP3 SWAP2 POP POP JUMP JUMPDEST PUSH1 0x0 PUSH2 0x2132 DUP3 PUSH2 0x2199 JUMP JUMPDEST SWAP2 POP PUSH2 0x213D DUP4 PUSH2 0x2199 JUMP JUMPDEST SWAP3 POP DUP3 DUP3 LT ISZERO PUSH2 0x2150 JUMPI PUSH2 0x214F PUSH2 0x220C JUMP JUMPDEST JUMPDEST DUP3 DUP3 SUB SWAP1 POP SWAP3 SWAP2 POP POP JUMP JUMPDEST PUSH1 0x0 PUSH2 0x2166 DUP3 PUSH2 0x2179 JUMP JUMPDEST SWAP1 POP SWAP2 SWAP1 POP JUMP JUMPDEST PUSH1 0x0 DUP2 ISZERO ISZERO SWAP1 POP SWAP2 SWAP1 POP JUMP JUMPDEST PUSH1 0x0 PUSH20 0xFFFFFFFFFFFFFFFFFFFFFFFFFFFFFFFFFFFFFFFF DUP3 AND SWAP1 POP SWAP2 SWAP1 POP JUMP JUMPDEST PUSH1 0x0 DUP2 SWAP1 POP SWAP2 SWAP1 POP JUMP JUMPDEST PUSH1 0x0 PUSH2 0x21AE DUP3 PUSH2 0x21B5 JUMP JUMPDEST SWAP1 POP SWAP2 SWAP1 POP JUMP JUMPDEST PUSH1 0x0 PUSH2 0x21C0 DUP3 PUSH2 0x21C7 JUMP JUMPDEST SWAP1 POP SWAP2 SWAP1 POP JUMP JUMPDEST PUSH1 0x0 PUSH2 0x21D2 DUP3 PUSH2 0x2179 JUMP JUMPDEST SWAP1 POP SWAP2 SWAP1 POP JUMP JUMPDEST PUSH1 0x0 JUMPDEST DUP4 DUP2 LT ISZERO PUSH2 0x21F7 JUMPI DUP1 DUP3 ADD MLOAD DUP2 DUP5 ADD MSTORE PUSH1 0x20 DUP2 ADD SWAP1 POP PUSH2 0x21DC JUMP JUMPDEST DUP4 DUP2 GT ISZERO PUSH2 0x2206 JUMPI PUSH1 0x0 DUP5 DUP5 ADD MSTORE JUMPDEST POP POP POP POP JUMP JUMPDEST PUSH32 0x4E487B7100000000000000000000000000000000000000000000000000000000 PUSH1 0x0 MSTORE PUSH1 0x11 PUSH1 0x4 MSTORE PUSH1 0x24 PUSH1 0x0 REVERT JUMPDEST PUSH32 0x4E487B7100000000000000000000000000000000000000000000000000000000 PUSH1 0x0 MSTORE PUSH1 0x12 PUSH1 0x4 MSTORE PUSH1 0x24 PUSH1 0x0 REVERT JUMPDEST PUSH1 0x0 DUP1 REVERT JUMPDEST PUSH1 0x0 PUSH1 0x1F NOT PUSH1 0x1F DUP4 ADD AND SWAP1 POP SWAP2 SWAP1 POP JUMP JUMPDEST PUSH32 0x756E626F756E64696E6720706572696F64207374617274656400000000000000 PUSH1 0x0 DUP3 ADD MSTORE POP JUMP JUMPDEST PUSH32 0x756E626F756E64696E6720706572696F642069736E2774206F76657200000000 PUSH1 0x0 DUP3 ADD MSTORE POP JUMP JUMPDEST PUSH32 0x43616E6E6F74207374616B652030000000000000000000000000000000000000 PUSH1 0x0 DUP3 ADD MSTORE POP JUMP JUMPDEST PUSH32 0x416464726573733A20696E73756666696369656E742062616C616E636520666F PUSH1 0x0 DUP3 ADD MSTORE PUSH32 0x722063616C6C0000000000000000000000000000000000000000000000000000 PUSH1 0x20 DUP3 ADD MSTORE POP JUMP JUMPDEST PUSH32 0x756E626F756E64696E67206E6F74207374617274656400000000000000000000 PUSH1 0x0 DUP3 ADD MSTORE POP JUMP JUMPDEST PUSH32 0x43616E6E6F7420726564756365206578697374696E6720706572696F64000000 PUSH1 0x0 DUP3 ADD MSTORE POP JUMP JUMPDEST PUSH32 0x43616E6E6F742077697468647261772030000000000000000000000000000000 PUSH1 0x0 DUP3 ADD MSTORE POP JUMP JUMPDEST PUSH32 0x50726F76696465642072657761726420746F6F20686967680000000000000000 PUSH1 0x0 DUP3 ADD MSTORE POP JUMP JUMPDEST PUSH32 0x416464726573733A2063616C6C20746F206E6F6E2D636F6E7472616374000000 PUSH1 0x0 DUP3 ADD MSTORE POP JUMP JUMPDEST PUSH32 0x43616C6C6572206973206E6F742052657761726473446973747269627574696F PUSH1 0x0 DUP3 ADD MSTORE PUSH32 0x6E20636F6E747261637400000000000000000000000000000000000000000000 PUSH1 0x20 DUP3 ADD MSTORE POP JUMP JUMPDEST PUSH32 0x5361666545524332303A204552433230206F7065726174696F6E20646964206E PUSH1 0x0 DUP3 ADD MSTORE PUSH32 0x6F74207375636365656400000000000000000000000000000000000000000000 PUSH1 0x20 DUP3 ADD MSTORE POP JUMP JUMPDEST PUSH32 0x5265656E7472616E637947756172643A207265656E7472616E742063616C6C00 PUSH1 0x0 DUP3 ADD MSTORE POP JUMP JUMPDEST PUSH2 0x24E7 DUP2 PUSH2 0x215B JUMP JUMPDEST DUP2 EQ PUSH2 0x24F2 JUMPI PUSH1 0x0 DUP1 REVERT JUMPDEST POP JUMP JUMPDEST PUSH2 0x24FE DUP2 PUSH2 0x216D JUMP JUMPDEST DUP2 EQ PUSH2 0x2509 JUMPI PUSH1 0x0 DUP1 REVERT JUMPDEST POP JUMP JUMPDEST PUSH2 0x2515 DUP2 PUSH2 0x2199 JUMP JUMPDEST DUP2 EQ PUSH2 0x2520 JUMPI PUSH1 0x0 DUP1 REVERT JUMPDEST POP JUMP INVALID LOG2 PUSH5 0x6970667358 0x22 SLT KECCAK256 PUSH7 0x1A42CDD73D13AC 0x28 CALL RETURNDATACOPY 0xE7 PUSH25 0x64BE9831D1FC2B498CB53DD98131A37E965D664736F6C6343 STOP ADDMOD SMOD STOP CALLER "
				},
				"gasEstimates": {
					"creation": {
						"codeDepositCost": "1912200",
						"executionCost": "infinite",
						"totalCost": "infinite"
					},
					"external": {
						"balanceOf(address)": "2908",
						"earned(address)": "infinite",
						"exit()": "infinite",
						"getReward()": "infinite",
						"lastTimeRewardApplicable()": "2563",
						"lastUpdateTime()": "2518",
						"notifyRewardAmount(uint256,uint256)": "infinite",
						"periodFinish()": "2539",
						"rewardPerToken()": "infinite",
						"rewardPerTokenStored()": "2495",
						"rewardRate()": "2452",
						"rewards(address)": "2860",
						"rewardsDistribution()": "2556",
						"rewardsToken()": "2622",
						"stake(uint256,address)": "infinite",
						"stakingToken()": "2689",
						"totalSupply()": "2505",
						"unboundingPeriod(uint256)": "infinite",
						"userRewardPerTokenPaid(address)": "2881",
						"withdraw(uint256)": "infinite"
					}
				},
				"methodIdentifiers": {
					"balanceOf(address)": "70a08231",
					"earned(address)": "008cc262",
					"exit()": "e9fad8ee",
					"getReward()": "3d18b912",
					"lastTimeRewardApplicable()": "80faa57d",
					"lastUpdateTime()": "c8f33c91",
					"notifyRewardAmount(uint256,uint256)": "246132f9",
					"periodFinish()": "ebe2b12b",
					"rewardPerToken()": "cd3daf9d",
					"rewardPerTokenStored()": "df136d65",
					"rewardRate()": "7b0a47ee",
					"rewards(address)": "0700037d",
					"rewardsDistribution()": "3fc6df6e",
					"rewardsToken()": "d1af0c7d",
					"stake(uint256,address)": "7acb7757",
					"stakingToken()": "72f702f3",
					"totalSupply()": "18160ddd",
					"unboundingPeriod(uint256)": "d505493d",
					"userRewardPerTokenPaid(address)": "8b876347",
					"withdraw(uint256)": "2e1a7d4d"
				}
			},
			"storageLayout": {
				"storage": [
					{
						"astId": 1084,
						"contract": "Orbis-balancer_old/contracts/rewards/StakingRewards.sol:StakingRewards",
						"label": "rewardsDistribution",
						"offset": 0,
						"slot": "0",
						"type": "t_address"
					},
					{
						"astId": 1051,
						"contract": "Orbis-balancer_old/contracts/rewards/StakingRewards.sol:StakingRewards",
						"label": "_guardCounter",
						"offset": 0,
						"slot": "1",
						"type": "t_uint256"
					},
					{
						"astId": 1121,
						"contract": "Orbis-balancer_old/contracts/rewards/StakingRewards.sol:StakingRewards",
						"label": "rewardsToken",
						"offset": 0,
						"slot": "2",
						"type": "t_contract(IERC20)77"
					},
					{
						"astId": 1124,
						"contract": "Orbis-balancer_old/contracts/rewards/StakingRewards.sol:StakingRewards",
						"label": "stakingToken",
						"offset": 0,
						"slot": "3",
						"type": "t_contract(IERC20)77"
					},
					{
						"astId": 1127,
						"contract": "Orbis-balancer_old/contracts/rewards/StakingRewards.sol:StakingRewards",
						"label": "periodFinish",
						"offset": 0,
						"slot": "4",
						"type": "t_uint256"
					},
					{
						"astId": 1130,
						"contract": "Orbis-balancer_old/contracts/rewards/StakingRewards.sol:StakingRewards",
						"label": "rewardRate",
						"offset": 0,
						"slot": "5",
						"type": "t_uint256"
					},
					{
						"astId": 1132,
						"contract": "Orbis-balancer_old/contracts/rewards/StakingRewards.sol:StakingRewards",
						"label": "lastUpdateTime",
						"offset": 0,
						"slot": "6",
						"type": "t_uint256"
					},
					{
						"astId": 1134,
						"contract": "Orbis-balancer_old/contracts/rewards/StakingRewards.sol:StakingRewards",
						"label": "rewardPerTokenStored",
						"offset": 0,
						"slot": "7",
						"type": "t_uint256"
					},
					{
						"astId": 1138,
						"contract": "Orbis-balancer_old/contracts/rewards/StakingRewards.sol:StakingRewards",
						"label": "userRewardPerTokenPaid",
						"offset": 0,
						"slot": "8",
						"type": "t_mapping(t_address,t_uint256)"
					},
					{
						"astId": 1142,
						"contract": "Orbis-balancer_old/contracts/rewards/StakingRewards.sol:StakingRewards",
						"label": "rewards",
						"offset": 0,
						"slot": "9",
						"type": "t_mapping(t_address,t_uint256)"
					},
					{
						"astId": 1144,
						"contract": "Orbis-balancer_old/contracts/rewards/StakingRewards.sol:StakingRewards",
						"label": "_totalSupply",
						"offset": 0,
						"slot": "10",
						"type": "t_uint256"
					},
					{
						"astId": 1148,
						"contract": "Orbis-balancer_old/contracts/rewards/StakingRewards.sol:StakingRewards",
						"label": "_balances",
						"offset": 0,
						"slot": "11",
						"type": "t_mapping(t_address,t_uint256)"
					},
					{
						"astId": 1150,
						"contract": "Orbis-balancer_old/contracts/rewards/StakingRewards.sol:StakingRewards",
						"label": "unBounding",
						"offset": 0,
						"slot": "12",
						"type": "t_bool"
					},
					{
						"astId": 1152,
						"contract": "Orbis-balancer_old/contracts/rewards/StakingRewards.sol:StakingRewards",
						"label": "durationTimestamp",
						"offset": 0,
						"slot": "13",
						"type": "t_uint256"
					}
				],
				"types": {
					"t_address": {
						"encoding": "inplace",
						"label": "address",
						"numberOfBytes": "20"
					},
					"t_bool": {
						"encoding": "inplace",
						"label": "bool",
						"numberOfBytes": "1"
					},
					"t_contract(IERC20)77": {
						"encoding": "inplace",
						"label": "contract IERC20",
						"numberOfBytes": "20"
					},
					"t_mapping(t_address,t_uint256)": {
						"encoding": "mapping",
						"key": "t_address",
						"label": "mapping(address => uint256)",
						"numberOfBytes": "32",
						"value": "t_uint256"
					},
					"t_uint256": {
						"encoding": "inplace",
						"label": "uint256",
						"numberOfBytes": "32"
					}
				}
			},
			"userdoc": {
				"kind": "user",
				"methods": {},
				"version": 1
			}
		}
	}
}